{
  "_format": "hh-sol-artifact-1",
  "contractName": "DeXcelPair",
  "sourceName": "src/backend/contracts/DeXcelPair.sol",
  "abi": [
    {
      "inputs": [],
      "stateMutability": "nonpayable",
      "type": "constructor"
    },
    {
      "anonymous": false,
      "inputs": [
        {
          "indexed": true,
          "internalType": "address",
          "name": "owner",
          "type": "address"
        },
        {
          "indexed": true,
          "internalType": "address",
          "name": "spender",
          "type": "address"
        },
        {
          "indexed": false,
          "internalType": "uint256",
          "name": "value",
          "type": "uint256"
        }
      ],
      "name": "Approval",
      "type": "event"
    },
    {
      "anonymous": false,
      "inputs": [
        {
          "indexed": true,
          "internalType": "address",
          "name": "sender",
          "type": "address"
        },
        {
          "indexed": false,
          "internalType": "uint256",
          "name": "amount0",
          "type": "uint256"
        },
        {
          "indexed": false,
          "internalType": "uint256",
          "name": "amount1",
          "type": "uint256"
        },
        {
          "indexed": true,
          "internalType": "address",
          "name": "to",
          "type": "address"
        }
      ],
      "name": "Burn",
      "type": "event"
    },
    {
      "anonymous": false,
      "inputs": [
        {
          "indexed": true,
          "internalType": "address",
          "name": "sender",
          "type": "address"
        },
        {
          "indexed": false,
          "internalType": "uint256",
          "name": "amount0",
          "type": "uint256"
        },
        {
          "indexed": false,
          "internalType": "uint256",
          "name": "amount1",
          "type": "uint256"
        }
      ],
      "name": "Mint",
      "type": "event"
    },
    {
      "anonymous": false,
      "inputs": [
        {
          "indexed": true,
          "internalType": "address",
          "name": "sender",
          "type": "address"
        },
        {
          "indexed": false,
          "internalType": "uint256",
          "name": "amount0In",
          "type": "uint256"
        },
        {
          "indexed": false,
          "internalType": "uint256",
          "name": "amount1In",
          "type": "uint256"
        },
        {
          "indexed": false,
          "internalType": "uint256",
          "name": "amount0Out",
          "type": "uint256"
        },
        {
          "indexed": false,
          "internalType": "uint256",
          "name": "amount1Out",
          "type": "uint256"
        },
        {
          "indexed": true,
          "internalType": "address",
          "name": "to",
          "type": "address"
        }
      ],
      "name": "Swap",
      "type": "event"
    },
    {
      "anonymous": false,
      "inputs": [
        {
          "indexed": false,
          "internalType": "uint256",
          "name": "reserve0",
          "type": "uint256"
        },
        {
          "indexed": false,
          "internalType": "uint256",
          "name": "reserve1",
          "type": "uint256"
        }
      ],
      "name": "Sync",
      "type": "event"
    },
    {
      "anonymous": false,
      "inputs": [
        {
          "indexed": true,
          "internalType": "address",
          "name": "from",
          "type": "address"
        },
        {
          "indexed": true,
          "internalType": "address",
          "name": "to",
          "type": "address"
        },
        {
          "indexed": false,
          "internalType": "uint256",
          "name": "value",
          "type": "uint256"
        }
      ],
      "name": "Transfer",
      "type": "event"
    },
    {
      "inputs": [],
      "name": "MINIMUM_LIQUIDITY",
      "outputs": [
        {
          "internalType": "uint256",
          "name": "",
          "type": "uint256"
        }
      ],
      "stateMutability": "view",
      "type": "function"
    },
    {
      "inputs": [
        {
          "internalType": "address",
          "name": "",
          "type": "address"
        },
        {
          "internalType": "address",
          "name": "",
          "type": "address"
        }
      ],
      "name": "allowance",
      "outputs": [
        {
          "internalType": "uint256",
          "name": "",
          "type": "uint256"
        }
      ],
      "stateMutability": "view",
      "type": "function"
    },
    {
      "inputs": [
        {
          "internalType": "address",
          "name": "spender",
          "type": "address"
        },
        {
          "internalType": "uint256",
          "name": "value",
          "type": "uint256"
        }
      ],
      "name": "approve",
      "outputs": [
        {
          "internalType": "bool",
          "name": "",
          "type": "bool"
        }
      ],
      "stateMutability": "nonpayable",
      "type": "function"
    },
    {
      "inputs": [
        {
          "internalType": "address",
          "name": "",
          "type": "address"
        }
      ],
      "name": "balanceOf",
      "outputs": [
        {
          "internalType": "uint256",
          "name": "",
          "type": "uint256"
        }
      ],
      "stateMutability": "view",
      "type": "function"
    },
    {
      "inputs": [
        {
          "internalType": "address",
          "name": "to",
          "type": "address"
        }
      ],
      "name": "burn",
      "outputs": [
        {
          "internalType": "uint256",
          "name": "amount0",
          "type": "uint256"
        },
        {
          "internalType": "uint256",
          "name": "amount1",
          "type": "uint256"
        }
      ],
      "stateMutability": "nonpayable",
      "type": "function"
    },
    {
      "inputs": [],
      "name": "decimals",
      "outputs": [
        {
          "internalType": "uint8",
          "name": "",
          "type": "uint8"
        }
      ],
      "stateMutability": "view",
      "type": "function"
    },
    {
      "inputs": [],
      "name": "factory",
      "outputs": [
        {
          "internalType": "address",
          "name": "",
          "type": "address"
        }
      ],
      "stateMutability": "view",
      "type": "function"
    },
    {
      "inputs": [],
      "name": "getReserves",
      "outputs": [
        {
          "internalType": "uint256",
          "name": "_reserve0",
          "type": "uint256"
        },
        {
          "internalType": "uint256",
          "name": "_reserve1",
          "type": "uint256"
        },
        {
          "internalType": "uint256",
          "name": "_blockTimestampLast",
          "type": "uint256"
        }
      ],
      "stateMutability": "view",
      "type": "function"
    },
    {
      "inputs": [
        {
          "internalType": "address",
          "name": "_token0",
          "type": "address"
        },
        {
          "internalType": "address",
          "name": "_token1",
          "type": "address"
        }
      ],
      "name": "initialize",
      "outputs": [],
      "stateMutability": "nonpayable",
      "type": "function"
    },
    {
      "inputs": [],
      "name": "kLast",
      "outputs": [
        {
          "internalType": "uint256",
          "name": "",
          "type": "uint256"
        }
      ],
      "stateMutability": "view",
      "type": "function"
    },
    {
      "inputs": [
        {
          "internalType": "address",
          "name": "to",
          "type": "address"
        }
      ],
      "name": "mint",
      "outputs": [
        {
          "internalType": "uint256",
          "name": "liquidity",
          "type": "uint256"
        }
      ],
      "stateMutability": "nonpayable",
      "type": "function"
    },
    {
      "inputs": [],
      "name": "name",
      "outputs": [
        {
          "internalType": "string",
          "name": "",
          "type": "string"
        }
      ],
      "stateMutability": "view",
      "type": "function"
    },
    {
      "inputs": [
        {
          "internalType": "uint256",
          "name": "amount0Out",
          "type": "uint256"
        },
        {
          "internalType": "uint256",
          "name": "amount1Out",
          "type": "uint256"
        },
        {
          "internalType": "address",
          "name": "to",
          "type": "address"
        },
        {
          "internalType": "bytes",
          "name": "data",
          "type": "bytes"
        }
      ],
      "name": "swap",
      "outputs": [],
      "stateMutability": "nonpayable",
      "type": "function"
    },
    {
      "inputs": [],
      "name": "symbol",
      "outputs": [
        {
          "internalType": "string",
          "name": "",
          "type": "string"
        }
      ],
      "stateMutability": "view",
      "type": "function"
    },
    {
      "inputs": [],
      "name": "sync",
      "outputs": [],
      "stateMutability": "nonpayable",
      "type": "function"
    },
    {
      "inputs": [],
      "name": "token0",
      "outputs": [
        {
          "internalType": "address",
          "name": "",
          "type": "address"
        }
      ],
      "stateMutability": "view",
      "type": "function"
    },
    {
      "inputs": [],
      "name": "token1",
      "outputs": [
        {
          "internalType": "address",
          "name": "",
          "type": "address"
        }
      ],
      "stateMutability": "view",
      "type": "function"
    },
    {
      "inputs": [],
      "name": "totalSupply",
      "outputs": [
        {
          "internalType": "uint256",
          "name": "",
          "type": "uint256"
        }
      ],
      "stateMutability": "view",
      "type": "function"
    },
    {
      "inputs": [
        {
          "internalType": "address",
          "name": "to",
          "type": "address"
        },
        {
          "internalType": "uint256",
          "name": "value",
          "type": "uint256"
        }
      ],
      "name": "transfer",
      "outputs": [
        {
          "internalType": "bool",
          "name": "",
          "type": "bool"
        }
      ],
      "stateMutability": "nonpayable",
      "type": "function"
    },
    {
      "inputs": [
        {
          "internalType": "address",
          "name": "from",
          "type": "address"
        },
        {
          "internalType": "address",
          "name": "to",
          "type": "address"
        },
        {
          "internalType": "uint256",
          "name": "value",
          "type": "uint256"
        }
      ],
      "name": "transferFrom",
      "outputs": [
        {
          "internalType": "bool",
          "name": "",
          "type": "bool"
        }
      ],
      "stateMutability": "nonpayable",
      "type": "function"
    }
  ],
  "bytecode": "0x60806040527fffffffffffffffffffffffffffffffffffffffffffffffffffffffffffffffff60005534801561003457600080fd5b5033600460006101000a81548173ffffffffffffffffffffffffffffffffffffffff021916908373ffffffffffffffffffffffffffffffffffffffff160217905550612dbd806100856000396000f3fe608060405234801561001057600080fd5b506004361061012c5760003560e01c806370a08231116100ad578063ba9a7a5611610071578063ba9a7a561461035e578063c45a01551461037c578063d21220a71461039a578063dd62ed3e146103b8578063fff6cae9146103e85761012c565b806370a08231146102915780637464fc3d146102c157806389afcb44146102df57806395d89b4114610310578063a9059cbb1461032e5761012c565b806318160ddd116100f457806318160ddd146101d957806323b872dd146101f7578063313ce56714610227578063485cc955146102455780636a627842146102615761012c565b8063022c0d9f1461013157806306fdde031461014d5780630902f1ac1461016b578063095ea7b31461018b5780630dfe1681146101bb575b600080fd5b61014b600480360381019061014691906120df565b6103f2565b005b6101556108ef565b60405161016291906121f7565b60405180910390f35b610173610928565b60405161018293929190612228565b60405180910390f35b6101a560048036038101906101a0919061225f565b610941565b6040516101b291906122ba565b60405180910390f35b6101c3610958565b6040516101d091906122e4565b60405180910390f35b6101e161097e565b6040516101ee91906122ff565b60405180910390f35b610211600480360381019061020c919061231a565b610984565b60405161021e91906122ba565b60405180910390f35b61022f610b30565b60405161023c9190612389565b60405180910390f35b61025f600480360381019061025a91906123a4565b610b35565b005b61027b600480360381019061027691906123e4565b610c4b565b60405161028891906122ff565b60405180910390f35b6102ab60048036038101906102a691906123e4565b610f4c565b6040516102b891906122ff565b60405180910390f35b6102c9610f64565b6040516102d691906122ff565b60405180910390f35b6102f960048036038101906102f491906123e4565b610f6a565b604051610307929190612411565b60405180910390f35b61031861136c565b60405161032591906121f7565b60405180910390f35b6103486004803603810190610343919061225f565b6113a5565b60405161035591906122ba565b60405180910390f35b6103666113bc565b60405161037391906122ff565b60405180910390f35b6103846113c2565b60405161039191906122e4565b60405180910390f35b6103a26113e8565b6040516103af91906122e4565b60405180910390f35b6103d260048036038101906103cd91906123a4565b61140e565b6040516103df91906122ff565b60405180910390f35b6103f0611433565b005b60008511806104015750600084115b610440576040517f08c379a0000000000000000000000000000000000000000000000000000000008152600401610437906124ac565b60405180910390fd5b60008061044b610928565b5091509150818710801561045e57508086105b61049d576040517f08c379a00000000000000000000000000000000000000000000000000000000081526004016104949061253e565b60405180910390fd5b6000806000600560009054906101000a900473ffffffffffffffffffffffffffffffffffffffff1690506000600660009054906101000a900473ffffffffffffffffffffffffffffffffffffffff1690508173ffffffffffffffffffffffffffffffffffffffff168973ffffffffffffffffffffffffffffffffffffffff161415801561055657508073ffffffffffffffffffffffffffffffffffffffff168973ffffffffffffffffffffffffffffffffffffffff1614155b610595576040517f08c379a000000000000000000000000000000000000000000000000000000000815260040161058c906125aa565b60405180910390fd5b60008b11156105aa576105a9828a8d61157b565b5b60008a11156105bf576105be818a8c61157b565b5b8173ffffffffffffffffffffffffffffffffffffffff166370a08231306040518263ffffffff1660e01b81526004016105f891906122e4565b602060405180830381865afa158015610615573d6000803e3d6000fd5b505050506040513d601f19601f8201168201806040525081019061063991906125df565b93508073ffffffffffffffffffffffffffffffffffffffff166370a08231306040518263ffffffff1660e01b815260040161067491906122e4565b602060405180830381865afa158015610691573d6000803e3d6000fd5b505050506040513d601f19601f820116820180604052508101906106b591906125df565b92505050600089856106c7919061263b565b83116106d45760006106ec565b89856106e0919061263b565b836106eb919061263b565b5b9050600089856106fc919061263b565b8311610709576000610721565b8985610715919061263b565b83610720919061263b565b5b905060008211806107325750600081115b610771576040517f08c379a0000000000000000000000000000000000000000000000000000000008152600401610768906126e1565b60405180910390fd5b60006107ad61078a60038561170590919063ffffffff16565b61079f6103e88861170590919063ffffffff16565b61177290919063ffffffff16565b905060006107eb6107c860038561170590919063ffffffff16565b6107dd6103e88861170590919063ffffffff16565b61177290919063ffffffff16565b9050610815620f4240610807898b61170590919063ffffffff16565b61170590919063ffffffff16565b610828828461170590919063ffffffff16565b1015610869576040517f08c379a00000000000000000000000000000000000000000000000000000000081526004016108609061274d565b60405180910390fd5b5050610877848488886117cb565b8873ffffffffffffffffffffffffffffffffffffffff163373ffffffffffffffffffffffffffffffffffffffff167fd78ad95fa46c994b6551d0da85fc275fe613ce37657fb8d5e3d130840159d82284848f8f6040516108da949392919061276d565b60405180910390a35050505050505050505050565b6040518060400160405280600b81526020017f44655863656c20636f696e00000000000000000000000000000000000000000081525081565b6000806000600754925060085491506009549050909192565b600061094e33848461188c565b6001905092915050565b600560009054906101000a900473ffffffffffffffffffffffffffffffffffffffff1681565b60015481565b60008054600360008673ffffffffffffffffffffffffffffffffffffffff1673ffffffffffffffffffffffffffffffffffffffff16815260200190815260200160002060003373ffffffffffffffffffffffffffffffffffffffff1673ffffffffffffffffffffffffffffffffffffffff1681526020019081526020016000205414610b1a57610a9982600360008773ffffffffffffffffffffffffffffffffffffffff1673ffffffffffffffffffffffffffffffffffffffff16815260200190815260200160002060003373ffffffffffffffffffffffffffffffffffffffff1673ffffffffffffffffffffffffffffffffffffffff1681526020019081526020016000205461177290919063ffffffff16565b600360008673ffffffffffffffffffffffffffffffffffffffff1673ffffffffffffffffffffffffffffffffffffffff16815260200190815260200160002060003373ffffffffffffffffffffffffffffffffffffffff1673ffffffffffffffffffffffffffffffffffffffff168152602001908152602001600020819055505b610b25848484611977565b600190509392505050565b601281565b600460009054906101000a900473ffffffffffffffffffffffffffffffffffffffff1673ffffffffffffffffffffffffffffffffffffffff163373ffffffffffffffffffffffffffffffffffffffff1614610bc5576040517f08c379a0000000000000000000000000000000000000000000000000000000008152600401610bbc906127fe565b60405180910390fd5b81600560006101000a81548173ffffffffffffffffffffffffffffffffffffffff021916908373ffffffffffffffffffffffffffffffffffffffff16021790555080600660006101000a81548173ffffffffffffffffffffffffffffffffffffffff021916908373ffffffffffffffffffffffffffffffffffffffff1602179055505050565b6000806000610c58610928565b50915091506000600560009054906101000a900473ffffffffffffffffffffffffffffffffffffffff1673ffffffffffffffffffffffffffffffffffffffff166370a08231306040518263ffffffff1660e01b8152600401610cba91906122e4565b602060405180830381865afa158015610cd7573d6000803e3d6000fd5b505050506040513d601f19601f82011682018060405250810190610cfb91906125df565b90506000600660009054906101000a900473ffffffffffffffffffffffffffffffffffffffff1673ffffffffffffffffffffffffffffffffffffffff166370a08231306040518263ffffffff1660e01b8152600401610d5a91906122e4565b602060405180830381865afa158015610d77573d6000803e3d6000fd5b505050506040513d601f19601f82011682018060405250810190610d9b91906125df565b90506000610db2858461177290919063ffffffff16565b90506000610dc9858461177290919063ffffffff16565b90506000610dd78787611b0b565b90506000600154905060008103610e2b57610e176103e8610e09610e04868861170590919063ffffffff16565b611cbc565b61177290919063ffffffff16565b9850610e2660006103e8611d36565b610e72565b610e6f88610e42838761170590919063ffffffff16565b610e4c919061284d565b88610e60848761170590919063ffffffff16565b610e6a919061284d565b611e50565b98505b60008911610eb5576040517f08c379a0000000000000000000000000000000000000000000000000000000008152600401610eac906128f0565b60405180910390fd5b610ebf8a8a611d36565b610ecb86868a8a6117cb565b8115610eef57610ee860085460075461170590919063ffffffff16565b600a819055505b3373ffffffffffffffffffffffffffffffffffffffff167f4c209b5fc8ad50758f13e2e1088ba56a560dff690a1c6fef26394f4c03821c4f8585604051610f37929190612411565b60405180910390a25050505050505050919050565b60026020528060005260406000206000915090505481565b600a5481565b600080600080610f78610928565b50915091506000600560009054906101000a900473ffffffffffffffffffffffffffffffffffffffff1690506000600660009054906101000a900473ffffffffffffffffffffffffffffffffffffffff16905060008273ffffffffffffffffffffffffffffffffffffffff166370a08231306040518263ffffffff1660e01b815260040161100691906122e4565b602060405180830381865afa158015611023573d6000803e3d6000fd5b505050506040513d601f19601f8201168201806040525081019061104791906125df565b905060008273ffffffffffffffffffffffffffffffffffffffff166370a08231306040518263ffffffff1660e01b815260040161108491906122e4565b602060405180830381865afa1580156110a1573d6000803e3d6000fd5b505050506040513d601f19601f820116820180604052508101906110c591906125df565b90506000600260003073ffffffffffffffffffffffffffffffffffffffff1673ffffffffffffffffffffffffffffffffffffffff16815260200190815260200160002054905060006111178888611b0b565b90506000600154905080611134868561170590919063ffffffff16565b61113e919061284d565b9a5080611154858561170590919063ffffffff16565b61115e919061284d565b995060008b118015611170575060008a115b6111af576040517f08c379a00000000000000000000000000000000000000000000000000000000081526004016111a690612982565b60405180910390fd5b6111b93084611e69565b6111c4878d8d61157b565b6111cf868d8c61157b565b8673ffffffffffffffffffffffffffffffffffffffff166370a08231306040518263ffffffff1660e01b815260040161120891906122e4565b602060405180830381865afa158015611225573d6000803e3d6000fd5b505050506040513d601f19601f8201168201806040525081019061124991906125df565b94508573ffffffffffffffffffffffffffffffffffffffff166370a08231306040518263ffffffff1660e01b815260040161128491906122e4565b602060405180830381865afa1580156112a1573d6000803e3d6000fd5b505050506040513d601f19601f820116820180604052508101906112c591906125df565b93506112d385858b8b6117cb565b81156112f7576112f060085460075461170590919063ffffffff16565b600a819055505b8b73ffffffffffffffffffffffffffffffffffffffff163373ffffffffffffffffffffffffffffffffffffffff167fdccd412f0b1252819cb1fd330b93224ca42612892bb3f4f789976e6d819364968d8d604051611356929190612411565b60405180910390a3505050505050505050915091565b6040518060400160405280600481526020017f4458434c0000000000000000000000000000000000000000000000000000000081525081565b60006113b2338484611977565b6001905092915050565b6103e881565b600460009054906101000a900473ffffffffffffffffffffffffffffffffffffffff1681565b600660009054906101000a900473ffffffffffffffffffffffffffffffffffffffff1681565b6003602052816000526040600020602052806000526040600020600091509150505481565b611579600560009054906101000a900473ffffffffffffffffffffffffffffffffffffffff1673ffffffffffffffffffffffffffffffffffffffff166370a08231306040518263ffffffff1660e01b815260040161149191906122e4565b602060405180830381865afa1580156114ae573d6000803e3d6000fd5b505050506040513d601f19601f820116820180604052508101906114d291906125df565b600660009054906101000a900473ffffffffffffffffffffffffffffffffffffffff1673ffffffffffffffffffffffffffffffffffffffff166370a08231306040518263ffffffff1660e01b815260040161152d91906122e4565b602060405180830381865afa15801561154a573d6000803e3d6000fd5b505050506040513d601f19601f8201168201806040525081019061156e91906125df565b6007546008546117cb565b565b6000808473ffffffffffffffffffffffffffffffffffffffff166040518060400160405280601981526020017f7472616e7366657228616464726573732c75696e7432353629000000000000008152508051906020012085856040516024016115e59291906129a2565b604051602081830303815290604052907bffffffffffffffffffffffffffffffffffffffffffffffffffffffff19166020820180517bffffffffffffffffffffffffffffffffffffffffffffffffffffffff838183161783525050505060405161164f9190612a12565b6000604051808303816000865af19150503d806000811461168c576040519150601f19603f3d011682016040523d82523d6000602084013e611691565b606091505b50915091508180156116bf57506000815114806116be5750808060200190518101906116bd9190612a55565b5b5b6116fe576040517f08c379a00000000000000000000000000000000000000000000000000000000081526004016116f590612ace565b60405180910390fd5b5050505050565b60008082148061172d57508282838561171e9190612aee565b92508261172b919061284d565b145b61176c576040517f08c379a000000000000000000000000000000000000000000000000000000000815260040161176390612b7c565b60405180910390fd5b92915050565b6000828284611781919061263b565b91508111156117c5576040517f08c379a00000000000000000000000000000000000000000000000000000000081526004016117bc90612be8565b60405180910390fd5b92915050565b60005484111580156117df57506000548311155b61181e576040517f08c379a000000000000000000000000000000000000000000000000000000000815260040161181590612c54565b60405180910390fd5b6000640100000000426118319190612c74565b90508460078190555083600881905550806009819055507fcf2aa50876cdfbb541206f89af0ee78d44a2abf8d328e37fa4917f982149848a60075460085460405161187d929190612411565b60405180910390a15050505050565b80600360008573ffffffffffffffffffffffffffffffffffffffff1673ffffffffffffffffffffffffffffffffffffffff16815260200190815260200160002060008473ffffffffffffffffffffffffffffffffffffffff1673ffffffffffffffffffffffffffffffffffffffff168152602001908152602001600020819055508173ffffffffffffffffffffffffffffffffffffffff168373ffffffffffffffffffffffffffffffffffffffff167f8c5be1e5ebec7d5bd14f71427d1e84f3dd0314c0f7b2291e5b200ac8c7c3b9258360405161196a91906122ff565b60405180910390a3505050565b6119c981600260008673ffffffffffffffffffffffffffffffffffffffff1673ffffffffffffffffffffffffffffffffffffffff1681526020019081526020016000205461177290919063ffffffff16565b600260008573ffffffffffffffffffffffffffffffffffffffff1673ffffffffffffffffffffffffffffffffffffffff16815260200190815260200160002081905550611a5e81600260008573ffffffffffffffffffffffffffffffffffffffff1673ffffffffffffffffffffffffffffffffffffffff16815260200190815260200160002054611f8390919063ffffffff16565b600260008473ffffffffffffffffffffffffffffffffffffffff1673ffffffffffffffffffffffffffffffffffffffff168152602001908152602001600020819055508173ffffffffffffffffffffffffffffffffffffffff168373ffffffffffffffffffffffffffffffffffffffff167fddf252ad1be2c89b69c2b068fc378daa952ba7f163c4a11628f55a4df523b3ef83604051611afe91906122ff565b60405180910390a3505050565b600080600460009054906101000a900473ffffffffffffffffffffffffffffffffffffffff1673ffffffffffffffffffffffffffffffffffffffff1663017e7e586040518163ffffffff1660e01b8152600401602060405180830381865afa158015611b7b573d6000803e3d6000fd5b505050506040513d601f19601f82011682018060405250810190611b9f9190612cba565b9050600073ffffffffffffffffffffffffffffffffffffffff168173ffffffffffffffffffffffffffffffffffffffff16141591506000600a5490508215611ca25760008114611c9d576000611c06611c01868861170590919063ffffffff16565b611cbc565b90506000611c1383611cbc565b905080821115611c9a576000611c46611c35838561177290919063ffffffff16565b60015461170590919063ffffffff16565b90506000611c7083611c6260058761170590919063ffffffff16565b611f8390919063ffffffff16565b905060008183611c80919061284d565b90506000811115611c9657611c958782611d36565b5b5050505b50505b611cb4565b60008114611cb3576000600a819055505b5b505092915050565b60006003821115611d235781905060006001600284611cdb919061284d565b611ce59190612ce7565b90505b81811015611d1d578091506002818285611d02919061284d565b611d0c9190612ce7565b611d16919061284d565b9050611ce8565b50611d31565b60008214611d3057600190505b5b919050565b611d4b81600154611f8390919063ffffffff16565b600181905550611da381600260008573ffffffffffffffffffffffffffffffffffffffff1673ffffffffffffffffffffffffffffffffffffffff16815260200190815260200160002054611f8390919063ffffffff16565b600260008473ffffffffffffffffffffffffffffffffffffffff1673ffffffffffffffffffffffffffffffffffffffff168152602001908152602001600020819055508173ffffffffffffffffffffffffffffffffffffffff16600073ffffffffffffffffffffffffffffffffffffffff167fddf252ad1be2c89b69c2b068fc378daa952ba7f163c4a11628f55a4df523b3ef83604051611e4491906122ff565b60405180910390a35050565b6000818310611e5f5781611e61565b825b905092915050565b611ebb81600260008573ffffffffffffffffffffffffffffffffffffffff1673ffffffffffffffffffffffffffffffffffffffff1681526020019081526020016000205461177290919063ffffffff16565b600260008473ffffffffffffffffffffffffffffffffffffffff1673ffffffffffffffffffffffffffffffffffffffff16815260200190815260200160002081905550611f138160015461177290919063ffffffff16565b600181905550600073ffffffffffffffffffffffffffffffffffffffff168273ffffffffffffffffffffffffffffffffffffffff167fddf252ad1be2c89b69c2b068fc378daa952ba7f163c4a11628f55a4df523b3ef83604051611f7791906122ff565b60405180910390a35050565b6000828284611f929190612ce7565b9150811015611fd6576040517f08c379a0000000000000000000000000000000000000000000000000000000008152600401611fcd90612d67565b60405180910390fd5b92915050565b600080fd5b600080fd5b6000819050919050565b611ff981611fe6565b811461200457600080fd5b50565b60008135905061201681611ff0565b92915050565b600073ffffffffffffffffffffffffffffffffffffffff82169050919050565b60006120478261201c565b9050919050565b6120578161203c565b811461206257600080fd5b50565b6000813590506120748161204e565b92915050565b600080fd5b600080fd5b600080fd5b60008083601f84011261209f5761209e61207a565b5b8235905067ffffffffffffffff8111156120bc576120bb61207f565b5b6020830191508360018202830111156120d8576120d7612084565b5b9250929050565b6000806000806000608086880312156120fb576120fa611fdc565b5b600061210988828901612007565b955050602061211a88828901612007565b945050604061212b88828901612065565b935050606086013567ffffffffffffffff81111561214c5761214b611fe1565b5b61215888828901612089565b92509250509295509295909350565b600081519050919050565b600082825260208201905092915050565b60005b838110156121a1578082015181840152602081019050612186565b60008484015250505050565b6000601f19601f8301169050919050565b60006121c982612167565b6121d38185612172565b93506121e3818560208601612183565b6121ec816121ad565b840191505092915050565b6000602082019050818103600083015261221181846121be565b905092915050565b61222281611fe6565b82525050565b600060608201905061223d6000830186612219565b61224a6020830185612219565b6122576040830184612219565b949350505050565b6000806040838503121561227657612275611fdc565b5b600061228485828601612065565b925050602061229585828601612007565b9150509250929050565b60008115159050919050565b6122b48161229f565b82525050565b60006020820190506122cf60008301846122ab565b92915050565b6122de8161203c565b82525050565b60006020820190506122f960008301846122d5565b92915050565b60006020820190506123146000830184612219565b92915050565b60008060006060848603121561233357612332611fdc565b5b600061234186828701612065565b935050602061235286828701612065565b925050604061236386828701612007565b9150509250925092565b600060ff82169050919050565b6123838161236d565b82525050565b600060208201905061239e600083018461237a565b92915050565b600080604083850312156123bb576123ba611fdc565b5b60006123c985828601612065565b92505060206123da85828601612065565b9150509250929050565b6000602082840312156123fa576123f9611fdc565b5b600061240884828501612065565b91505092915050565b60006040820190506124266000830185612219565b6124336020830184612219565b9392505050565b7f556e697377617056323a20494e53554646494349454e545f4f55545055545f4160008201527f4d4f554e54000000000000000000000000000000000000000000000000000000602082015250565b6000612496602583612172565b91506124a18261243a565b604082019050919050565b600060208201905081810360008301526124c581612489565b9050919050565b7f556e697377617056323a20494e53554646494349454e545f4c4951554944495460008201527f5900000000000000000000000000000000000000000000000000000000000000602082015250565b6000612528602183612172565b9150612533826124cc565b604082019050919050565b600060208201905081810360008301526125578161251b565b9050919050565b7f556e697377617056323a20494e56414c49445f544f0000000000000000000000600082015250565b6000612594601583612172565b915061259f8261255e565b602082019050919050565b600060208201905081810360008301526125c381612587565b9050919050565b6000815190506125d981611ff0565b92915050565b6000602082840312156125f5576125f4611fdc565b5b6000612603848285016125ca565b91505092915050565b7f4e487b7100000000000000000000000000000000000000000000000000000000600052601160045260246000fd5b600061264682611fe6565b915061265183611fe6565b92508282039050818111156126695761266861260c565b5b92915050565b7f556e697377617056323a20494e53554646494349454e545f494e5055545f414d60008201527f4f554e5400000000000000000000000000000000000000000000000000000000602082015250565b60006126cb602483612172565b91506126d68261266f565b604082019050919050565b600060208201905081810360008301526126fa816126be565b9050919050565b7f556e697377617056323a204b0000000000000000000000000000000000000000600082015250565b6000612737600c83612172565b915061274282612701565b602082019050919050565b600060208201905081810360008301526127668161272a565b9050919050565b60006080820190506127826000830187612219565b61278f6020830186612219565b61279c6040830185612219565b6127a96060830184612219565b95945050505050565b7f556e697377617056323a20464f5242494444454e000000000000000000000000600082015250565b60006127e8601483612172565b91506127f3826127b2565b602082019050919050565b60006020820190508181036000830152612817816127db565b9050919050565b7f4e487b7100000000000000000000000000000000000000000000000000000000600052601260045260246000fd5b600061285882611fe6565b915061286383611fe6565b9250826128735761287261281e565b5b828204905092915050565b7f556e697377617056323a20494e53554646494349454e545f4c4951554944495460008201527f595f4d494e544544000000000000000000000000000000000000000000000000602082015250565b60006128da602883612172565b91506128e58261287e565b604082019050919050565b60006020820190508181036000830152612909816128cd565b9050919050565b7f556e697377617056323a20494e53554646494349454e545f4c4951554944495460008201527f595f4255524e4544000000000000000000000000000000000000000000000000602082015250565b600061296c602883612172565b915061297782612910565b604082019050919050565b6000602082019050818103600083015261299b8161295f565b9050919050565b60006040820190506129b760008301856122d5565b6129c46020830184612219565b9392505050565b600081519050919050565b600081905092915050565b60006129ec826129cb565b6129f681856129d6565b9350612a06818560208601612183565b80840191505092915050565b6000612a1e82846129e1565b915081905092915050565b612a328161229f565b8114612a3d57600080fd5b50565b600081519050612a4f81612a29565b92915050565b600060208284031215612a6b57612a6a611fdc565b5b6000612a7984828501612a40565b91505092915050565b7f556e697377617056323a205452414e534645525f4641494c4544000000000000600082015250565b6000612ab8601a83612172565b9150612ac382612a82565b602082019050919050565b60006020820190508181036000830152612ae781612aab565b9050919050565b6000612af982611fe6565b9150612b0483611fe6565b9250828202612b1281611fe6565b91508282048414831517612b2957612b2861260c565b5b5092915050565b7f64732d6d6174682d6d756c2d6f766572666c6f77000000000000000000000000600082015250565b6000612b66601483612172565b9150612b7182612b30565b602082019050919050565b60006020820190508181036000830152612b9581612b59565b9050919050565b7f64732d6d6174682d7375622d756e646572666c6f770000000000000000000000600082015250565b6000612bd2601583612172565b9150612bdd82612b9c565b602082019050919050565b60006020820190508181036000830152612c0181612bc5565b9050919050565b7f556e697377617056323a204f564552464c4f5700000000000000000000000000600082015250565b6000612c3e601383612172565b9150612c4982612c08565b602082019050919050565b60006020820190508181036000830152612c6d81612c31565b9050919050565b6000612c7f82611fe6565b9150612c8a83611fe6565b925082612c9a57612c9961281e565b5b828206905092915050565b600081519050612cb48161204e565b92915050565b600060208284031215612cd057612ccf611fdc565b5b6000612cde84828501612ca5565b91505092915050565b6000612cf282611fe6565b9150612cfd83611fe6565b9250828201905080821115612d1557612d1461260c565b5b92915050565b7f64732d6d6174682d6164642d6f766572666c6f77000000000000000000000000600082015250565b6000612d51601483612172565b9150612d5c82612d1b565b602082019050919050565b60006020820190508181036000830152612d8081612d44565b905091905056fea2646970667358221220d23519746d7821b0bbf9bfa3ce25fa28802cecee0592456d7e85b8296efdfcb864736f6c63430008110033",
  "linkReferences": {},
  "deployedLinkReferences": {}
}