{
  "_format": "hh-sol-artifact-1",
  "contractName": "DeXcelRouter",
  "sourceName": "src/backend/contracts/DeXcelRouter.sol",
  "abi": [
    {
      "inputs": [
        {
          "internalType": "address",
          "name": "_factory",
          "type": "address"
        },
        {
          "internalType": "address",
          "name": "_WETH",
          "type": "address"
        }
      ],
      "stateMutability": "nonpayable",
      "type": "constructor"
    },
    {
      "inputs": [],
      "name": "WETH",
      "outputs": [
        {
          "internalType": "address",
          "name": "",
          "type": "address"
        }
      ],
      "stateMutability": "view",
      "type": "function"
    },
    {
      "inputs": [
        {
          "internalType": "address",
          "name": "tokenA",
          "type": "address"
        },
        {
          "internalType": "address",
          "name": "tokenB",
          "type": "address"
        },
        {
          "internalType": "uint256",
          "name": "amountADesired",
          "type": "uint256"
        },
        {
          "internalType": "uint256",
          "name": "amountBDesired",
          "type": "uint256"
        },
        {
          "internalType": "uint256",
          "name": "amountAMin",
          "type": "uint256"
        },
        {
          "internalType": "uint256",
          "name": "amountBMin",
          "type": "uint256"
        },
        {
          "internalType": "address",
          "name": "to",
          "type": "address"
        },
        {
          "internalType": "uint256",
          "name": "deadline",
          "type": "uint256"
        }
      ],
      "name": "addLiquidity",
      "outputs": [
        {
          "internalType": "uint256",
          "name": "amountA",
          "type": "uint256"
        },
        {
          "internalType": "uint256",
          "name": "amountB",
          "type": "uint256"
        },
        {
          "internalType": "uint256",
          "name": "liquidity",
          "type": "uint256"
        }
      ],
      "stateMutability": "nonpayable",
      "type": "function"
    },
    {
      "inputs": [],
      "name": "factory",
      "outputs": [
        {
          "internalType": "address",
          "name": "",
          "type": "address"
        }
      ],
      "stateMutability": "view",
      "type": "function"
    },
    {
      "inputs": [
        {
          "internalType": "address",
          "name": "tokenA",
          "type": "address"
        },
        {
          "internalType": "address",
          "name": "tokenB",
          "type": "address"
        },
        {
          "internalType": "uint256",
          "name": "liquidity",
          "type": "uint256"
        },
        {
          "internalType": "uint256",
          "name": "amountAMin",
          "type": "uint256"
        },
        {
          "internalType": "uint256",
          "name": "amountBMin",
          "type": "uint256"
        },
        {
          "internalType": "address",
          "name": "to",
          "type": "address"
        },
        {
          "internalType": "uint256",
          "name": "deadline",
          "type": "uint256"
        }
      ],
      "name": "removeLiquidity",
      "outputs": [
        {
          "internalType": "uint256",
          "name": "amountA",
          "type": "uint256"
        },
        {
          "internalType": "uint256",
          "name": "amountB",
          "type": "uint256"
        }
      ],
      "stateMutability": "nonpayable",
      "type": "function"
    },
    {
      "inputs": [
        {
          "internalType": "uint256",
          "name": "amountIn",
          "type": "uint256"
        },
        {
          "internalType": "uint256",
          "name": "amountOutMin",
          "type": "uint256"
        },
        {
          "internalType": "address[]",
          "name": "path",
          "type": "address[]"
        },
        {
          "internalType": "address",
          "name": "to",
          "type": "address"
        },
        {
          "internalType": "uint256",
          "name": "deadline",
          "type": "uint256"
        }
      ],
      "name": "swapExactTokensForTokens",
      "outputs": [
        {
          "internalType": "uint256[]",
          "name": "amounts",
          "type": "uint256[]"
        }
      ],
      "stateMutability": "nonpayable",
      "type": "function"
    },
    {
      "stateMutability": "payable",
      "type": "receive"
    }
  ],
  "bytecode": "0x60c06040523480156200001157600080fd5b506040516200276938038062002769833981810160405281019062000037919062000111565b8173ffffffffffffffffffffffffffffffffffffffff1660808173ffffffffffffffffffffffffffffffffffffffff16815250508073ffffffffffffffffffffffffffffffffffffffff1660a08173ffffffffffffffffffffffffffffffffffffffff1681525050505062000158565b600080fd5b600073ffffffffffffffffffffffffffffffffffffffff82169050919050565b6000620000d982620000ac565b9050919050565b620000eb81620000cc565b8114620000f757600080fd5b50565b6000815190506200010b81620000e0565b92915050565b600080604083850312156200012b576200012a620000a7565b5b60006200013b85828601620000fa565b92505060206200014e85828601620000fa565b9150509250929050565b60805160a0516125a6620001c360003960008181605501526103c10152600081816101cd015281816102d2015281816103ed015281816106040152818161064801528181610b4d01528181610ba101528181610ded01528181610ea40152610f4a01526125a66000f3fe60806040526004361061004e5760003560e01c806338ed1739146100b6578063ad5c4648146100f3578063baa2abde1461011e578063c45a01551461015c578063e8e3370014610187576100b1565b366100b1577f000000000000000000000000000000000000000000000000000000000000000073ffffffffffffffffffffffffffffffffffffffff163373ffffffffffffffffffffffffffffffffffffffff16146100af576100ae6113e7565b5b005b600080fd5b3480156100c257600080fd5b506100dd60048036038101906100d89190611519565b6101c6565b6040516100ea9190611671565b60405180910390f35b3480156100ff57600080fd5b506101086103bf565b60405161011591906116a2565b60405180910390f35b34801561012a57600080fd5b50610145600480360381019061014091906116bd565b6103e3565b60405161015392919061176e565b60405180910390f35b34801561016857600080fd5b50610171610602565b60405161017e91906116a2565b60405180910390f35b34801561019357600080fd5b506101ae60048036038101906101a99190611797565b610626565b6040516101bd9392919061184d565b60405180910390f35b60606102347f000000000000000000000000000000000000000000000000000000000000000088878780806020026020016040519081016040528093929190818152602001838360200280828437600081840152601f19601f82011690508083019250505050505050610715565b905085816001835161024691906118b3565b81518110610257576102566118e7565b5b602002602001015110156102a0576040517f08c379a000000000000000000000000000000000000000000000000000000000815260040161029790611999565b60405180910390fd5b610369858560008181106102b7576102b66118e7565b5b90506020020160208101906102cc91906119b9565b336103487f000000000000000000000000000000000000000000000000000000000000000089896000818110610305576103046118e7565b5b905060200201602081019061031a91906119b9565b8a8a600181811061032e5761032d6118e7565b5b905060200201602081019061034391906119b9565b6108a0565b8460008151811061035c5761035b6118e7565b5b6020026020010151610912565b6103b581868680806020026020016040519081016040528093929190818152602001838360200280828437600081840152601f19601f8201169050808301925050505050505085610a4b565b9695505050505050565b7f000000000000000000000000000000000000000000000000000000000000000081565b60008060006104137f00000000000000000000000000000000000000000000000000000000000000008b8b6108a0565b90508073ffffffffffffffffffffffffffffffffffffffff166323b872dd33838b6040518463ffffffff1660e01b8152600401610452939291906119e6565b6020604051808303816000875af1158015610471573d6000803e3d6000fd5b505050506040513d601f19601f820116820180604052508101906104959190611a55565b506000808273ffffffffffffffffffffffffffffffffffffffff166389afcb44886040518263ffffffff1660e01b81526004016104d291906116a2565b60408051808303816000875af11580156104f0573d6000803e3d6000fd5b505050506040513d601f19601f820116820180604052508101906105149190611a97565b9150915060006105248d8d610ca4565b5090508073ffffffffffffffffffffffffffffffffffffffff168d73ffffffffffffffffffffffffffffffffffffffff1614610561578183610564565b82825b8096508197505050898610156105af576040517f08c379a00000000000000000000000000000000000000000000000000000000081526004016105a690611b49565b60405180910390fd5b888510156105f2576040517f08c379a00000000000000000000000000000000000000000000000000000000081526004016105e990611bdb565b60405180910390fd5b5050505097509795505050505050565b7f000000000000000000000000000000000000000000000000000000000000000081565b60008060006106398b8b8b8b8b8b610dd0565b8093508194505050600061066e7f00000000000000000000000000000000000000000000000000000000000000008d8d6108a0565b905061067c8c338387610912565b6106888b338386610912565b8073ffffffffffffffffffffffffffffffffffffffff16636a627842876040518263ffffffff1660e01b81526004016106c191906116a2565b6020604051808303816000875af11580156106e0573d6000803e3d6000fd5b505050506040513d601f19601f820116820180604052508101906107049190611bfb565b915050985098509895505050505050565b606060028251101561075c576040517f08c379a000000000000000000000000000000000000000000000000000000000815260040161075390611c74565b60405180910390fd5b815167ffffffffffffffff81111561077757610776611c94565b5b6040519080825280602002602001820160405280156107a55781602001602082028036833780820191505090505b50905082816000815181106107bd576107bc6118e7565b5b60200260200101818152505060005b600183516107da91906118b3565b8110156108985760008061082f878685815181106107fb576107fa6118e7565b5b6020026020010151876001876108119190611cc3565b81518110610822576108216118e7565b5b602002602001015161107e565b91509150610858848481518110610849576108486118e7565b5b60200260200101518383611161565b846001856108669190611cc3565b81518110610877576108766118e7565b5b6020026020010181815250505050808061089090611cf7565b9150506107cc565b509392505050565b60008060006108af8585610ca4565b915091508582826040516020016108c7929190611d87565b604051602081830303815290604052805190602001206040516020016108ee929190611e81565b6040516020818303038152906040528051906020012060001c925050509392505050565b6000808573ffffffffffffffffffffffffffffffffffffffff166323b872dd868686604051602401610946939291906119e6565b6040516020818303038152906040529060e01b6020820180517bffffffffffffffffffffffffffffffffffffffffffffffffffffffff83818316178352505050506040516109949190611f34565b6000604051808303816000865af19150503d80600081146109d1576040519150601f19603f3d011682016040523d82523d6000602084013e6109d6565b606091505b5091509150818015610a045750600081511480610a03575080806020019051810190610a029190611a55565b5b5b610a43576040517f08c379a0000000000000000000000000000000000000000000000000000000008152600401610a3a90611fbd565b60405180910390fd5b505050505050565b60005b60018351610a5c91906118b3565b811015610c9e57600080848381518110610a7957610a786118e7565b5b602002602001015185600185610a8f9190611cc3565b81518110610aa057610a9f6118e7565b5b6020026020010151915091506000610ab88383610ca4565b509050600087600186610acb9190611cc3565b81518110610adc57610adb6118e7565b5b602002602001015190506000808373ffffffffffffffffffffffffffffffffffffffff168673ffffffffffffffffffffffffffffffffffffffff1614610b2457826000610b28565b6000835b91509150600060028a51610b3c91906118b3565b8810610b485788610b9a565b610b997f0000000000000000000000000000000000000000000000000000000000000000878c60028c610b7b9190611cc3565b81518110610b8c57610b8b6118e7565b5b60200260200101516108a0565b5b9050610bc77f000000000000000000000000000000000000000000000000000000000000000088886108a0565b73ffffffffffffffffffffffffffffffffffffffff1663022c0d9f848484600067ffffffffffffffff811115610c0057610bff611c94565b5b6040519080825280601f01601f191660200182016040528015610c325781602001600182028036833780820191505090505b506040518563ffffffff1660e01b8152600401610c529493929190612038565b600060405180830381600087803b158015610c6c57600080fd5b505af1158015610c80573d6000803e3d6000fd5b50505050505050505050508080610c9690611cf7565b915050610a4e565b50505050565b6000808273ffffffffffffffffffffffffffffffffffffffff168473ffffffffffffffffffffffffffffffffffffffff1603610d15576040517f08c379a0000000000000000000000000000000000000000000000000000000008152600401610d0c906120f6565b60405180910390fd5b8273ffffffffffffffffffffffffffffffffffffffff168473ffffffffffffffffffffffffffffffffffffffff1610610d4f578284610d52565b83835b8092508193505050600073ffffffffffffffffffffffffffffffffffffffff168273ffffffffffffffffffffffffffffffffffffffff1603610dc9576040517f08c379a0000000000000000000000000000000000000000000000000000000008152600401610dc090612162565b60405180910390fd5b9250929050565b600080600073ffffffffffffffffffffffffffffffffffffffff167f000000000000000000000000000000000000000000000000000000000000000073ffffffffffffffffffffffffffffffffffffffff1663e6a439058a8a6040518363ffffffff1660e01b8152600401610e46929190612182565b602060405180830381865afa158015610e63573d6000803e3d6000fd5b505050506040513d601f19601f82011682018060405250810190610e8791906121c0565b73ffffffffffffffffffffffffffffffffffffffff1603610f42577f000000000000000000000000000000000000000000000000000000000000000073ffffffffffffffffffffffffffffffffffffffff1663c9c6539689896040518363ffffffff1660e01b8152600401610efd929190612182565b6020604051808303816000875af1158015610f1c573d6000803e3d6000fd5b505050506040513d601f19601f82011682018060405250810190610f4091906121c0565b505b600080610f707f00000000000000000000000000000000000000000000000000000000000000008b8b61107e565b91509150600082148015610f845750600081145b15610f985787878094508195505050611071565b6000610fa5898484611267565b90508781116110005785811015610ff1576040517f08c379a0000000000000000000000000000000000000000000000000000000008152600401610fe890611bdb565b60405180910390fd5b8881809550819650505061106f565b600061100d898486611267565b9050898111156110205761101f6113e7565b5b87811015611063576040517f08c379a000000000000000000000000000000000000000000000000000000000815260040161105a90611b49565b60405180910390fd5b80898096508197505050505b505b5050965096945050505050565b600080600061108d8585610ca4565b50905060008061109e8888886108a0565b73ffffffffffffffffffffffffffffffffffffffff16630902f1ac6040518163ffffffff1660e01b8152600401606060405180830381865afa1580156110e8573d6000803e3d6000fd5b505050506040513d601f19601f8201168201806040525081019061110c91906121ed565b50915091508273ffffffffffffffffffffffffffffffffffffffff168773ffffffffffffffffffffffffffffffffffffffff161461114b57808261114e565b81815b8095508196505050505050935093915050565b60008084116111a5576040517f08c379a000000000000000000000000000000000000000000000000000000000815260040161119c906122b2565b60405180910390fd5b6000831180156111b55750600082115b6111f4576040517f08c379a00000000000000000000000000000000000000000000000000000000081526004016111eb90612344565b60405180910390fd5b600061120b6103e58661132190919063ffffffff16565b90506000611222848361132190919063ffffffff16565b9050600061124d8361123f6103e88961132190919063ffffffff16565b61138e90919063ffffffff16565b9050808261125b9190612393565b93505050509392505050565b60008084116112ab576040517f08c379a00000000000000000000000000000000000000000000000000000000081526004016112a290612436565b60405180910390fd5b6000831180156112bb5750600082115b6112fa576040517f08c379a00000000000000000000000000000000000000000000000000000000081526004016112f190612344565b60405180910390fd5b8261130e838661132190919063ffffffff16565b6113189190612393565b90509392505050565b60008082148061134957508282838561133a9190612456565b9250826113479190612393565b145b611388576040517f08c379a000000000000000000000000000000000000000000000000000000000815260040161137f906124e4565b60405180910390fd5b92915050565b600082828461139d9190611cc3565b91508110156113e1576040517f08c379a00000000000000000000000000000000000000000000000000000000081526004016113d890612550565b60405180910390fd5b92915050565b7f4e487b7100000000000000000000000000000000000000000000000000000000600052600160045260246000fd5b600080fd5b600080fd5b6000819050919050565b61143381611420565b811461143e57600080fd5b50565b6000813590506114508161142a565b92915050565b600080fd5b600080fd5b600080fd5b60008083601f84011261147b5761147a611456565b5b8235905067ffffffffffffffff8111156114985761149761145b565b5b6020830191508360208202830111156114b4576114b3611460565b5b9250929050565b600073ffffffffffffffffffffffffffffffffffffffff82169050919050565b60006114e6826114bb565b9050919050565b6114f6816114db565b811461150157600080fd5b50565b600081359050611513816114ed565b92915050565b60008060008060008060a0878903121561153657611535611416565b5b600061154489828a01611441565b965050602061155589828a01611441565b955050604087013567ffffffffffffffff8111156115765761157561141b565b5b61158289828a01611465565b9450945050606061159589828a01611504565b92505060806115a689828a01611441565b9150509295509295509295565b600081519050919050565b600082825260208201905092915050565b6000819050602082019050919050565b6115e881611420565b82525050565b60006115fa83836115df565b60208301905092915050565b6000602082019050919050565b600061161e826115b3565b61162881856115be565b9350611633836115cf565b8060005b8381101561166457815161164b88826115ee565b975061165683611606565b925050600181019050611637565b5085935050505092915050565b6000602082019050818103600083015261168b8184611613565b905092915050565b61169c816114db565b82525050565b60006020820190506116b76000830184611693565b92915050565b600080600080600080600060e0888a0312156116dc576116db611416565b5b60006116ea8a828b01611504565b97505060206116fb8a828b01611504565b965050604061170c8a828b01611441565b955050606061171d8a828b01611441565b945050608061172e8a828b01611441565b93505060a061173f8a828b01611504565b92505060c06117508a828b01611441565b91505092959891949750929550565b61176881611420565b82525050565b6000604082019050611783600083018561175f565b611790602083018461175f565b9392505050565b600080600080600080600080610100898b0312156117b8576117b7611416565b5b60006117c68b828c01611504565b98505060206117d78b828c01611504565b97505060406117e88b828c01611441565b96505060606117f98b828c01611441565b955050608061180a8b828c01611441565b94505060a061181b8b828c01611441565b93505060c061182c8b828c01611504565b92505060e061183d8b828c01611441565b9150509295985092959890939650565b6000606082019050611862600083018661175f565b61186f602083018561175f565b61187c604083018461175f565b949350505050565b7f4e487b7100000000000000000000000000000000000000000000000000000000600052601160045260246000fd5b60006118be82611420565b91506118c983611420565b92508282039050818111156118e1576118e0611884565b5b92915050565b7f4e487b7100000000000000000000000000000000000000000000000000000000600052603260045260246000fd5b600082825260208201905092915050565b7f44655863656c526f757465723a20494e53554646494349454e545f4f5554505560008201527f545f414d4f554e54000000000000000000000000000000000000000000000000602082015250565b6000611983602883611916565b915061198e82611927565b604082019050919050565b600060208201905081810360008301526119b281611976565b9050919050565b6000602082840312156119cf576119ce611416565b5b60006119dd84828501611504565b91505092915050565b60006060820190506119fb6000830186611693565b611a086020830185611693565b611a15604083018461175f565b949350505050565b60008115159050919050565b611a3281611a1d565b8114611a3d57600080fd5b50565b600081519050611a4f81611a29565b92915050565b600060208284031215611a6b57611a6a611416565b5b6000611a7984828501611a40565b91505092915050565b600081519050611a918161142a565b92915050565b60008060408385031215611aae57611aad611416565b5b6000611abc85828601611a82565b9250506020611acd85828601611a82565b9150509250929050565b7f44655863656c526f757465723a20494e53554646494349454e545f415f414d4f60008201527f554e540000000000000000000000000000000000000000000000000000000000602082015250565b6000611b33602383611916565b9150611b3e82611ad7565b604082019050919050565b60006020820190508181036000830152611b6281611b26565b9050919050565b7f44655863656c526f757465723a20494e53554646494349454e545f425f414d4f60008201527f554e540000000000000000000000000000000000000000000000000000000000602082015250565b6000611bc5602383611916565b9150611bd082611b69565b604082019050919050565b60006020820190508181036000830152611bf481611bb8565b9050919050565b600060208284031215611c1157611c10611416565b5b6000611c1f84828501611a82565b91505092915050565b7f44655863656c4c6962726172793a20494e56414c49445f504154480000000000600082015250565b6000611c5e601b83611916565b9150611c6982611c28565b602082019050919050565b60006020820190508181036000830152611c8d81611c51565b9050919050565b7f4e487b7100000000000000000000000000000000000000000000000000000000600052604160045260246000fd5b6000611cce82611420565b9150611cd983611420565b9250828201905080821115611cf157611cf0611884565b5b92915050565b6000611d0282611420565b91507fffffffffffffffffffffffffffffffffffffffffffffffffffffffffffffffff8203611d3457611d33611884565b5b600182019050919050565b60008160601b9050919050565b6000611d5782611d3f565b9050919050565b6000611d6982611d4c565b9050919050565b611d81611d7c826114db565b611d5e565b82525050565b6000611d938285611d70565b601482019150611da38284611d70565b6014820191508190509392505050565b600081905092915050565b7fff00000000000000000000000000000000000000000000000000000000000000600082015250565b6000611df4600183611db3565b9150611dff82611dbe565b600182019050919050565b6000819050919050565b6000819050919050565b611e2f611e2a82611e0a565b611e14565b82525050565b7fd29ff92892b5a5a0e2919268b0518776e501167f275e2b40bff68ef28c72c58a600082015250565b6000611e6b602083611db3565b9150611e7682611e35565b602082019050919050565b6000611e8c82611de7565b9150611e988285611d70565b601482019150611ea88284611e1e565b602082019150611eb782611e5e565b91508190509392505050565b600081519050919050565b600081905092915050565b60005b83811015611ef7578082015181840152602081019050611edc565b60008484015250505050565b6000611f0e82611ec3565b611f188185611ece565b9350611f28818560208601611ed9565b80840191505092915050565b6000611f408284611f03565b915081905092915050565b7f5472616e7366657248656c7065723a3a7472616e7366657246726f6d3a20747260008201527f616e7366657246726f6d206661696c6564000000000000000000000000000000602082015250565b6000611fa7603183611916565b9150611fb282611f4b565b604082019050919050565b60006020820190508181036000830152611fd681611f9a565b9050919050565b600082825260208201905092915050565b6000601f19601f8301169050919050565b600061200a82611ec3565b6120148185611fdd565b9350612024818560208601611ed9565b61202d81611fee565b840191505092915050565b600060808201905061204d600083018761175f565b61205a602083018661175f565b6120676040830185611693565b81810360608301526120798184611fff565b905095945050505050565b7f44655863656c4c6962726172793a204944454e544943414c5f4144445245535360008201527f4553000000000000000000000000000000000000000000000000000000000000602082015250565b60006120e0602283611916565b91506120eb82612084565b604082019050919050565b6000602082019050818103600083015261210f816120d3565b9050919050565b7f44655863656c4c6962726172793a205a45524f5f414444524553530000000000600082015250565b600061214c601b83611916565b915061215782612116565b602082019050919050565b6000602082019050818103600083015261217b8161213f565b9050919050565b60006040820190506121976000830185611693565b6121a46020830184611693565b9392505050565b6000815190506121ba816114ed565b92915050565b6000602082840312156121d6576121d5611416565b5b60006121e4848285016121ab565b91505092915050565b60008060006060848603121561220657612205611416565b5b600061221486828701611a82565b935050602061222586828701611a82565b925050604061223686828701611a82565b9150509250925092565b7f44655863656c4c6962726172793a20494e53554646494349454e545f494e505560008201527f545f414d4f554e54000000000000000000000000000000000000000000000000602082015250565b600061229c602883611916565b91506122a782612240565b604082019050919050565b600060208201905081810360008301526122cb8161228f565b9050919050565b7f44655863656c4c6962726172793a20494e53554646494349454e545f4c49515560008201527f4944495459000000000000000000000000000000000000000000000000000000602082015250565b600061232e602583611916565b9150612339826122d2565b604082019050919050565b6000602082019050818103600083015261235d81612321565b9050919050565b7f4e487b7100000000000000000000000000000000000000000000000000000000600052601260045260246000fd5b600061239e82611420565b91506123a983611420565b9250826123b9576123b8612364565b5b828204905092915050565b7f44655863656c4c6962726172793a20494e53554646494349454e545f414d4f5560008201527f4e54000000000000000000000000000000000000000000000000000000000000602082015250565b6000612420602283611916565b915061242b826123c4565b604082019050919050565b6000602082019050818103600083015261244f81612413565b9050919050565b600061246182611420565b915061246c83611420565b925082820261247a81611420565b9150828204841483151761249157612490611884565b5b5092915050565b7f64732d6d6174682d6d756c2d6f766572666c6f77000000000000000000000000600082015250565b60006124ce601483611916565b91506124d982612498565b602082019050919050565b600060208201905081810360008301526124fd816124c1565b9050919050565b7f64732d6d6174682d6164642d6f766572666c6f77000000000000000000000000600082015250565b600061253a601483611916565b915061254582612504565b602082019050919050565b600060208201905081810360008301526125698161252d565b905091905056fea264697066735822122019c0a7f953b1e3ff08349458908ea8bfad764a045cdc60b3e820add09ddb9e5364736f6c63430008110033",
  "linkReferences": {},
  "deployedLinkReferences": {}
}