{
  "_format": "hh-sol-artifact-1",
  "contractName": "DeXcelRouter",
  "sourceName": "src/backend/contracts/DeXcelRouter.sol",
  "abi": [
    {
      "inputs": [
        {
          "internalType": "address",
          "name": "_factory",
          "type": "address"
        },
        {
          "internalType": "address",
          "name": "_WETH",
          "type": "address"
        }
      ],
      "stateMutability": "nonpayable",
      "type": "constructor"
    },
    {
      "inputs": [],
      "name": "WETH",
      "outputs": [
        {
          "internalType": "address",
          "name": "",
          "type": "address"
        }
      ],
      "stateMutability": "view",
      "type": "function"
    },
    {
      "inputs": [
        {
          "internalType": "address",
          "name": "tokenA",
          "type": "address"
        },
        {
          "internalType": "address",
          "name": "tokenB",
          "type": "address"
        },
        {
          "internalType": "uint256",
          "name": "amountADesired",
          "type": "uint256"
        },
        {
          "internalType": "uint256",
          "name": "amountBDesired",
          "type": "uint256"
        },
        {
          "internalType": "uint256",
          "name": "amountAMin",
          "type": "uint256"
        },
        {
          "internalType": "uint256",
          "name": "amountBMin",
          "type": "uint256"
        },
        {
          "internalType": "address",
          "name": "to",
          "type": "address"
        },
        {
          "internalType": "uint256",
          "name": "deadline",
          "type": "uint256"
        }
      ],
      "name": "addLiquidity",
      "outputs": [
        {
          "internalType": "uint256",
          "name": "amountA",
          "type": "uint256"
        },
        {
          "internalType": "uint256",
          "name": "amountB",
          "type": "uint256"
        },
        {
          "internalType": "uint256",
          "name": "liquidity",
          "type": "uint256"
        }
      ],
      "stateMutability": "nonpayable",
      "type": "function"
    },
    {
      "inputs": [
        {
          "internalType": "address",
          "name": "token",
          "type": "address"
        },
        {
          "internalType": "uint256",
          "name": "amountTokenDesired",
          "type": "uint256"
        },
        {
          "internalType": "uint256",
          "name": "amountTokenMin",
          "type": "uint256"
        },
        {
          "internalType": "uint256",
          "name": "amountETHMin",
          "type": "uint256"
        },
        {
          "internalType": "address",
          "name": "to",
          "type": "address"
        },
        {
          "internalType": "uint256",
          "name": "deadline",
          "type": "uint256"
        }
      ],
      "name": "addLiquidityETH",
      "outputs": [
        {
          "internalType": "uint256",
          "name": "amountToken",
          "type": "uint256"
        },
        {
          "internalType": "uint256",
          "name": "amountETH",
          "type": "uint256"
        },
        {
          "internalType": "uint256",
          "name": "liquidity",
          "type": "uint256"
        }
      ],
      "stateMutability": "payable",
      "type": "function"
    },
    {
      "inputs": [],
      "name": "factory",
      "outputs": [
        {
          "internalType": "address",
          "name": "",
          "type": "address"
        }
      ],
      "stateMutability": "view",
      "type": "function"
    },
    {
      "inputs": [
        {
          "internalType": "address",
          "name": "tokenA",
          "type": "address"
        },
        {
          "internalType": "address",
          "name": "tokenB",
          "type": "address"
        },
        {
          "internalType": "uint256",
          "name": "liquidity",
          "type": "uint256"
        },
        {
          "internalType": "uint256",
          "name": "amountAMin",
          "type": "uint256"
        },
        {
          "internalType": "uint256",
          "name": "amountBMin",
          "type": "uint256"
        },
        {
          "internalType": "address",
          "name": "to",
          "type": "address"
        },
        {
          "internalType": "uint256",
          "name": "deadline",
          "type": "uint256"
        }
      ],
      "name": "removeLiquidity",
      "outputs": [
        {
          "internalType": "uint256",
          "name": "amountA",
          "type": "uint256"
        },
        {
          "internalType": "uint256",
          "name": "amountB",
          "type": "uint256"
        }
      ],
      "stateMutability": "nonpayable",
      "type": "function"
    },
    {
      "inputs": [
        {
          "internalType": "uint256",
          "name": "amountOut",
          "type": "uint256"
        },
        {
          "internalType": "address[]",
          "name": "path",
          "type": "address[]"
        },
        {
          "internalType": "address",
          "name": "to",
          "type": "address"
        },
        {
          "internalType": "uint256",
          "name": "deadline",
          "type": "uint256"
        }
      ],
      "name": "swapETHForExactTokens",
      "outputs": [
        {
          "internalType": "uint256[]",
          "name": "amounts",
          "type": "uint256[]"
        }
      ],
      "stateMutability": "payable",
      "type": "function"
    },
    {
      "inputs": [
        {
          "internalType": "uint256",
          "name": "amountIn",
          "type": "uint256"
        },
        {
          "internalType": "uint256",
          "name": "amountOutMin",
          "type": "uint256"
        },
        {
          "internalType": "address[]",
          "name": "path",
          "type": "address[]"
        },
        {
          "internalType": "address",
          "name": "to",
          "type": "address"
        },
        {
          "internalType": "uint256",
          "name": "deadline",
          "type": "uint256"
        }
      ],
      "name": "swapExactTokensForTokens",
      "outputs": [
        {
          "internalType": "uint256[]",
          "name": "amounts",
          "type": "uint256[]"
        }
      ],
      "stateMutability": "nonpayable",
      "type": "function"
    },
    {
      "stateMutability": "payable",
      "type": "receive"
    }
  ],
  "bytecode": "0x60c06040523480156200001157600080fd5b50604051620036a7380380620036a7833981810160405281019062000037919062000111565b8173ffffffffffffffffffffffffffffffffffffffff1660808173ffffffffffffffffffffffffffffffffffffffff16815250508073ffffffffffffffffffffffffffffffffffffffff1660a08173ffffffffffffffffffffffffffffffffffffffff1681525050505062000158565b600080fd5b600073ffffffffffffffffffffffffffffffffffffffff82169050919050565b6000620000d982620000ac565b9050919050565b620000eb81620000cc565b8114620000f757600080fd5b50565b6000815190506200010b81620000e0565b92915050565b600080604083850312156200012b576200012a620000a7565b5b60006200013b85828601620000fa565b92505060206200014e85828601620000fa565b9150509250929050565b60805160a05161349e6200020960003960008181607b01528181610449015281816107a80152818161080101528181610835015281816108b601528181610a0c01528181610b8e0152610c2a0152600081816102550152818161035a015281816104750152818161068c015281816106d0015281816107df01528181610ac501528181610c69015281816112490152818161129d015281816114e9015281816115a00152611646015261349e6000f3fe6080604052600436106100745760003560e01c8063c45a01551161004e578063c45a015514610182578063e8e33700146101ad578063f305d719146101ec578063fb3bdb411461021e576100d7565b806338ed1739146100dc578063ad5c464814610119578063baa2abde14610144576100d7565b366100d7577f000000000000000000000000000000000000000000000000000000000000000073ffffffffffffffffffffffffffffffffffffffff163373ffffffffffffffffffffffffffffffffffffffff16146100d5576100d4611eea565b5b005b600080fd5b3480156100e857600080fd5b5061010360048036038101906100fe919061201c565b61024e565b6040516101109190612174565b60405180910390f35b34801561012557600080fd5b5061012e610447565b60405161013b91906121a5565b60405180910390f35b34801561015057600080fd5b5061016b600480360381019061016691906121c0565b61046b565b604051610179929190612271565b60405180910390f35b34801561018e57600080fd5b5061019761068a565b6040516101a491906121a5565b60405180910390f35b3480156101b957600080fd5b506101d460048036038101906101cf919061229a565b6106ae565b6040516101e393929190612350565b60405180910390f35b61020660048036038101906102019190612387565b61079d565b60405161021593929190612350565b60405180910390f35b61023860048036038101906102339190612414565b610a08565b6040516102459190612174565b60405180910390f35b60606102bc7f000000000000000000000000000000000000000000000000000000000000000088878780806020026020016040519081016040528093929190818152602001838360200280828437600081840152601f19601f82011690508083019250505050505050610e11565b90508581600183516102ce91906124cb565b815181106102df576102de6124ff565b5b60200260200101511015610328576040517f08c379a000000000000000000000000000000000000000000000000000000000815260040161031f906125b1565b60405180910390fd5b6103f18585600081811061033f5761033e6124ff565b5b905060200201602081019061035491906125d1565b336103d07f00000000000000000000000000000000000000000000000000000000000000008989600081811061038d5761038c6124ff565b5b90506020020160208101906103a291906125d1565b8a8a60018181106103b6576103b56124ff565b5b90506020020160208101906103cb91906125d1565b610f9c565b846000815181106103e4576103e36124ff565b5b602002602001015161100e565b61043d81868680806020026020016040519081016040528093929190818152602001838360200280828437600081840152601f19601f8201169050808301925050505050505085611147565b9695505050505050565b7f000000000000000000000000000000000000000000000000000000000000000081565b600080600061049b7f00000000000000000000000000000000000000000000000000000000000000008b8b610f9c565b90508073ffffffffffffffffffffffffffffffffffffffff166323b872dd33838b6040518463ffffffff1660e01b81526004016104da939291906125fe565b6020604051808303816000875af11580156104f9573d6000803e3d6000fd5b505050506040513d601f19601f8201168201806040525081019061051d919061266d565b506000808273ffffffffffffffffffffffffffffffffffffffff166389afcb44886040518263ffffffff1660e01b815260040161055a91906121a5565b60408051808303816000875af1158015610578573d6000803e3d6000fd5b505050506040513d601f19601f8201168201806040525081019061059c91906126af565b9150915060006105ac8d8d6113a0565b5090508073ffffffffffffffffffffffffffffffffffffffff168d73ffffffffffffffffffffffffffffffffffffffff16146105e95781836105ec565b82825b809650819750505089861015610637576040517f08c379a000000000000000000000000000000000000000000000000000000000815260040161062e90612761565b60405180910390fd5b8885101561067a576040517f08c379a0000000000000000000000000000000000000000000000000000000008152600401610671906127f3565b60405180910390fd5b5050505097509795505050505050565b7f000000000000000000000000000000000000000000000000000000000000000081565b60008060006106c18b8b8b8b8b8b6114cc565b809350819450505060006106f67f00000000000000000000000000000000000000000000000000000000000000008d8d610f9c565b90506107048c33838761100e565b6107108b33838661100e565b8073ffffffffffffffffffffffffffffffffffffffff16636a627842876040518263ffffffff1660e01b815260040161074991906121a5565b6020604051808303816000875af1158015610768573d6000803e3d6000fd5b505050506040513d601f19601f8201168201806040525081019061078c9190612813565b915050985098509895505050505050565b60008060006107d0897f00000000000000000000000000000000000000000000000000000000000000008a348b8b6114cc565b809350819450505060006108257f00000000000000000000000000000000000000000000000000000000000000008b7f0000000000000000000000000000000000000000000000000000000000000000610f9c565b90506108338a33838761100e565b7f000000000000000000000000000000000000000000000000000000000000000073ffffffffffffffffffffffffffffffffffffffff1663d0e30db0846040518263ffffffff1660e01b81526004016000604051808303818588803b15801561089b57600080fd5b505af11580156108af573d6000803e3d6000fd5b50505050507f000000000000000000000000000000000000000000000000000000000000000073ffffffffffffffffffffffffffffffffffffffff1663a9059cbb82856040518363ffffffff1660e01b815260040161090f929190612840565b6020604051808303816000875af115801561092e573d6000803e3d6000fd5b505050506040513d601f19601f82011682018060405250810190610952919061266d565b61095f5761095e611eea565b5b8073ffffffffffffffffffffffffffffffffffffffff16636a627842876040518263ffffffff1660e01b815260040161099891906121a5565b6020604051808303816000875af11580156109b7573d6000803e3d6000fd5b505050506040513d601f19601f820116820180604052508101906109db9190612813565b9150823411156109fb576109fa3384346109f591906124cb565b61177a565b5b5096509650969350505050565b60607f000000000000000000000000000000000000000000000000000000000000000073ffffffffffffffffffffffffffffffffffffffff1685856000818110610a5557610a546124ff565b5b9050602002016020810190610a6a91906125d1565b73ffffffffffffffffffffffffffffffffffffffff1614610ac0576040517f08c379a0000000000000000000000000000000000000000000000000000000008152600401610ab7906128b5565b60405180910390fd5b610b2c7f000000000000000000000000000000000000000000000000000000000000000087878780806020026020016040519081016040528093929190818152602001838360200280828437600081840152601f19601f8201169050808301925050505050505061187a565b90503481600081518110610b4357610b426124ff565b5b60200260200101511115610b8c576040517f08c379a0000000000000000000000000000000000000000000000000000000008152600401610b8390612947565b60405180910390fd5b7f000000000000000000000000000000000000000000000000000000000000000073ffffffffffffffffffffffffffffffffffffffff1663d0e30db082600081518110610bdc57610bdb6124ff565b5b60200260200101516040518263ffffffff1660e01b81526004016000604051808303818588803b158015610c0f57600080fd5b505af1158015610c23573d6000803e3d6000fd5b50505050507f000000000000000000000000000000000000000000000000000000000000000073ffffffffffffffffffffffffffffffffffffffff1663a9059cbb610cdf7f000000000000000000000000000000000000000000000000000000000000000088886000818110610c9c57610c9b6124ff565b5b9050602002016020810190610cb191906125d1565b89896001818110610cc557610cc46124ff565b5b9050602002016020810190610cda91906125d1565b610f9c565b83600081518110610cf357610cf26124ff565b5b60200260200101516040518363ffffffff1660e01b8152600401610d18929190612840565b6020604051808303816000875af1158015610d37573d6000803e3d6000fd5b505050506040513d601f19601f82011682018060405250810190610d5b919061266d565b610d6857610d67611eea565b5b610db481868680806020026020016040519081016040528093929190818152602001838360200280828437600081840152601f19601f8201169050808301925050505050505085611147565b80600081518110610dc857610dc76124ff565b5b6020026020010151341115610e0857610e073382600081518110610def57610dee6124ff565b5b602002602001015134610e0291906124cb565b61177a565b5b95945050505050565b6060600282511015610e58576040517f08c379a0000000000000000000000000000000000000000000000000000000008152600401610e4f906129b3565b60405180910390fd5b815167ffffffffffffffff811115610e7357610e726129d3565b5b604051908082528060200260200182016040528015610ea15781602001602082028036833780820191505090505b5090508281600081518110610eb957610eb86124ff565b5b60200260200101818152505060005b60018351610ed691906124cb565b811015610f9457600080610f2b87868581518110610ef757610ef66124ff565b5b602002602001015187600187610f0d9190612a02565b81518110610f1e57610f1d6124ff565b5b6020026020010151611a15565b91509150610f54848481518110610f4557610f446124ff565b5b60200260200101518383611af8565b84600185610f629190612a02565b81518110610f7357610f726124ff565b5b60200260200101818152505050508080610f8c90612a36565b915050610ec8565b509392505050565b6000806000610fab85856113a0565b91509150858282604051602001610fc3929190612ac6565b60405160208183030381529060405280519060200120604051602001610fea929190612bc0565b6040516020818303038152906040528051906020012060001c925050509392505050565b6000808573ffffffffffffffffffffffffffffffffffffffff166323b872dd868686604051602401611042939291906125fe565b6040516020818303038152906040529060e01b6020820180517bffffffffffffffffffffffffffffffffffffffffffffffffffffffff83818316178352505050506040516110909190612c73565b6000604051808303816000865af19150503d80600081146110cd576040519150601f19603f3d011682016040523d82523d6000602084013e6110d2565b606091505b509150915081801561110057506000815114806110ff5750808060200190518101906110fe919061266d565b5b5b61113f576040517f08c379a000000000000000000000000000000000000000000000000000000000815260040161113690612cfc565b60405180910390fd5b505050505050565b60005b6001835161115891906124cb565b81101561139a57600080848381518110611175576111746124ff565b5b60200260200101518560018561118b9190612a02565b8151811061119c5761119b6124ff565b5b60200260200101519150915060006111b483836113a0565b5090506000876001866111c79190612a02565b815181106111d8576111d76124ff565b5b602002602001015190506000808373ffffffffffffffffffffffffffffffffffffffff168673ffffffffffffffffffffffffffffffffffffffff161461122057826000611224565b6000835b91509150600060028a5161123891906124cb565b88106112445788611296565b6112957f0000000000000000000000000000000000000000000000000000000000000000878c60028c6112779190612a02565b81518110611288576112876124ff565b5b6020026020010151610f9c565b5b90506112c37f00000000000000000000000000000000000000000000000000000000000000008888610f9c565b73ffffffffffffffffffffffffffffffffffffffff1663022c0d9f848484600067ffffffffffffffff8111156112fc576112fb6129d3565b5b6040519080825280601f01601f19166020018201604052801561132e5781602001600182028036833780820191505090505b506040518563ffffffff1660e01b815260040161134e9493929190612d77565b600060405180830381600087803b15801561136857600080fd5b505af115801561137c573d6000803e3d6000fd5b5050505050505050505050808061139290612a36565b91505061114a565b50505050565b6000808273ffffffffffffffffffffffffffffffffffffffff168473ffffffffffffffffffffffffffffffffffffffff1603611411576040517f08c379a000000000000000000000000000000000000000000000000000000000815260040161140890612e35565b60405180910390fd5b8273ffffffffffffffffffffffffffffffffffffffff168473ffffffffffffffffffffffffffffffffffffffff161061144b57828461144e565b83835b8092508193505050600073ffffffffffffffffffffffffffffffffffffffff168273ffffffffffffffffffffffffffffffffffffffff16036114c5576040517f08c379a00000000000000000000000000000000000000000000000000000000081526004016114bc90612ea1565b60405180910390fd5b9250929050565b600080600073ffffffffffffffffffffffffffffffffffffffff167f000000000000000000000000000000000000000000000000000000000000000073ffffffffffffffffffffffffffffffffffffffff1663e6a439058a8a6040518363ffffffff1660e01b8152600401611542929190612ec1565b602060405180830381865afa15801561155f573d6000803e3d6000fd5b505050506040513d601f19601f820116820180604052508101906115839190612eff565b73ffffffffffffffffffffffffffffffffffffffff160361163e577f000000000000000000000000000000000000000000000000000000000000000073ffffffffffffffffffffffffffffffffffffffff1663c9c6539689896040518363ffffffff1660e01b81526004016115f9929190612ec1565b6020604051808303816000875af1158015611618573d6000803e3d6000fd5b505050506040513d601f19601f8201168201806040525081019061163c9190612eff565b505b60008061166c7f00000000000000000000000000000000000000000000000000000000000000008b8b611a15565b915091506000821480156116805750600081145b15611694578787809450819550505061176d565b60006116a1898484611bfe565b90508781116116fc57858110156116ed576040517f08c379a00000000000000000000000000000000000000000000000000000000081526004016116e4906127f3565b60405180910390fd5b8881809550819650505061176b565b6000611709898486611bfe565b90508981111561171c5761171b611eea565b5b8781101561175f576040517f08c379a000000000000000000000000000000000000000000000000000000000815260040161175690612761565b60405180910390fd5b80898096508197505050505b505b5050965096945050505050565b60008273ffffffffffffffffffffffffffffffffffffffff1682600067ffffffffffffffff8111156117af576117ae6129d3565b5b6040519080825280601f01601f1916602001820160405280156117e15781602001600182028036833780820191505090505b506040516117ef9190612c73565b60006040518083038185875af1925050503d806000811461182c576040519150601f19603f3d011682016040523d82523d6000602084013e611831565b606091505b5050905080611875576040517f08c379a000000000000000000000000000000000000000000000000000000000815260040161186c90612f9e565b60405180910390fd5b505050565b60606002825110156118c1576040517f08c379a00000000000000000000000000000000000000000000000000000000081526004016118b8906129b3565b60405180910390fd5b815167ffffffffffffffff8111156118dc576118db6129d3565b5b60405190808252806020026020018201604052801561190a5781602001602082028036833780820191505090505b50905082816001835161191d91906124cb565b8151811061192e5761192d6124ff565b5b60200260200101818152505060006001835161194a91906124cb565b90505b6000811115611a0d576000806119a4878660018661196b91906124cb565b8151811061197c5761197b6124ff565b5b6020026020010151878681518110611997576119966124ff565b5b6020026020010151611a15565b915091506119cd8484815181106119be576119bd6124ff565b5b60200260200101518383611cb8565b846001856119db91906124cb565b815181106119ec576119eb6124ff565b5b60200260200101818152505050508080611a0590612fbe565b91505061194d565b509392505050565b6000806000611a2485856113a0565b509050600080611a35888888610f9c565b73ffffffffffffffffffffffffffffffffffffffff16630902f1ac6040518163ffffffff1660e01b8152600401606060405180830381865afa158015611a7f573d6000803e3d6000fd5b505050506040513d601f19601f82011682018060405250810190611aa39190612fe7565b50915091508273ffffffffffffffffffffffffffffffffffffffff168773ffffffffffffffffffffffffffffffffffffffff1614611ae2578082611ae5565b81815b8095508196505050505050935093915050565b6000808411611b3c576040517f08c379a0000000000000000000000000000000000000000000000000000000008152600401611b33906130ac565b60405180910390fd5b600083118015611b4c5750600082115b611b8b576040517f08c379a0000000000000000000000000000000000000000000000000000000008152600401611b829061313e565b60405180910390fd5b6000611ba26103e586611dcb90919063ffffffff16565b90506000611bb98483611dcb90919063ffffffff16565b90506000611be483611bd66103e889611dcb90919063ffffffff16565b611e3890919063ffffffff16565b90508082611bf2919061318d565b93505050509392505050565b6000808411611c42576040517f08c379a0000000000000000000000000000000000000000000000000000000008152600401611c3990613230565b60405180910390fd5b600083118015611c525750600082115b611c91576040517f08c379a0000000000000000000000000000000000000000000000000000000008152600401611c889061313e565b60405180910390fd5b82611ca58386611dcb90919063ffffffff16565b611caf919061318d565b90509392505050565b6000808411611cfc576040517f08c379a0000000000000000000000000000000000000000000000000000000008152600401611cf3906132c2565b60405180910390fd5b600083118015611d0c5750600082115b611d4b576040517f08c379a0000000000000000000000000000000000000000000000000000000008152600401611d429061313e565b60405180910390fd5b6000611d746103e8611d668787611dcb90919063ffffffff16565b611dcb90919063ffffffff16565b90506000611d9f6103e5611d918887611e9190919063ffffffff16565b611dcb90919063ffffffff16565b9050611dc060018284611db2919061318d565b611e3890919063ffffffff16565b925050509392505050565b600080821480611df3575082828385611de491906132e2565b925082611df1919061318d565b145b611e32576040517f08c379a0000000000000000000000000000000000000000000000000000000008152600401611e2990613370565b60405180910390fd5b92915050565b6000828284611e479190612a02565b9150811015611e8b576040517f08c379a0000000000000000000000000000000000000000000000000000000008152600401611e82906133dc565b60405180910390fd5b92915050565b6000828284611ea091906124cb565b9150811115611ee4576040517f08c379a0000000000000000000000000000000000000000000000000000000008152600401611edb90613448565b60405180910390fd5b92915050565b7f4e487b7100000000000000000000000000000000000000000000000000000000600052600160045260246000fd5b600080fd5b600080fd5b6000819050919050565b611f3681611f23565b8114611f4157600080fd5b50565b600081359050611f5381611f2d565b92915050565b600080fd5b600080fd5b600080fd5b60008083601f840112611f7e57611f7d611f59565b5b8235905067ffffffffffffffff811115611f9b57611f9a611f5e565b5b602083019150836020820283011115611fb757611fb6611f63565b5b9250929050565b600073ffffffffffffffffffffffffffffffffffffffff82169050919050565b6000611fe982611fbe565b9050919050565b611ff981611fde565b811461200457600080fd5b50565b60008135905061201681611ff0565b92915050565b60008060008060008060a0878903121561203957612038611f19565b5b600061204789828a01611f44565b965050602061205889828a01611f44565b955050604087013567ffffffffffffffff81111561207957612078611f1e565b5b61208589828a01611f68565b9450945050606061209889828a01612007565b92505060806120a989828a01611f44565b9150509295509295509295565b600081519050919050565b600082825260208201905092915050565b6000819050602082019050919050565b6120eb81611f23565b82525050565b60006120fd83836120e2565b60208301905092915050565b6000602082019050919050565b6000612121826120b6565b61212b81856120c1565b9350612136836120d2565b8060005b8381101561216757815161214e88826120f1565b975061215983612109565b92505060018101905061213a565b5085935050505092915050565b6000602082019050818103600083015261218e8184612116565b905092915050565b61219f81611fde565b82525050565b60006020820190506121ba6000830184612196565b92915050565b600080600080600080600060e0888a0312156121df576121de611f19565b5b60006121ed8a828b01612007565b97505060206121fe8a828b01612007565b965050604061220f8a828b01611f44565b95505060606122208a828b01611f44565b94505060806122318a828b01611f44565b93505060a06122428a828b01612007565b92505060c06122538a828b01611f44565b91505092959891949750929550565b61226b81611f23565b82525050565b60006040820190506122866000830185612262565b6122936020830184612262565b9392505050565b600080600080600080600080610100898b0312156122bb576122ba611f19565b5b60006122c98b828c01612007565b98505060206122da8b828c01612007565b97505060406122eb8b828c01611f44565b96505060606122fc8b828c01611f44565b955050608061230d8b828c01611f44565b94505060a061231e8b828c01611f44565b93505060c061232f8b828c01612007565b92505060e06123408b828c01611f44565b9150509295985092959890939650565b60006060820190506123656000830186612262565b6123726020830185612262565b61237f6040830184612262565b949350505050565b60008060008060008060c087890312156123a4576123a3611f19565b5b60006123b289828a01612007565b96505060206123c389828a01611f44565b95505060406123d489828a01611f44565b94505060606123e589828a01611f44565b93505060806123f689828a01612007565b92505060a061240789828a01611f44565b9150509295509295509295565b6000806000806000608086880312156124305761242f611f19565b5b600061243e88828901611f44565b955050602086013567ffffffffffffffff81111561245f5761245e611f1e565b5b61246b88828901611f68565b9450945050604061247e88828901612007565b925050606061248f88828901611f44565b9150509295509295909350565b7f4e487b7100000000000000000000000000000000000000000000000000000000600052601160045260246000fd5b60006124d682611f23565b91506124e183611f23565b92508282039050818111156124f9576124f861249c565b5b92915050565b7f4e487b7100000000000000000000000000000000000000000000000000000000600052603260045260246000fd5b600082825260208201905092915050565b7f44655863656c526f757465723a20494e53554646494349454e545f4f5554505560008201527f545f414d4f554e54000000000000000000000000000000000000000000000000602082015250565b600061259b60288361252e565b91506125a68261253f565b604082019050919050565b600060208201905081810360008301526125ca8161258e565b9050919050565b6000602082840312156125e7576125e6611f19565b5b60006125f584828501612007565b91505092915050565b60006060820190506126136000830186612196565b6126206020830185612196565b61262d6040830184612262565b949350505050565b60008115159050919050565b61264a81612635565b811461265557600080fd5b50565b60008151905061266781612641565b92915050565b60006020828403121561268357612682611f19565b5b600061269184828501612658565b91505092915050565b6000815190506126a981611f2d565b92915050565b600080604083850312156126c6576126c5611f19565b5b60006126d48582860161269a565b92505060206126e58582860161269a565b9150509250929050565b7f44655863656c526f757465723a20494e53554646494349454e545f415f414d4f60008201527f554e540000000000000000000000000000000000000000000000000000000000602082015250565b600061274b60238361252e565b9150612756826126ef565b604082019050919050565b6000602082019050818103600083015261277a8161273e565b9050919050565b7f44655863656c526f757465723a20494e53554646494349454e545f425f414d4f60008201527f554e540000000000000000000000000000000000000000000000000000000000602082015250565b60006127dd60238361252e565b91506127e882612781565b604082019050919050565b6000602082019050818103600083015261280c816127d0565b9050919050565b60006020828403121561282957612828611f19565b5b60006128378482850161269a565b91505092915050565b60006040820190506128556000830185612196565b6128626020830184612262565b9392505050565b7f556e69737761705632526f757465723a20494e56414c49445f50415448000000600082015250565b600061289f601d8361252e565b91506128aa82612869565b602082019050919050565b600060208201905081810360008301526128ce81612892565b9050919050565b7f556e69737761705632526f757465723a204558434553534956455f494e50555460008201527f5f414d4f554e5400000000000000000000000000000000000000000000000000602082015250565b600061293160278361252e565b915061293c826128d5565b604082019050919050565b6000602082019050818103600083015261296081612924565b9050919050565b7f44655863656c4c6962726172793a20494e56414c49445f504154480000000000600082015250565b600061299d601b8361252e565b91506129a882612967565b602082019050919050565b600060208201905081810360008301526129cc81612990565b9050919050565b7f4e487b7100000000000000000000000000000000000000000000000000000000600052604160045260246000fd5b6000612a0d82611f23565b9150612a1883611f23565b9250828201905080821115612a3057612a2f61249c565b5b92915050565b6000612a4182611f23565b91507fffffffffffffffffffffffffffffffffffffffffffffffffffffffffffffffff8203612a7357612a7261249c565b5b600182019050919050565b60008160601b9050919050565b6000612a9682612a7e565b9050919050565b6000612aa882612a8b565b9050919050565b612ac0612abb82611fde565b612a9d565b82525050565b6000612ad28285612aaf565b601482019150612ae28284612aaf565b6014820191508190509392505050565b600081905092915050565b7fff00000000000000000000000000000000000000000000000000000000000000600082015250565b6000612b33600183612af2565b9150612b3e82612afd565b600182019050919050565b6000819050919050565b6000819050919050565b612b6e612b6982612b49565b612b53565b82525050565b7fd0c6a5c6dd6bd3736cf4ab8926234c67ed017fb0a04fd11084fd4decf20c0c2d600082015250565b6000612baa602083612af2565b9150612bb582612b74565b602082019050919050565b6000612bcb82612b26565b9150612bd78285612aaf565b601482019150612be78284612b5d565b602082019150612bf682612b9d565b91508190509392505050565b600081519050919050565b600081905092915050565b60005b83811015612c36578082015181840152602081019050612c1b565b60008484015250505050565b6000612c4d82612c02565b612c578185612c0d565b9350612c67818560208601612c18565b80840191505092915050565b6000612c7f8284612c42565b915081905092915050565b7f5472616e7366657248656c7065723a3a7472616e7366657246726f6d3a20747260008201527f616e7366657246726f6d206661696c6564000000000000000000000000000000602082015250565b6000612ce660318361252e565b9150612cf182612c8a565b604082019050919050565b60006020820190508181036000830152612d1581612cd9565b9050919050565b600082825260208201905092915050565b6000601f19601f8301169050919050565b6000612d4982612c02565b612d538185612d1c565b9350612d63818560208601612c18565b612d6c81612d2d565b840191505092915050565b6000608082019050612d8c6000830187612262565b612d996020830186612262565b612da66040830185612196565b8181036060830152612db88184612d3e565b905095945050505050565b7f44655863656c4c6962726172793a204944454e544943414c5f4144445245535360008201527f4553000000000000000000000000000000000000000000000000000000000000602082015250565b6000612e1f60228361252e565b9150612e2a82612dc3565b604082019050919050565b60006020820190508181036000830152612e4e81612e12565b9050919050565b7f44655863656c4c6962726172793a205a45524f5f414444524553530000000000600082015250565b6000612e8b601b8361252e565b9150612e9682612e55565b602082019050919050565b60006020820190508181036000830152612eba81612e7e565b9050919050565b6000604082019050612ed66000830185612196565b612ee36020830184612196565b9392505050565b600081519050612ef981611ff0565b92915050565b600060208284031215612f1557612f14611f19565b5b6000612f2384828501612eea565b91505092915050565b7f5472616e7366657248656c7065723a3a736166655472616e736665724554483a60008201527f20455448207472616e73666572206661696c6564000000000000000000000000602082015250565b6000612f8860348361252e565b9150612f9382612f2c565b604082019050919050565b60006020820190508181036000830152612fb781612f7b565b9050919050565b6000612fc982611f23565b915060008203612fdc57612fdb61249c565b5b600182039050919050565b60008060006060848603121561300057612fff611f19565b5b600061300e8682870161269a565b935050602061301f8682870161269a565b92505060406130308682870161269a565b9150509250925092565b7f44655863656c4c6962726172793a20494e53554646494349454e545f494e505560008201527f545f414d4f554e54000000000000000000000000000000000000000000000000602082015250565b600061309660288361252e565b91506130a18261303a565b604082019050919050565b600060208201905081810360008301526130c581613089565b9050919050565b7f44655863656c4c6962726172793a20494e53554646494349454e545f4c49515560008201527f4944495459000000000000000000000000000000000000000000000000000000602082015250565b600061312860258361252e565b9150613133826130cc565b604082019050919050565b600060208201905081810360008301526131578161311b565b9050919050565b7f4e487b7100000000000000000000000000000000000000000000000000000000600052601260045260246000fd5b600061319882611f23565b91506131a383611f23565b9250826131b3576131b261315e565b5b828204905092915050565b7f44655863656c4c6962726172793a20494e53554646494349454e545f414d4f5560008201527f4e54000000000000000000000000000000000000000000000000000000000000602082015250565b600061321a60228361252e565b9150613225826131be565b604082019050919050565b600060208201905081810360008301526132498161320d565b9050919050565b7f44655863656c4c6962726172793a20494e53554646494349454e545f4f55545060008201527f55545f414d4f554e540000000000000000000000000000000000000000000000602082015250565b60006132ac60298361252e565b91506132b782613250565b604082019050919050565b600060208201905081810360008301526132db8161329f565b9050919050565b60006132ed82611f23565b91506132f883611f23565b925082820261330681611f23565b9150828204841483151761331d5761331c61249c565b5b5092915050565b7f64732d6d6174682d6d756c2d6f766572666c6f77000000000000000000000000600082015250565b600061335a60148361252e565b915061336582613324565b602082019050919050565b600060208201905081810360008301526133898161334d565b9050919050565b7f64732d6d6174682d6164642d6f766572666c6f77000000000000000000000000600082015250565b60006133c660148361252e565b91506133d182613390565b602082019050919050565b600060208201905081810360008301526133f5816133b9565b9050919050565b7f64732d6d6174682d7375622d756e646572666c6f770000000000000000000000600082015250565b600061343260158361252e565b915061343d826133fc565b602082019050919050565b6000602082019050818103600083015261346181613425565b905091905056fea26469706673582212203612383de4da55c2cbd352724ad959ca080b4e1eb7f0f63e97b554c16c61b50d64736f6c63430008110033",
  "linkReferences": {},
  "deployedLinkReferences": {}
}