{
  "_format": "hh-sol-artifact-1",
  "contractName": "Handler",
  "sourceName": "src/backend/contracts/Handler.sol",
  "abi": [
    {
      "inputs": [
        {
          "internalType": "address",
          "name": "_factory",
          "type": "address"
        },
        {
          "internalType": "address",
          "name": "_router",
          "type": "address"
        }
      ],
      "stateMutability": "nonpayable",
      "type": "constructor"
    },
    {
      "inputs": [
        {
          "internalType": "address",
          "name": "_token0",
          "type": "address"
        },
        {
          "internalType": "address",
          "name": "_token1",
          "type": "address"
        },
        {
          "internalType": "uint256",
          "name": "_amount0",
          "type": "uint256"
        },
        {
          "internalType": "uint256",
          "name": "_amount1",
          "type": "uint256"
        },
        {
          "internalType": "address",
          "name": "_to",
          "type": "address"
        }
      ],
      "name": "addliquidity",
      "outputs": [
        {
          "internalType": "bool",
          "name": "",
          "type": "bool"
        }
      ],
      "stateMutability": "nonpayable",
      "type": "function"
    },
    {
      "inputs": [
        {
          "internalType": "uint256",
          "name": "_amountIn",
          "type": "uint256"
        },
        {
          "internalType": "uint256",
          "name": "_amountOutMin",
          "type": "uint256"
        },
        {
          "internalType": "address[]",
          "name": "_path",
          "type": "address[]"
        },
        {
          "internalType": "address",
          "name": "_to",
          "type": "address"
        }
      ],
      "name": "exchangeTokens",
      "outputs": [
        {
          "internalType": "bool",
          "name": "",
          "type": "bool"
        }
      ],
      "stateMutability": "nonpayable",
      "type": "function"
    },
    {
      "inputs": [],
      "name": "factory",
      "outputs": [
        {
          "internalType": "address",
          "name": "",
          "type": "address"
        }
      ],
      "stateMutability": "view",
      "type": "function"
    },
    {
      "inputs": [
        {
          "internalType": "address",
          "name": "_tokenA",
          "type": "address"
        },
        {
          "internalType": "address",
          "name": "_tokenB",
          "type": "address"
        },
        {
          "internalType": "uint256",
          "name": "_liquidity",
          "type": "uint256"
        },
        {
          "internalType": "uint256",
          "name": "_amountAMin",
          "type": "uint256"
        },
        {
          "internalType": "uint256",
          "name": "_amountBMin",
          "type": "uint256"
        },
        {
          "internalType": "address",
          "name": "_to",
          "type": "address"
        }
      ],
      "name": "removeLiquiduty",
      "outputs": [
        {
          "internalType": "bool",
          "name": "",
          "type": "bool"
        }
      ],
      "stateMutability": "nonpayable",
      "type": "function"
    },
    {
      "inputs": [],
      "name": "router",
      "outputs": [
        {
          "internalType": "address",
          "name": "",
          "type": "address"
        }
      ],
      "stateMutability": "view",
      "type": "function"
    }
  ],
  "bytecode": "0x60806040523480156200001157600080fd5b50604051620010813803806200108183398181016040528101906200003791906200012a565b816000806101000a81548173ffffffffffffffffffffffffffffffffffffffff021916908373ffffffffffffffffffffffffffffffffffffffff16021790555080600160006101000a81548173ffffffffffffffffffffffffffffffffffffffff021916908373ffffffffffffffffffffffffffffffffffffffff160217905550505062000171565b600080fd5b600073ffffffffffffffffffffffffffffffffffffffff82169050919050565b6000620000f282620000c5565b9050919050565b6200010481620000e5565b81146200011057600080fd5b50565b6000815190506200012481620000f9565b92915050565b60008060408385031215620001445762000143620000c0565b5b6000620001548582860162000113565b9250506020620001678582860162000113565b9150509250929050565b610f0080620001816000396000f3fe608060405234801561001057600080fd5b50600436106100575760003560e01c8063325cf27e1461005c5780633fa718901461008c578063c45a0155146100bc578063e9726958146100da578063f887ea401461010a575b600080fd5b61007660048036038101906100719190610694565b610128565b604051610083919061073c565b60405180910390f35b6100a660048036038101906100a191906107bc565b6101f5565b6040516100b3919061073c565b60405180910390f35b6100c461038e565b6040516100d19190610853565b60405180910390f35b6100f460048036038101906100ef919061086e565b6103b2565b604051610101919061073c565b60405180910390f35b6101126105c6565b60405161011f9190610853565b60405180910390f35b600080610e10426101399190610918565b9050600160009054906101000a900473ffffffffffffffffffffffffffffffffffffffff1673ffffffffffffffffffffffffffffffffffffffff1663baa2abde898989898989886040518863ffffffff1660e01b81526004016101a2979695949392919061095b565b60408051808303816000875af11580156101c0573d6000803e3d6000fd5b505050506040513d601f19601f820116820180604052508101906101e491906109df565b505060019150509695505050505050565b60008383600081811061020b5761020a610a1f565b5b90506020020160208101906102209190610a4e565b73ffffffffffffffffffffffffffffffffffffffff1663095ea7b3600160009054906101000a900473ffffffffffffffffffffffffffffffffffffffff16886040518363ffffffff1660e01b815260040161027c929190610a7b565b6020604051808303816000875af115801561029b573d6000803e3d6000fd5b505050506040513d601f19601f820116820180604052508101906102bf9190610ad0565b506000610e10426102d09190610918565b9050600160009054906101000a900473ffffffffffffffffffffffffffffffffffffffff1673ffffffffffffffffffffffffffffffffffffffff166338ed17398888888888876040518763ffffffff1660e01b815260040161033796959493929190610bc0565b6000604051808303816000875af1158015610356573d6000803e3d6000fd5b505050506040513d6000823e3d601f19601f8201168201806040525081019061037f9190610d6b565b50600191505095945050505050565b60008054906101000a900473ffffffffffffffffffffffffffffffffffffffff1681565b60008573ffffffffffffffffffffffffffffffffffffffff1663095ea7b3600160009054906101000a900473ffffffffffffffffffffffffffffffffffffffff16866040518363ffffffff1660e01b8152600401610411929190610a7b565b6020604051808303816000875af1158015610430573d6000803e3d6000fd5b505050506040513d601f19601f820116820180604052508101906104549190610ad0565b508473ffffffffffffffffffffffffffffffffffffffff1663095ea7b3600160009054906101000a900473ffffffffffffffffffffffffffffffffffffffff16856040518363ffffffff1660e01b81526004016104b2929190610a7b565b6020604051808303816000875af11580156104d1573d6000803e3d6000fd5b505050506040513d601f19601f820116820180604052508101906104f59190610ad0565b506000610e10426105069190610918565b9050600160009054906101000a900473ffffffffffffffffffffffffffffffffffffffff1673ffffffffffffffffffffffffffffffffffffffff1663e8e33700888888886000808a896040518963ffffffff1660e01b8152600401610572989796959493929190610df9565b6060604051808303816000875af1158015610591573d6000803e3d6000fd5b505050506040513d601f19601f820116820180604052508101906105b59190610e77565b505050600191505095945050505050565b600160009054906101000a900473ffffffffffffffffffffffffffffffffffffffff1681565b6000604051905090565b600080fd5b600080fd5b600073ffffffffffffffffffffffffffffffffffffffff82169050919050565b600061062b82610600565b9050919050565b61063b81610620565b811461064657600080fd5b50565b60008135905061065881610632565b92915050565b6000819050919050565b6106718161065e565b811461067c57600080fd5b50565b60008135905061068e81610668565b92915050565b60008060008060008060c087890312156106b1576106b06105f6565b5b60006106bf89828a01610649565b96505060206106d089828a01610649565b95505060406106e189828a0161067f565b94505060606106f289828a0161067f565b935050608061070389828a0161067f565b92505060a061071489828a01610649565b9150509295509295509295565b60008115159050919050565b61073681610721565b82525050565b6000602082019050610751600083018461072d565b92915050565b600080fd5b600080fd5b600080fd5b60008083601f84011261077c5761077b610757565b5b8235905067ffffffffffffffff8111156107995761079861075c565b5b6020830191508360208202830111156107b5576107b4610761565b5b9250929050565b6000806000806000608086880312156107d8576107d76105f6565b5b60006107e68882890161067f565b95505060206107f78882890161067f565b945050604086013567ffffffffffffffff811115610818576108176105fb565b5b61082488828901610766565b9350935050606061083788828901610649565b9150509295509295909350565b61084d81610620565b82525050565b60006020820190506108686000830184610844565b92915050565b600080600080600060a0868803121561088a576108896105f6565b5b600061089888828901610649565b95505060206108a988828901610649565b94505060406108ba8882890161067f565b93505060606108cb8882890161067f565b92505060806108dc88828901610649565b9150509295509295909350565b7f4e487b7100000000000000000000000000000000000000000000000000000000600052601160045260246000fd5b60006109238261065e565b915061092e8361065e565b9250828201905080821115610946576109456108e9565b5b92915050565b6109558161065e565b82525050565b600060e082019050610970600083018a610844565b61097d6020830189610844565b61098a604083018861094c565b610997606083018761094c565b6109a4608083018661094c565b6109b160a0830185610844565b6109be60c083018461094c565b98975050505050505050565b6000815190506109d981610668565b92915050565b600080604083850312156109f6576109f56105f6565b5b6000610a04858286016109ca565b9250506020610a15858286016109ca565b9150509250929050565b7f4e487b7100000000000000000000000000000000000000000000000000000000600052603260045260246000fd5b600060208284031215610a6457610a636105f6565b5b6000610a7284828501610649565b91505092915050565b6000604082019050610a906000830185610844565b610a9d602083018461094c565b9392505050565b610aad81610721565b8114610ab857600080fd5b50565b600081519050610aca81610aa4565b92915050565b600060208284031215610ae657610ae56105f6565b5b6000610af484828501610abb565b91505092915050565b600082825260208201905092915050565b6000819050919050565b610b2181610620565b82525050565b6000610b338383610b18565b60208301905092915050565b6000610b4e6020840184610649565b905092915050565b6000602082019050919050565b6000610b6f8385610afd565b9350610b7a82610b0e565b8060005b85811015610bb357610b908284610b3f565b610b9a8882610b27565b9750610ba583610b56565b925050600181019050610b7e565b5085925050509392505050565b600060a082019050610bd5600083018961094c565b610be2602083018861094c565b8181036040830152610bf5818688610b63565b9050610c046060830185610844565b610c11608083018461094c565b979650505050505050565b6000601f19601f8301169050919050565b7f4e487b7100000000000000000000000000000000000000000000000000000000600052604160045260246000fd5b610c6582610c1c565b810181811067ffffffffffffffff82111715610c8457610c83610c2d565b5b80604052505050565b6000610c976105ec565b9050610ca38282610c5c565b919050565b600067ffffffffffffffff821115610cc357610cc2610c2d565b5b602082029050602081019050919050565b6000610ce7610ce284610ca8565b610c8d565b90508083825260208201905060208402830185811115610d0a57610d09610761565b5b835b81811015610d335780610d1f88826109ca565b845260208401935050602081019050610d0c565b5050509392505050565b600082601f830112610d5257610d51610757565b5b8151610d62848260208601610cd4565b91505092915050565b600060208284031215610d8157610d806105f6565b5b600082015167ffffffffffffffff811115610d9f57610d9e6105fb565b5b610dab84828501610d3d565b91505092915050565b6000819050919050565b6000819050919050565b6000610de3610dde610dd984610db4565b610dbe565b61065e565b9050919050565b610df381610dc8565b82525050565b600061010082019050610e0f600083018b610844565b610e1c602083018a610844565b610e29604083018961094c565b610e36606083018861094c565b610e436080830187610dea565b610e5060a0830186610dea565b610e5d60c0830185610844565b610e6a60e083018461094c565b9998505050505050505050565b600080600060608486031215610e9057610e8f6105f6565b5b6000610e9e868287016109ca565b9350506020610eaf868287016109ca565b9250506040610ec0868287016109ca565b915050925092509256fea2646970667358221220b653c0e29478ca2a5ba036de069df8f8888c67274e9bf7c8ee9fb0bb0e6ffb3464736f6c63430008110033",
  "linkReferences": {},
  "deployedLinkReferences": {}
}