{"src/backend/contracts/DeXcelRouter.sol":{"DeXcelRouter":{"abi":[{"inputs":[{"internalType":"address","name":"_factory","type":"address"},{"internalType":"address","name":"_WETH","type":"address"}],"stateMutability":"nonpayable","type":"constructor"},{"inputs":[],"name":"WETH","outputs":[{"internalType":"address","name":"","type":"address"}],"stateMutability":"view","type":"function"},{"inputs":[{"internalType":"address","name":"tokenA","type":"address"},{"internalType":"address","name":"tokenB","type":"address"},{"internalType":"uint256","name":"amountADesired","type":"uint256"},{"internalType":"uint256","name":"amountBDesired","type":"uint256"},{"internalType":"uint256","name":"amountAMin","type":"uint256"},{"internalType":"uint256","name":"amountBMin","type":"uint256"},{"internalType":"address","name":"to","type":"address"},{"internalType":"uint256","name":"deadline","type":"uint256"}],"name":"addLiquidity","outputs":[{"internalType":"uint256","name":"amountA","type":"uint256"},{"internalType":"uint256","name":"amountB","type":"uint256"},{"internalType":"uint256","name":"liquidity","type":"uint256"}],"stateMutability":"nonpayable","type":"function"},{"inputs":[],"name":"factory","outputs":[{"internalType":"address","name":"","type":"address"}],"stateMutability":"view","type":"function"},{"inputs":[{"internalType":"address","name":"tokenA","type":"address"},{"internalType":"address","name":"tokenB","type":"address"},{"internalType":"uint256","name":"liquidity","type":"uint256"},{"internalType":"uint256","name":"amountAMin","type":"uint256"},{"internalType":"uint256","name":"amountBMin","type":"uint256"},{"internalType":"address","name":"to","type":"address"},{"internalType":"uint256","name":"deadline","type":"uint256"}],"name":"removeLiquidity","outputs":[{"internalType":"uint256","name":"amountA","type":"uint256"},{"internalType":"uint256","name":"amountB","type":"uint256"}],"stateMutability":"nonpayable","type":"function"},{"inputs":[{"internalType":"uint256","name":"amountIn","type":"uint256"},{"internalType":"uint256","name":"amountOutMin","type":"uint256"},{"internalType":"address[]","name":"path","type":"address[]"},{"internalType":"address","name":"to","type":"address"},{"internalType":"uint256","name":"deadline","type":"uint256"}],"name":"swapExactTokensForTokens","outputs":[{"internalType":"uint256[]","name":"amounts","type":"uint256[]"}],"stateMutability":"nonpayable","type":"function"},{"stateMutability":"payable","type":"receive"}],"evm":{"bytecode":{"linkReferences":{},"object":"60c06040523480156200001157600080fd5b506040516200276938038062002769833981810160405281019062000037919062000111565b8173ffffffffffffffffffffffffffffffffffffffff1660808173ffffffffffffffffffffffffffffffffffffffff16815250508073ffffffffffffffffffffffffffffffffffffffff1660a08173ffffffffffffffffffffffffffffffffffffffff1681525050505062000158565b600080fd5b600073ffffffffffffffffffffffffffffffffffffffff82169050919050565b6000620000d982620000ac565b9050919050565b620000eb81620000cc565b8114620000f757600080fd5b50565b6000815190506200010b81620000e0565b92915050565b600080604083850312156200012b576200012a620000a7565b5b60006200013b85828601620000fa565b92505060206200014e85828601620000fa565b9150509250929050565b60805160a0516125a6620001c360003960008181605501526103c10152600081816101cd015281816102d2015281816103ed015281816106040152818161064801528181610b4d01528181610ba101528181610ded01528181610ea40152610f4a01526125a66000f3fe60806040526004361061004e5760003560e01c806338ed1739146100b6578063ad5c4648146100f3578063baa2abde1461011e578063c45a01551461015c578063e8e3370014610187576100b1565b366100b1577f000000000000000000000000000000000000000000000000000000000000000073ffffffffffffffffffffffffffffffffffffffff163373ffffffffffffffffffffffffffffffffffffffff16146100af576100ae6113e7565b5b005b600080fd5b3480156100c257600080fd5b506100dd60048036038101906100d89190611519565b6101c6565b6040516100ea9190611671565b60405180910390f35b3480156100ff57600080fd5b506101086103bf565b60405161011591906116a2565b60405180910390f35b34801561012a57600080fd5b50610145600480360381019061014091906116bd565b6103e3565b60405161015392919061176e565b60405180910390f35b34801561016857600080fd5b50610171610602565b60405161017e91906116a2565b60405180910390f35b34801561019357600080fd5b506101ae60048036038101906101a99190611797565b610626565b6040516101bd9392919061184d565b60405180910390f35b60606102347f000000000000000000000000000000000000000000000000000000000000000088878780806020026020016040519081016040528093929190818152602001838360200280828437600081840152601f19601f82011690508083019250505050505050610715565b905085816001835161024691906118b3565b81518110610257576102566118e7565b5b602002602001015110156102a0576040517f08c379a000000000000000000000000000000000000000000000000000000000815260040161029790611999565b60405180910390fd5b610369858560008181106102b7576102b66118e7565b5b90506020020160208101906102cc91906119b9565b336103487f000000000000000000000000000000000000000000000000000000000000000089896000818110610305576103046118e7565b5b905060200201602081019061031a91906119b9565b8a8a600181811061032e5761032d6118e7565b5b905060200201602081019061034391906119b9565b6108a0565b8460008151811061035c5761035b6118e7565b5b6020026020010151610912565b6103b581868680806020026020016040519081016040528093929190818152602001838360200280828437600081840152601f19601f8201169050808301925050505050505085610a4b565b9695505050505050565b7f000000000000000000000000000000000000000000000000000000000000000081565b60008060006104137f00000000000000000000000000000000000000000000000000000000000000008b8b6108a0565b90508073ffffffffffffffffffffffffffffffffffffffff166323b872dd33838b6040518463ffffffff1660e01b8152600401610452939291906119e6565b6020604051808303816000875af1158015610471573d6000803e3d6000fd5b505050506040513d601f19601f820116820180604052508101906104959190611a55565b506000808273ffffffffffffffffffffffffffffffffffffffff166389afcb44886040518263ffffffff1660e01b81526004016104d291906116a2565b60408051808303816000875af11580156104f0573d6000803e3d6000fd5b505050506040513d601f19601f820116820180604052508101906105149190611a97565b9150915060006105248d8d610ca4565b5090508073ffffffffffffffffffffffffffffffffffffffff168d73ffffffffffffffffffffffffffffffffffffffff1614610561578183610564565b82825b8096508197505050898610156105af576040517f08c379a00000000000000000000000000000000000000000000000000000000081526004016105a690611b49565b60405180910390fd5b888510156105f2576040517f08c379a00000000000000000000000000000000000000000000000000000000081526004016105e990611bdb565b60405180910390fd5b5050505097509795505050505050565b7f000000000000000000000000000000000000000000000000000000000000000081565b60008060006106398b8b8b8b8b8b610dd0565b8093508194505050600061066e7f00000000000000000000000000000000000000000000000000000000000000008d8d6108a0565b905061067c8c338387610912565b6106888b338386610912565b8073ffffffffffffffffffffffffffffffffffffffff16636a627842876040518263ffffffff1660e01b81526004016106c191906116a2565b6020604051808303816000875af11580156106e0573d6000803e3d6000fd5b505050506040513d601f19601f820116820180604052508101906107049190611bfb565b915050985098509895505050505050565b606060028251101561075c576040517f08c379a000000000000000000000000000000000000000000000000000000000815260040161075390611c74565b60405180910390fd5b815167ffffffffffffffff81111561077757610776611c94565b5b6040519080825280602002602001820160405280156107a55781602001602082028036833780820191505090505b50905082816000815181106107bd576107bc6118e7565b5b60200260200101818152505060005b600183516107da91906118b3565b8110156108985760008061082f878685815181106107fb576107fa6118e7565b5b6020026020010151876001876108119190611cc3565b81518110610822576108216118e7565b5b602002602001015161107e565b91509150610858848481518110610849576108486118e7565b5b60200260200101518383611161565b846001856108669190611cc3565b81518110610877576108766118e7565b5b6020026020010181815250505050808061089090611cf7565b9150506107cc565b509392505050565b60008060006108af8585610ca4565b915091508582826040516020016108c7929190611d87565b604051602081830303815290604052805190602001206040516020016108ee929190611e81565b6040516020818303038152906040528051906020012060001c925050509392505050565b6000808573ffffffffffffffffffffffffffffffffffffffff166323b872dd868686604051602401610946939291906119e6565b6040516020818303038152906040529060e01b6020820180517bffffffffffffffffffffffffffffffffffffffffffffffffffffffff83818316178352505050506040516109949190611f34565b6000604051808303816000865af19150503d80600081146109d1576040519150601f19603f3d011682016040523d82523d6000602084013e6109d6565b606091505b5091509150818015610a045750600081511480610a03575080806020019051810190610a029190611a55565b5b5b610a43576040517f08c379a0000000000000000000000000000000000000000000000000000000008152600401610a3a90611fbd565b60405180910390fd5b505050505050565b60005b60018351610a5c91906118b3565b811015610c9e57600080848381518110610a7957610a786118e7565b5b602002602001015185600185610a8f9190611cc3565b81518110610aa057610a9f6118e7565b5b6020026020010151915091506000610ab88383610ca4565b509050600087600186610acb9190611cc3565b81518110610adc57610adb6118e7565b5b602002602001015190506000808373ffffffffffffffffffffffffffffffffffffffff168673ffffffffffffffffffffffffffffffffffffffff1614610b2457826000610b28565b6000835b91509150600060028a51610b3c91906118b3565b8810610b485788610b9a565b610b997f0000000000000000000000000000000000000000000000000000000000000000878c60028c610b7b9190611cc3565b81518110610b8c57610b8b6118e7565b5b60200260200101516108a0565b5b9050610bc77f000000000000000000000000000000000000000000000000000000000000000088886108a0565b73ffffffffffffffffffffffffffffffffffffffff1663022c0d9f848484600067ffffffffffffffff811115610c0057610bff611c94565b5b6040519080825280601f01601f191660200182016040528015610c325781602001600182028036833780820191505090505b506040518563ffffffff1660e01b8152600401610c529493929190612038565b600060405180830381600087803b158015610c6c57600080fd5b505af1158015610c80573d6000803e3d6000fd5b50505050505050505050508080610c9690611cf7565b915050610a4e565b50505050565b6000808273ffffffffffffffffffffffffffffffffffffffff168473ffffffffffffffffffffffffffffffffffffffff1603610d15576040517f08c379a0000000000000000000000000000000000000000000000000000000008152600401610d0c906120f6565b60405180910390fd5b8273ffffffffffffffffffffffffffffffffffffffff168473ffffffffffffffffffffffffffffffffffffffff1610610d4f578284610d52565b83835b8092508193505050600073ffffffffffffffffffffffffffffffffffffffff168273ffffffffffffffffffffffffffffffffffffffff1603610dc9576040517f08c379a0000000000000000000000000000000000000000000000000000000008152600401610dc090612162565b60405180910390fd5b9250929050565b600080600073ffffffffffffffffffffffffffffffffffffffff167f000000000000000000000000000000000000000000000000000000000000000073ffffffffffffffffffffffffffffffffffffffff1663e6a439058a8a6040518363ffffffff1660e01b8152600401610e46929190612182565b602060405180830381865afa158015610e63573d6000803e3d6000fd5b505050506040513d601f19601f82011682018060405250810190610e8791906121c0565b73ffffffffffffffffffffffffffffffffffffffff1603610f42577f000000000000000000000000000000000000000000000000000000000000000073ffffffffffffffffffffffffffffffffffffffff1663c9c6539689896040518363ffffffff1660e01b8152600401610efd929190612182565b6020604051808303816000875af1158015610f1c573d6000803e3d6000fd5b505050506040513d601f19601f82011682018060405250810190610f4091906121c0565b505b600080610f707f00000000000000000000000000000000000000000000000000000000000000008b8b61107e565b91509150600082148015610f845750600081145b15610f985787878094508195505050611071565b6000610fa5898484611267565b90508781116110005785811015610ff1576040517f08c379a0000000000000000000000000000000000000000000000000000000008152600401610fe890611bdb565b60405180910390fd5b8881809550819650505061106f565b600061100d898486611267565b9050898111156110205761101f6113e7565b5b87811015611063576040517f08c379a000000000000000000000000000000000000000000000000000000000815260040161105a90611b49565b60405180910390fd5b80898096508197505050505b505b5050965096945050505050565b600080600061108d8585610ca4565b50905060008061109e8888886108a0565b73ffffffffffffffffffffffffffffffffffffffff16630902f1ac6040518163ffffffff1660e01b8152600401606060405180830381865afa1580156110e8573d6000803e3d6000fd5b505050506040513d601f19601f8201168201806040525081019061110c91906121ed565b50915091508273ffffffffffffffffffffffffffffffffffffffff168773ffffffffffffffffffffffffffffffffffffffff161461114b57808261114e565b81815b8095508196505050505050935093915050565b60008084116111a5576040517f08c379a000000000000000000000000000000000000000000000000000000000815260040161119c906122b2565b60405180910390fd5b6000831180156111b55750600082115b6111f4576040517f08c379a00000000000000000000000000000000000000000000000000000000081526004016111eb90612344565b60405180910390fd5b600061120b6103e58661132190919063ffffffff16565b90506000611222848361132190919063ffffffff16565b9050600061124d8361123f6103e88961132190919063ffffffff16565b61138e90919063ffffffff16565b9050808261125b9190612393565b93505050509392505050565b60008084116112ab576040517f08c379a00000000000000000000000000000000000000000000000000000000081526004016112a290612436565b60405180910390fd5b6000831180156112bb5750600082115b6112fa576040517f08c379a00000000000000000000000000000000000000000000000000000000081526004016112f190612344565b60405180910390fd5b8261130e838661132190919063ffffffff16565b6113189190612393565b90509392505050565b60008082148061134957508282838561133a9190612456565b9250826113479190612393565b145b611388576040517f08c379a000000000000000000000000000000000000000000000000000000000815260040161137f906124e4565b60405180910390fd5b92915050565b600082828461139d9190611cc3565b91508110156113e1576040517f08c379a00000000000000000000000000000000000000000000000000000000081526004016113d890612550565b60405180910390fd5b92915050565b7f4e487b7100000000000000000000000000000000000000000000000000000000600052600160045260246000fd5b600080fd5b600080fd5b6000819050919050565b61143381611420565b811461143e57600080fd5b50565b6000813590506114508161142a565b92915050565b600080fd5b600080fd5b600080fd5b60008083601f84011261147b5761147a611456565b5b8235905067ffffffffffffffff8111156114985761149761145b565b5b6020830191508360208202830111156114b4576114b3611460565b5b9250929050565b600073ffffffffffffffffffffffffffffffffffffffff82169050919050565b60006114e6826114bb565b9050919050565b6114f6816114db565b811461150157600080fd5b50565b600081359050611513816114ed565b92915050565b60008060008060008060a0878903121561153657611535611416565b5b600061154489828a01611441565b965050602061155589828a01611441565b955050604087013567ffffffffffffffff8111156115765761157561141b565b5b61158289828a01611465565b9450945050606061159589828a01611504565b92505060806115a689828a01611441565b9150509295509295509295565b600081519050919050565b600082825260208201905092915050565b6000819050602082019050919050565b6115e881611420565b82525050565b60006115fa83836115df565b60208301905092915050565b6000602082019050919050565b600061161e826115b3565b61162881856115be565b9350611633836115cf565b8060005b8381101561166457815161164b88826115ee565b975061165683611606565b925050600181019050611637565b5085935050505092915050565b6000602082019050818103600083015261168b8184611613565b905092915050565b61169c816114db565b82525050565b60006020820190506116b76000830184611693565b92915050565b600080600080600080600060e0888a0312156116dc576116db611416565b5b60006116ea8a828b01611504565b97505060206116fb8a828b01611504565b965050604061170c8a828b01611441565b955050606061171d8a828b01611441565b945050608061172e8a828b01611441565b93505060a061173f8a828b01611504565b92505060c06117508a828b01611441565b91505092959891949750929550565b61176881611420565b82525050565b6000604082019050611783600083018561175f565b611790602083018461175f565b9392505050565b600080600080600080600080610100898b0312156117b8576117b7611416565b5b60006117c68b828c01611504565b98505060206117d78b828c01611504565b97505060406117e88b828c01611441565b96505060606117f98b828c01611441565b955050608061180a8b828c01611441565b94505060a061181b8b828c01611441565b93505060c061182c8b828c01611504565b92505060e061183d8b828c01611441565b9150509295985092959890939650565b6000606082019050611862600083018661175f565b61186f602083018561175f565b61187c604083018461175f565b949350505050565b7f4e487b7100000000000000000000000000000000000000000000000000000000600052601160045260246000fd5b60006118be82611420565b91506118c983611420565b92508282039050818111156118e1576118e0611884565b5b92915050565b7f4e487b7100000000000000000000000000000000000000000000000000000000600052603260045260246000fd5b600082825260208201905092915050565b7f44655863656c526f757465723a20494e53554646494349454e545f4f5554505560008201527f545f414d4f554e54000000000000000000000000000000000000000000000000602082015250565b6000611983602883611916565b915061198e82611927565b604082019050919050565b600060208201905081810360008301526119b281611976565b9050919050565b6000602082840312156119cf576119ce611416565b5b60006119dd84828501611504565b91505092915050565b60006060820190506119fb6000830186611693565b611a086020830185611693565b611a15604083018461175f565b949350505050565b60008115159050919050565b611a3281611a1d565b8114611a3d57600080fd5b50565b600081519050611a4f81611a29565b92915050565b600060208284031215611a6b57611a6a611416565b5b6000611a7984828501611a40565b91505092915050565b600081519050611a918161142a565b92915050565b60008060408385031215611aae57611aad611416565b5b6000611abc85828601611a82565b9250506020611acd85828601611a82565b9150509250929050565b7f44655863656c526f757465723a20494e53554646494349454e545f415f414d4f60008201527f554e540000000000000000000000000000000000000000000000000000000000602082015250565b6000611b33602383611916565b9150611b3e82611ad7565b604082019050919050565b60006020820190508181036000830152611b6281611b26565b9050919050565b7f44655863656c526f757465723a20494e53554646494349454e545f425f414d4f60008201527f554e540000000000000000000000000000000000000000000000000000000000602082015250565b6000611bc5602383611916565b9150611bd082611b69565b604082019050919050565b60006020820190508181036000830152611bf481611bb8565b9050919050565b600060208284031215611c1157611c10611416565b5b6000611c1f84828501611a82565b91505092915050565b7f44655863656c4c6962726172793a20494e56414c49445f504154480000000000600082015250565b6000611c5e601b83611916565b9150611c6982611c28565b602082019050919050565b60006020820190508181036000830152611c8d81611c51565b9050919050565b7f4e487b7100000000000000000000000000000000000000000000000000000000600052604160045260246000fd5b6000611cce82611420565b9150611cd983611420565b9250828201905080821115611cf157611cf0611884565b5b92915050565b6000611d0282611420565b91507fffffffffffffffffffffffffffffffffffffffffffffffffffffffffffffffff8203611d3457611d33611884565b5b600182019050919050565b60008160601b9050919050565b6000611d5782611d3f565b9050919050565b6000611d6982611d4c565b9050919050565b611d81611d7c826114db565b611d5e565b82525050565b6000611d938285611d70565b601482019150611da38284611d70565b6014820191508190509392505050565b600081905092915050565b7fff00000000000000000000000000000000000000000000000000000000000000600082015250565b6000611df4600183611db3565b9150611dff82611dbe565b600182019050919050565b6000819050919050565b6000819050919050565b611e2f611e2a82611e0a565b611e14565b82525050565b7fd0c6a5c6dd6bd3736cf4ab8926234c67ed017fb0a04fd11084fd4decf20c0c2d600082015250565b6000611e6b602083611db3565b9150611e7682611e35565b602082019050919050565b6000611e8c82611de7565b9150611e988285611d70565b601482019150611ea88284611e1e565b602082019150611eb782611e5e565b91508190509392505050565b600081519050919050565b600081905092915050565b60005b83811015611ef7578082015181840152602081019050611edc565b60008484015250505050565b6000611f0e82611ec3565b611f188185611ece565b9350611f28818560208601611ed9565b80840191505092915050565b6000611f408284611f03565b915081905092915050565b7f5472616e7366657248656c7065723a3a7472616e7366657246726f6d3a20747260008201527f616e7366657246726f6d206661696c6564000000000000000000000000000000602082015250565b6000611fa7603183611916565b9150611fb282611f4b565b604082019050919050565b60006020820190508181036000830152611fd681611f9a565b9050919050565b600082825260208201905092915050565b6000601f19601f8301169050919050565b600061200a82611ec3565b6120148185611fdd565b9350612024818560208601611ed9565b61202d81611fee565b840191505092915050565b600060808201905061204d600083018761175f565b61205a602083018661175f565b6120676040830185611693565b81810360608301526120798184611fff565b905095945050505050565b7f44655863656c4c6962726172793a204944454e544943414c5f4144445245535360008201527f4553000000000000000000000000000000000000000000000000000000000000602082015250565b60006120e0602283611916565b91506120eb82612084565b604082019050919050565b6000602082019050818103600083015261210f816120d3565b9050919050565b7f44655863656c4c6962726172793a205a45524f5f414444524553530000000000600082015250565b600061214c601b83611916565b915061215782612116565b602082019050919050565b6000602082019050818103600083015261217b8161213f565b9050919050565b60006040820190506121976000830185611693565b6121a46020830184611693565b9392505050565b6000815190506121ba816114ed565b92915050565b6000602082840312156121d6576121d5611416565b5b60006121e4848285016121ab565b91505092915050565b60008060006060848603121561220657612205611416565b5b600061221486828701611a82565b935050602061222586828701611a82565b925050604061223686828701611a82565b9150509250925092565b7f44655863656c4c6962726172793a20494e53554646494349454e545f494e505560008201527f545f414d4f554e54000000000000000000000000000000000000000000000000602082015250565b600061229c602883611916565b91506122a782612240565b604082019050919050565b600060208201905081810360008301526122cb8161228f565b9050919050565b7f44655863656c4c6962726172793a20494e53554646494349454e545f4c49515560008201527f4944495459000000000000000000000000000000000000000000000000000000602082015250565b600061232e602583611916565b9150612339826122d2565b604082019050919050565b6000602082019050818103600083015261235d81612321565b9050919050565b7f4e487b7100000000000000000000000000000000000000000000000000000000600052601260045260246000fd5b600061239e82611420565b91506123a983611420565b9250826123b9576123b8612364565b5b828204905092915050565b7f44655863656c4c6962726172793a20494e53554646494349454e545f414d4f5560008201527f4e54000000000000000000000000000000000000000000000000000000000000602082015250565b6000612420602283611916565b915061242b826123c4565b604082019050919050565b6000602082019050818103600083015261244f81612413565b9050919050565b600061246182611420565b915061246c83611420565b925082820261247a81611420565b9150828204841483151761249157612490611884565b5b5092915050565b7f64732d6d6174682d6d756c2d6f766572666c6f77000000000000000000000000600082015250565b60006124ce601483611916565b91506124d982612498565b602082019050919050565b600060208201905081810360008301526124fd816124c1565b9050919050565b7f64732d6d6174682d6164642d6f766572666c6f77000000000000000000000000600082015250565b600061253a601483611916565b915061254582612504565b602082019050919050565b600060208201905081810360008301526125698161252d565b905091905056fea26469706673582212207c06d5522f30eeb9d609b207e352a601d139b81b680350a93f3e9d58614e9b1b64736f6c63430008110033","opcodes":"PUSH1 0xC0 PUSH1 0x40 MSTORE CALLVALUE DUP1 ISZERO PUSH3 0x11 JUMPI PUSH1 0x0 DUP1 REVERT JUMPDEST POP PUSH1 0x40 MLOAD PUSH3 0x2769 CODESIZE SUB DUP1 PUSH3 0x2769 DUP4 CODECOPY DUP2 DUP2 ADD PUSH1 0x40 MSTORE DUP2 ADD SWAP1 PUSH3 0x37 SWAP2 SWAP1 PUSH3 0x111 JUMP JUMPDEST DUP2 PUSH20 0xFFFFFFFFFFFFFFFFFFFFFFFFFFFFFFFFFFFFFFFF AND PUSH1 0x80 DUP2 PUSH20 0xFFFFFFFFFFFFFFFFFFFFFFFFFFFFFFFFFFFFFFFF AND DUP2 MSTORE POP POP DUP1 PUSH20 0xFFFFFFFFFFFFFFFFFFFFFFFFFFFFFFFFFFFFFFFF AND PUSH1 0xA0 DUP2 PUSH20 0xFFFFFFFFFFFFFFFFFFFFFFFFFFFFFFFFFFFFFFFF AND DUP2 MSTORE POP POP POP POP PUSH3 0x158 JUMP JUMPDEST PUSH1 0x0 DUP1 REVERT JUMPDEST PUSH1 0x0 PUSH20 0xFFFFFFFFFFFFFFFFFFFFFFFFFFFFFFFFFFFFFFFF DUP3 AND SWAP1 POP SWAP2 SWAP1 POP JUMP JUMPDEST PUSH1 0x0 PUSH3 0xD9 DUP3 PUSH3 0xAC JUMP JUMPDEST SWAP1 POP SWAP2 SWAP1 POP JUMP JUMPDEST PUSH3 0xEB DUP2 PUSH3 0xCC JUMP JUMPDEST DUP2 EQ PUSH3 0xF7 JUMPI PUSH1 0x0 DUP1 REVERT JUMPDEST POP JUMP JUMPDEST PUSH1 0x0 DUP2 MLOAD SWAP1 POP PUSH3 0x10B DUP2 PUSH3 0xE0 JUMP JUMPDEST SWAP3 SWAP2 POP POP JUMP JUMPDEST PUSH1 0x0 DUP1 PUSH1 0x40 DUP4 DUP6 SUB SLT ISZERO PUSH3 0x12B JUMPI PUSH3 0x12A PUSH3 0xA7 JUMP JUMPDEST JUMPDEST PUSH1 0x0 PUSH3 0x13B DUP6 DUP3 DUP7 ADD PUSH3 0xFA JUMP JUMPDEST SWAP3 POP POP PUSH1 0x20 PUSH3 0x14E DUP6 DUP3 DUP7 ADD PUSH3 0xFA JUMP JUMPDEST SWAP2 POP POP SWAP3 POP SWAP3 SWAP1 POP JUMP JUMPDEST PUSH1 0x80 MLOAD PUSH1 0xA0 MLOAD PUSH2 0x25A6 PUSH3 0x1C3 PUSH1 0x0 CODECOPY PUSH1 0x0 DUP2 DUP2 PUSH1 0x55 ADD MSTORE PUSH2 0x3C1 ADD MSTORE PUSH1 0x0 DUP2 DUP2 PUSH2 0x1CD ADD MSTORE DUP2 DUP2 PUSH2 0x2D2 ADD MSTORE DUP2 DUP2 PUSH2 0x3ED ADD MSTORE DUP2 DUP2 PUSH2 0x604 ADD MSTORE DUP2 DUP2 PUSH2 0x648 ADD MSTORE DUP2 DUP2 PUSH2 0xB4D ADD MSTORE DUP2 DUP2 PUSH2 0xBA1 ADD MSTORE DUP2 DUP2 PUSH2 0xDED ADD MSTORE DUP2 DUP2 PUSH2 0xEA4 ADD MSTORE PUSH2 0xF4A ADD MSTORE PUSH2 0x25A6 PUSH1 0x0 RETURN INVALID PUSH1 0x80 PUSH1 0x40 MSTORE PUSH1 0x4 CALLDATASIZE LT PUSH2 0x4E JUMPI PUSH1 0x0 CALLDATALOAD PUSH1 0xE0 SHR DUP1 PUSH4 0x38ED1739 EQ PUSH2 0xB6 JUMPI DUP1 PUSH4 0xAD5C4648 EQ PUSH2 0xF3 JUMPI DUP1 PUSH4 0xBAA2ABDE EQ PUSH2 0x11E JUMPI DUP1 PUSH4 0xC45A0155 EQ PUSH2 0x15C JUMPI DUP1 PUSH4 0xE8E33700 EQ PUSH2 0x187 JUMPI PUSH2 0xB1 JUMP JUMPDEST CALLDATASIZE PUSH2 0xB1 JUMPI PUSH32 0x0 PUSH20 0xFFFFFFFFFFFFFFFFFFFFFFFFFFFFFFFFFFFFFFFF AND CALLER PUSH20 0xFFFFFFFFFFFFFFFFFFFFFFFFFFFFFFFFFFFFFFFF AND EQ PUSH2 0xAF JUMPI PUSH2 0xAE PUSH2 0x13E7 JUMP JUMPDEST JUMPDEST STOP JUMPDEST PUSH1 0x0 DUP1 REVERT JUMPDEST CALLVALUE DUP1 ISZERO PUSH2 0xC2 JUMPI PUSH1 0x0 DUP1 REVERT JUMPDEST POP PUSH2 0xDD PUSH1 0x4 DUP1 CALLDATASIZE SUB DUP2 ADD SWAP1 PUSH2 0xD8 SWAP2 SWAP1 PUSH2 0x1519 JUMP JUMPDEST PUSH2 0x1C6 JUMP JUMPDEST PUSH1 0x40 MLOAD PUSH2 0xEA SWAP2 SWAP1 PUSH2 0x1671 JUMP JUMPDEST PUSH1 0x40 MLOAD DUP1 SWAP2 SUB SWAP1 RETURN JUMPDEST CALLVALUE DUP1 ISZERO PUSH2 0xFF JUMPI PUSH1 0x0 DUP1 REVERT JUMPDEST POP PUSH2 0x108 PUSH2 0x3BF JUMP JUMPDEST PUSH1 0x40 MLOAD PUSH2 0x115 SWAP2 SWAP1 PUSH2 0x16A2 JUMP JUMPDEST PUSH1 0x40 MLOAD DUP1 SWAP2 SUB SWAP1 RETURN JUMPDEST CALLVALUE DUP1 ISZERO PUSH2 0x12A JUMPI PUSH1 0x0 DUP1 REVERT JUMPDEST POP PUSH2 0x145 PUSH1 0x4 DUP1 CALLDATASIZE SUB DUP2 ADD SWAP1 PUSH2 0x140 SWAP2 SWAP1 PUSH2 0x16BD JUMP JUMPDEST PUSH2 0x3E3 JUMP JUMPDEST PUSH1 0x40 MLOAD PUSH2 0x153 SWAP3 SWAP2 SWAP1 PUSH2 0x176E JUMP JUMPDEST PUSH1 0x40 MLOAD DUP1 SWAP2 SUB SWAP1 RETURN JUMPDEST CALLVALUE DUP1 ISZERO PUSH2 0x168 JUMPI PUSH1 0x0 DUP1 REVERT JUMPDEST POP PUSH2 0x171 PUSH2 0x602 JUMP JUMPDEST PUSH1 0x40 MLOAD PUSH2 0x17E SWAP2 SWAP1 PUSH2 0x16A2 JUMP JUMPDEST PUSH1 0x40 MLOAD DUP1 SWAP2 SUB SWAP1 RETURN JUMPDEST CALLVALUE DUP1 ISZERO PUSH2 0x193 JUMPI PUSH1 0x0 DUP1 REVERT JUMPDEST POP PUSH2 0x1AE PUSH1 0x4 DUP1 CALLDATASIZE SUB DUP2 ADD SWAP1 PUSH2 0x1A9 SWAP2 SWAP1 PUSH2 0x1797 JUMP JUMPDEST PUSH2 0x626 JUMP JUMPDEST PUSH1 0x40 MLOAD PUSH2 0x1BD SWAP4 SWAP3 SWAP2 SWAP1 PUSH2 0x184D JUMP JUMPDEST PUSH1 0x40 MLOAD DUP1 SWAP2 SUB SWAP1 RETURN JUMPDEST PUSH1 0x60 PUSH2 0x234 PUSH32 0x0 DUP9 DUP8 DUP8 DUP1 DUP1 PUSH1 0x20 MUL PUSH1 0x20 ADD PUSH1 0x40 MLOAD SWAP1 DUP2 ADD PUSH1 0x40 MSTORE DUP1 SWAP4 SWAP3 SWAP2 SWAP1 DUP2 DUP2 MSTORE PUSH1 0x20 ADD DUP4 DUP4 PUSH1 0x20 MUL DUP1 DUP3 DUP5 CALLDATACOPY PUSH1 0x0 DUP2 DUP5 ADD MSTORE PUSH1 0x1F NOT PUSH1 0x1F DUP3 ADD AND SWAP1 POP DUP1 DUP4 ADD SWAP3 POP POP POP POP POP POP POP PUSH2 0x715 JUMP JUMPDEST SWAP1 POP DUP6 DUP2 PUSH1 0x1 DUP4 MLOAD PUSH2 0x246 SWAP2 SWAP1 PUSH2 0x18B3 JUMP JUMPDEST DUP2 MLOAD DUP2 LT PUSH2 0x257 JUMPI PUSH2 0x256 PUSH2 0x18E7 JUMP JUMPDEST JUMPDEST PUSH1 0x20 MUL PUSH1 0x20 ADD ADD MLOAD LT ISZERO PUSH2 0x2A0 JUMPI PUSH1 0x40 MLOAD PUSH32 0x8C379A000000000000000000000000000000000000000000000000000000000 DUP2 MSTORE PUSH1 0x4 ADD PUSH2 0x297 SWAP1 PUSH2 0x1999 JUMP JUMPDEST PUSH1 0x40 MLOAD DUP1 SWAP2 SUB SWAP1 REVERT JUMPDEST PUSH2 0x369 DUP6 DUP6 PUSH1 0x0 DUP2 DUP2 LT PUSH2 0x2B7 JUMPI PUSH2 0x2B6 PUSH2 0x18E7 JUMP JUMPDEST JUMPDEST SWAP1 POP PUSH1 0x20 MUL ADD PUSH1 0x20 DUP2 ADD SWAP1 PUSH2 0x2CC SWAP2 SWAP1 PUSH2 0x19B9 JUMP JUMPDEST CALLER PUSH2 0x348 PUSH32 0x0 DUP10 DUP10 PUSH1 0x0 DUP2 DUP2 LT PUSH2 0x305 JUMPI PUSH2 0x304 PUSH2 0x18E7 JUMP JUMPDEST JUMPDEST SWAP1 POP PUSH1 0x20 MUL ADD PUSH1 0x20 DUP2 ADD SWAP1 PUSH2 0x31A SWAP2 SWAP1 PUSH2 0x19B9 JUMP JUMPDEST DUP11 DUP11 PUSH1 0x1 DUP2 DUP2 LT PUSH2 0x32E JUMPI PUSH2 0x32D PUSH2 0x18E7 JUMP JUMPDEST JUMPDEST SWAP1 POP PUSH1 0x20 MUL ADD PUSH1 0x20 DUP2 ADD SWAP1 PUSH2 0x343 SWAP2 SWAP1 PUSH2 0x19B9 JUMP JUMPDEST PUSH2 0x8A0 JUMP JUMPDEST DUP5 PUSH1 0x0 DUP2 MLOAD DUP2 LT PUSH2 0x35C JUMPI PUSH2 0x35B PUSH2 0x18E7 JUMP JUMPDEST JUMPDEST PUSH1 0x20 MUL PUSH1 0x20 ADD ADD MLOAD PUSH2 0x912 JUMP JUMPDEST PUSH2 0x3B5 DUP2 DUP7 DUP7 DUP1 DUP1 PUSH1 0x20 MUL PUSH1 0x20 ADD PUSH1 0x40 MLOAD SWAP1 DUP2 ADD PUSH1 0x40 MSTORE DUP1 SWAP4 SWAP3 SWAP2 SWAP1 DUP2 DUP2 MSTORE PUSH1 0x20 ADD DUP4 DUP4 PUSH1 0x20 MUL DUP1 DUP3 DUP5 CALLDATACOPY PUSH1 0x0 DUP2 DUP5 ADD MSTORE PUSH1 0x1F NOT PUSH1 0x1F DUP3 ADD AND SWAP1 POP DUP1 DUP4 ADD SWAP3 POP POP POP POP POP POP POP DUP6 PUSH2 0xA4B JUMP JUMPDEST SWAP7 SWAP6 POP POP POP POP POP POP JUMP JUMPDEST PUSH32 0x0 DUP2 JUMP JUMPDEST PUSH1 0x0 DUP1 PUSH1 0x0 PUSH2 0x413 PUSH32 0x0 DUP12 DUP12 PUSH2 0x8A0 JUMP JUMPDEST SWAP1 POP DUP1 PUSH20 0xFFFFFFFFFFFFFFFFFFFFFFFFFFFFFFFFFFFFFFFF AND PUSH4 0x23B872DD CALLER DUP4 DUP12 PUSH1 0x40 MLOAD DUP5 PUSH4 0xFFFFFFFF AND PUSH1 0xE0 SHL DUP2 MSTORE PUSH1 0x4 ADD PUSH2 0x452 SWAP4 SWAP3 SWAP2 SWAP1 PUSH2 0x19E6 JUMP JUMPDEST PUSH1 0x20 PUSH1 0x40 MLOAD DUP1 DUP4 SUB DUP2 PUSH1 0x0 DUP8 GAS CALL ISZERO DUP1 ISZERO PUSH2 0x471 JUMPI RETURNDATASIZE PUSH1 0x0 DUP1 RETURNDATACOPY RETURNDATASIZE PUSH1 0x0 REVERT JUMPDEST POP POP POP POP PUSH1 0x40 MLOAD RETURNDATASIZE PUSH1 0x1F NOT PUSH1 0x1F DUP3 ADD AND DUP3 ADD DUP1 PUSH1 0x40 MSTORE POP DUP2 ADD SWAP1 PUSH2 0x495 SWAP2 SWAP1 PUSH2 0x1A55 JUMP JUMPDEST POP PUSH1 0x0 DUP1 DUP3 PUSH20 0xFFFFFFFFFFFFFFFFFFFFFFFFFFFFFFFFFFFFFFFF AND PUSH4 0x89AFCB44 DUP9 PUSH1 0x40 MLOAD DUP3 PUSH4 0xFFFFFFFF AND PUSH1 0xE0 SHL DUP2 MSTORE PUSH1 0x4 ADD PUSH2 0x4D2 SWAP2 SWAP1 PUSH2 0x16A2 JUMP JUMPDEST PUSH1 0x40 DUP1 MLOAD DUP1 DUP4 SUB DUP2 PUSH1 0x0 DUP8 GAS CALL ISZERO DUP1 ISZERO PUSH2 0x4F0 JUMPI RETURNDATASIZE PUSH1 0x0 DUP1 RETURNDATACOPY RETURNDATASIZE PUSH1 0x0 REVERT JUMPDEST POP POP POP POP PUSH1 0x40 MLOAD RETURNDATASIZE PUSH1 0x1F NOT PUSH1 0x1F DUP3 ADD AND DUP3 ADD DUP1 PUSH1 0x40 MSTORE POP DUP2 ADD SWAP1 PUSH2 0x514 SWAP2 SWAP1 PUSH2 0x1A97 JUMP JUMPDEST SWAP2 POP SWAP2 POP PUSH1 0x0 PUSH2 0x524 DUP14 DUP14 PUSH2 0xCA4 JUMP JUMPDEST POP SWAP1 POP DUP1 PUSH20 0xFFFFFFFFFFFFFFFFFFFFFFFFFFFFFFFFFFFFFFFF AND DUP14 PUSH20 0xFFFFFFFFFFFFFFFFFFFFFFFFFFFFFFFFFFFFFFFF AND EQ PUSH2 0x561 JUMPI DUP2 DUP4 PUSH2 0x564 JUMP JUMPDEST DUP3 DUP3 JUMPDEST DUP1 SWAP7 POP DUP2 SWAP8 POP POP POP DUP10 DUP7 LT ISZERO PUSH2 0x5AF JUMPI PUSH1 0x40 MLOAD PUSH32 0x8C379A000000000000000000000000000000000000000000000000000000000 DUP2 MSTORE PUSH1 0x4 ADD PUSH2 0x5A6 SWAP1 PUSH2 0x1B49 JUMP JUMPDEST PUSH1 0x40 MLOAD DUP1 SWAP2 SUB SWAP1 REVERT JUMPDEST DUP9 DUP6 LT ISZERO PUSH2 0x5F2 JUMPI PUSH1 0x40 MLOAD PUSH32 0x8C379A000000000000000000000000000000000000000000000000000000000 DUP2 MSTORE PUSH1 0x4 ADD PUSH2 0x5E9 SWAP1 PUSH2 0x1BDB JUMP JUMPDEST PUSH1 0x40 MLOAD DUP1 SWAP2 SUB SWAP1 REVERT JUMPDEST POP POP POP POP SWAP8 POP SWAP8 SWAP6 POP POP POP POP POP POP JUMP JUMPDEST PUSH32 0x0 DUP2 JUMP JUMPDEST PUSH1 0x0 DUP1 PUSH1 0x0 PUSH2 0x639 DUP12 DUP12 DUP12 DUP12 DUP12 DUP12 PUSH2 0xDD0 JUMP JUMPDEST DUP1 SWAP4 POP DUP2 SWAP5 POP POP POP PUSH1 0x0 PUSH2 0x66E PUSH32 0x0 DUP14 DUP14 PUSH2 0x8A0 JUMP JUMPDEST SWAP1 POP PUSH2 0x67C DUP13 CALLER DUP4 DUP8 PUSH2 0x912 JUMP JUMPDEST PUSH2 0x688 DUP12 CALLER DUP4 DUP7 PUSH2 0x912 JUMP JUMPDEST DUP1 PUSH20 0xFFFFFFFFFFFFFFFFFFFFFFFFFFFFFFFFFFFFFFFF AND PUSH4 0x6A627842 DUP8 PUSH1 0x40 MLOAD DUP3 PUSH4 0xFFFFFFFF AND PUSH1 0xE0 SHL DUP2 MSTORE PUSH1 0x4 ADD PUSH2 0x6C1 SWAP2 SWAP1 PUSH2 0x16A2 JUMP JUMPDEST PUSH1 0x20 PUSH1 0x40 MLOAD DUP1 DUP4 SUB DUP2 PUSH1 0x0 DUP8 GAS CALL ISZERO DUP1 ISZERO PUSH2 0x6E0 JUMPI RETURNDATASIZE PUSH1 0x0 DUP1 RETURNDATACOPY RETURNDATASIZE PUSH1 0x0 REVERT JUMPDEST POP POP POP POP PUSH1 0x40 MLOAD RETURNDATASIZE PUSH1 0x1F NOT PUSH1 0x1F DUP3 ADD AND DUP3 ADD DUP1 PUSH1 0x40 MSTORE POP DUP2 ADD SWAP1 PUSH2 0x704 SWAP2 SWAP1 PUSH2 0x1BFB JUMP JUMPDEST SWAP2 POP POP SWAP9 POP SWAP9 POP SWAP9 SWAP6 POP POP POP POP POP POP JUMP JUMPDEST PUSH1 0x60 PUSH1 0x2 DUP3 MLOAD LT ISZERO PUSH2 0x75C JUMPI PUSH1 0x40 MLOAD PUSH32 0x8C379A000000000000000000000000000000000000000000000000000000000 DUP2 MSTORE PUSH1 0x4 ADD PUSH2 0x753 SWAP1 PUSH2 0x1C74 JUMP JUMPDEST PUSH1 0x40 MLOAD DUP1 SWAP2 SUB SWAP1 REVERT JUMPDEST DUP2 MLOAD PUSH8 0xFFFFFFFFFFFFFFFF DUP2 GT ISZERO PUSH2 0x777 JUMPI PUSH2 0x776 PUSH2 0x1C94 JUMP JUMPDEST JUMPDEST PUSH1 0x40 MLOAD SWAP1 DUP1 DUP3 MSTORE DUP1 PUSH1 0x20 MUL PUSH1 0x20 ADD DUP3 ADD PUSH1 0x40 MSTORE DUP1 ISZERO PUSH2 0x7A5 JUMPI DUP2 PUSH1 0x20 ADD PUSH1 0x20 DUP3 MUL DUP1 CALLDATASIZE DUP4 CALLDATACOPY DUP1 DUP3 ADD SWAP2 POP POP SWAP1 POP JUMPDEST POP SWAP1 POP DUP3 DUP2 PUSH1 0x0 DUP2 MLOAD DUP2 LT PUSH2 0x7BD JUMPI PUSH2 0x7BC PUSH2 0x18E7 JUMP JUMPDEST JUMPDEST PUSH1 0x20 MUL PUSH1 0x20 ADD ADD DUP2 DUP2 MSTORE POP POP PUSH1 0x0 JUMPDEST PUSH1 0x1 DUP4 MLOAD PUSH2 0x7DA SWAP2 SWAP1 PUSH2 0x18B3 JUMP JUMPDEST DUP2 LT ISZERO PUSH2 0x898 JUMPI PUSH1 0x0 DUP1 PUSH2 0x82F DUP8 DUP7 DUP6 DUP2 MLOAD DUP2 LT PUSH2 0x7FB JUMPI PUSH2 0x7FA PUSH2 0x18E7 JUMP JUMPDEST JUMPDEST PUSH1 0x20 MUL PUSH1 0x20 ADD ADD MLOAD DUP8 PUSH1 0x1 DUP8 PUSH2 0x811 SWAP2 SWAP1 PUSH2 0x1CC3 JUMP JUMPDEST DUP2 MLOAD DUP2 LT PUSH2 0x822 JUMPI PUSH2 0x821 PUSH2 0x18E7 JUMP JUMPDEST JUMPDEST PUSH1 0x20 MUL PUSH1 0x20 ADD ADD MLOAD PUSH2 0x107E JUMP JUMPDEST SWAP2 POP SWAP2 POP PUSH2 0x858 DUP5 DUP5 DUP2 MLOAD DUP2 LT PUSH2 0x849 JUMPI PUSH2 0x848 PUSH2 0x18E7 JUMP JUMPDEST JUMPDEST PUSH1 0x20 MUL PUSH1 0x20 ADD ADD MLOAD DUP4 DUP4 PUSH2 0x1161 JUMP JUMPDEST DUP5 PUSH1 0x1 DUP6 PUSH2 0x866 SWAP2 SWAP1 PUSH2 0x1CC3 JUMP JUMPDEST DUP2 MLOAD DUP2 LT PUSH2 0x877 JUMPI PUSH2 0x876 PUSH2 0x18E7 JUMP JUMPDEST JUMPDEST PUSH1 0x20 MUL PUSH1 0x20 ADD ADD DUP2 DUP2 MSTORE POP POP POP POP DUP1 DUP1 PUSH2 0x890 SWAP1 PUSH2 0x1CF7 JUMP JUMPDEST SWAP2 POP POP PUSH2 0x7CC JUMP JUMPDEST POP SWAP4 SWAP3 POP POP POP JUMP JUMPDEST PUSH1 0x0 DUP1 PUSH1 0x0 PUSH2 0x8AF DUP6 DUP6 PUSH2 0xCA4 JUMP JUMPDEST SWAP2 POP SWAP2 POP DUP6 DUP3 DUP3 PUSH1 0x40 MLOAD PUSH1 0x20 ADD PUSH2 0x8C7 SWAP3 SWAP2 SWAP1 PUSH2 0x1D87 JUMP JUMPDEST PUSH1 0x40 MLOAD PUSH1 0x20 DUP2 DUP4 SUB SUB DUP2 MSTORE SWAP1 PUSH1 0x40 MSTORE DUP1 MLOAD SWAP1 PUSH1 0x20 ADD KECCAK256 PUSH1 0x40 MLOAD PUSH1 0x20 ADD PUSH2 0x8EE SWAP3 SWAP2 SWAP1 PUSH2 0x1E81 JUMP JUMPDEST PUSH1 0x40 MLOAD PUSH1 0x20 DUP2 DUP4 SUB SUB DUP2 MSTORE SWAP1 PUSH1 0x40 MSTORE DUP1 MLOAD SWAP1 PUSH1 0x20 ADD KECCAK256 PUSH1 0x0 SHR SWAP3 POP POP POP SWAP4 SWAP3 POP POP POP JUMP JUMPDEST PUSH1 0x0 DUP1 DUP6 PUSH20 0xFFFFFFFFFFFFFFFFFFFFFFFFFFFFFFFFFFFFFFFF AND PUSH4 0x23B872DD DUP7 DUP7 DUP7 PUSH1 0x40 MLOAD PUSH1 0x24 ADD PUSH2 0x946 SWAP4 SWAP3 SWAP2 SWAP1 PUSH2 0x19E6 JUMP JUMPDEST PUSH1 0x40 MLOAD PUSH1 0x20 DUP2 DUP4 SUB SUB DUP2 MSTORE SWAP1 PUSH1 0x40 MSTORE SWAP1 PUSH1 0xE0 SHL PUSH1 0x20 DUP3 ADD DUP1 MLOAD PUSH28 0xFFFFFFFFFFFFFFFFFFFFFFFFFFFFFFFFFFFFFFFFFFFFFFFFFFFFFFFF DUP4 DUP2 DUP4 AND OR DUP4 MSTORE POP POP POP POP PUSH1 0x40 MLOAD PUSH2 0x994 SWAP2 SWAP1 PUSH2 0x1F34 JUMP JUMPDEST PUSH1 0x0 PUSH1 0x40 MLOAD DUP1 DUP4 SUB DUP2 PUSH1 0x0 DUP7 GAS CALL SWAP2 POP POP RETURNDATASIZE DUP1 PUSH1 0x0 DUP2 EQ PUSH2 0x9D1 JUMPI PUSH1 0x40 MLOAD SWAP2 POP PUSH1 0x1F NOT PUSH1 0x3F RETURNDATASIZE ADD AND DUP3 ADD PUSH1 0x40 MSTORE RETURNDATASIZE DUP3 MSTORE RETURNDATASIZE PUSH1 0x0 PUSH1 0x20 DUP5 ADD RETURNDATACOPY PUSH2 0x9D6 JUMP JUMPDEST PUSH1 0x60 SWAP2 POP JUMPDEST POP SWAP2 POP SWAP2 POP DUP2 DUP1 ISZERO PUSH2 0xA04 JUMPI POP PUSH1 0x0 DUP2 MLOAD EQ DUP1 PUSH2 0xA03 JUMPI POP DUP1 DUP1 PUSH1 0x20 ADD SWAP1 MLOAD DUP2 ADD SWAP1 PUSH2 0xA02 SWAP2 SWAP1 PUSH2 0x1A55 JUMP JUMPDEST JUMPDEST JUMPDEST PUSH2 0xA43 JUMPI PUSH1 0x40 MLOAD PUSH32 0x8C379A000000000000000000000000000000000000000000000000000000000 DUP2 MSTORE PUSH1 0x4 ADD PUSH2 0xA3A SWAP1 PUSH2 0x1FBD JUMP JUMPDEST PUSH1 0x40 MLOAD DUP1 SWAP2 SUB SWAP1 REVERT JUMPDEST POP POP POP POP POP POP JUMP JUMPDEST PUSH1 0x0 JUMPDEST PUSH1 0x1 DUP4 MLOAD PUSH2 0xA5C SWAP2 SWAP1 PUSH2 0x18B3 JUMP JUMPDEST DUP2 LT ISZERO PUSH2 0xC9E JUMPI PUSH1 0x0 DUP1 DUP5 DUP4 DUP2 MLOAD DUP2 LT PUSH2 0xA79 JUMPI PUSH2 0xA78 PUSH2 0x18E7 JUMP JUMPDEST JUMPDEST PUSH1 0x20 MUL PUSH1 0x20 ADD ADD MLOAD DUP6 PUSH1 0x1 DUP6 PUSH2 0xA8F SWAP2 SWAP1 PUSH2 0x1CC3 JUMP JUMPDEST DUP2 MLOAD DUP2 LT PUSH2 0xAA0 JUMPI PUSH2 0xA9F PUSH2 0x18E7 JUMP JUMPDEST JUMPDEST PUSH1 0x20 MUL PUSH1 0x20 ADD ADD MLOAD SWAP2 POP SWAP2 POP PUSH1 0x0 PUSH2 0xAB8 DUP4 DUP4 PUSH2 0xCA4 JUMP JUMPDEST POP SWAP1 POP PUSH1 0x0 DUP8 PUSH1 0x1 DUP7 PUSH2 0xACB SWAP2 SWAP1 PUSH2 0x1CC3 JUMP JUMPDEST DUP2 MLOAD DUP2 LT PUSH2 0xADC JUMPI PUSH2 0xADB PUSH2 0x18E7 JUMP JUMPDEST JUMPDEST PUSH1 0x20 MUL PUSH1 0x20 ADD ADD MLOAD SWAP1 POP PUSH1 0x0 DUP1 DUP4 PUSH20 0xFFFFFFFFFFFFFFFFFFFFFFFFFFFFFFFFFFFFFFFF AND DUP7 PUSH20 0xFFFFFFFFFFFFFFFFFFFFFFFFFFFFFFFFFFFFFFFF AND EQ PUSH2 0xB24 JUMPI DUP3 PUSH1 0x0 PUSH2 0xB28 JUMP JUMPDEST PUSH1 0x0 DUP4 JUMPDEST SWAP2 POP SWAP2 POP PUSH1 0x0 PUSH1 0x2 DUP11 MLOAD PUSH2 0xB3C SWAP2 SWAP1 PUSH2 0x18B3 JUMP JUMPDEST DUP9 LT PUSH2 0xB48 JUMPI DUP9 PUSH2 0xB9A JUMP JUMPDEST PUSH2 0xB99 PUSH32 0x0 DUP8 DUP13 PUSH1 0x2 DUP13 PUSH2 0xB7B SWAP2 SWAP1 PUSH2 0x1CC3 JUMP JUMPDEST DUP2 MLOAD DUP2 LT PUSH2 0xB8C JUMPI PUSH2 0xB8B PUSH2 0x18E7 JUMP JUMPDEST JUMPDEST PUSH1 0x20 MUL PUSH1 0x20 ADD ADD MLOAD PUSH2 0x8A0 JUMP JUMPDEST JUMPDEST SWAP1 POP PUSH2 0xBC7 PUSH32 0x0 DUP9 DUP9 PUSH2 0x8A0 JUMP JUMPDEST PUSH20 0xFFFFFFFFFFFFFFFFFFFFFFFFFFFFFFFFFFFFFFFF AND PUSH4 0x22C0D9F DUP5 DUP5 DUP5 PUSH1 0x0 PUSH8 0xFFFFFFFFFFFFFFFF DUP2 GT ISZERO PUSH2 0xC00 JUMPI PUSH2 0xBFF PUSH2 0x1C94 JUMP JUMPDEST JUMPDEST PUSH1 0x40 MLOAD SWAP1 DUP1 DUP3 MSTORE DUP1 PUSH1 0x1F ADD PUSH1 0x1F NOT AND PUSH1 0x20 ADD DUP3 ADD PUSH1 0x40 MSTORE DUP1 ISZERO PUSH2 0xC32 JUMPI DUP2 PUSH1 0x20 ADD PUSH1 0x1 DUP3 MUL DUP1 CALLDATASIZE DUP4 CALLDATACOPY DUP1 DUP3 ADD SWAP2 POP POP SWAP1 POP JUMPDEST POP PUSH1 0x40 MLOAD DUP6 PUSH4 0xFFFFFFFF AND PUSH1 0xE0 SHL DUP2 MSTORE PUSH1 0x4 ADD PUSH2 0xC52 SWAP5 SWAP4 SWAP3 SWAP2 SWAP1 PUSH2 0x2038 JUMP JUMPDEST PUSH1 0x0 PUSH1 0x40 MLOAD DUP1 DUP4 SUB DUP2 PUSH1 0x0 DUP8 DUP1 EXTCODESIZE ISZERO DUP1 ISZERO PUSH2 0xC6C JUMPI PUSH1 0x0 DUP1 REVERT JUMPDEST POP GAS CALL ISZERO DUP1 ISZERO PUSH2 0xC80 JUMPI RETURNDATASIZE PUSH1 0x0 DUP1 RETURNDATACOPY RETURNDATASIZE PUSH1 0x0 REVERT JUMPDEST POP POP POP POP POP POP POP POP POP POP POP DUP1 DUP1 PUSH2 0xC96 SWAP1 PUSH2 0x1CF7 JUMP JUMPDEST SWAP2 POP POP PUSH2 0xA4E JUMP JUMPDEST POP POP POP POP JUMP JUMPDEST PUSH1 0x0 DUP1 DUP3 PUSH20 0xFFFFFFFFFFFFFFFFFFFFFFFFFFFFFFFFFFFFFFFF AND DUP5 PUSH20 0xFFFFFFFFFFFFFFFFFFFFFFFFFFFFFFFFFFFFFFFF AND SUB PUSH2 0xD15 JUMPI PUSH1 0x40 MLOAD PUSH32 0x8C379A000000000000000000000000000000000000000000000000000000000 DUP2 MSTORE PUSH1 0x4 ADD PUSH2 0xD0C SWAP1 PUSH2 0x20F6 JUMP JUMPDEST PUSH1 0x40 MLOAD DUP1 SWAP2 SUB SWAP1 REVERT JUMPDEST DUP3 PUSH20 0xFFFFFFFFFFFFFFFFFFFFFFFFFFFFFFFFFFFFFFFF AND DUP5 PUSH20 0xFFFFFFFFFFFFFFFFFFFFFFFFFFFFFFFFFFFFFFFF AND LT PUSH2 0xD4F JUMPI DUP3 DUP5 PUSH2 0xD52 JUMP JUMPDEST DUP4 DUP4 JUMPDEST DUP1 SWAP3 POP DUP2 SWAP4 POP POP POP PUSH1 0x0 PUSH20 0xFFFFFFFFFFFFFFFFFFFFFFFFFFFFFFFFFFFFFFFF AND DUP3 PUSH20 0xFFFFFFFFFFFFFFFFFFFFFFFFFFFFFFFFFFFFFFFF AND SUB PUSH2 0xDC9 JUMPI PUSH1 0x40 MLOAD PUSH32 0x8C379A000000000000000000000000000000000000000000000000000000000 DUP2 MSTORE PUSH1 0x4 ADD PUSH2 0xDC0 SWAP1 PUSH2 0x2162 JUMP JUMPDEST PUSH1 0x40 MLOAD DUP1 SWAP2 SUB SWAP1 REVERT JUMPDEST SWAP3 POP SWAP3 SWAP1 POP JUMP JUMPDEST PUSH1 0x0 DUP1 PUSH1 0x0 PUSH20 0xFFFFFFFFFFFFFFFFFFFFFFFFFFFFFFFFFFFFFFFF AND PUSH32 0x0 PUSH20 0xFFFFFFFFFFFFFFFFFFFFFFFFFFFFFFFFFFFFFFFF AND PUSH4 0xE6A43905 DUP11 DUP11 PUSH1 0x40 MLOAD DUP4 PUSH4 0xFFFFFFFF AND PUSH1 0xE0 SHL DUP2 MSTORE PUSH1 0x4 ADD PUSH2 0xE46 SWAP3 SWAP2 SWAP1 PUSH2 0x2182 JUMP JUMPDEST PUSH1 0x20 PUSH1 0x40 MLOAD DUP1 DUP4 SUB DUP2 DUP7 GAS STATICCALL ISZERO DUP1 ISZERO PUSH2 0xE63 JUMPI RETURNDATASIZE PUSH1 0x0 DUP1 RETURNDATACOPY RETURNDATASIZE PUSH1 0x0 REVERT JUMPDEST POP POP POP POP PUSH1 0x40 MLOAD RETURNDATASIZE PUSH1 0x1F NOT PUSH1 0x1F DUP3 ADD AND DUP3 ADD DUP1 PUSH1 0x40 MSTORE POP DUP2 ADD SWAP1 PUSH2 0xE87 SWAP2 SWAP1 PUSH2 0x21C0 JUMP JUMPDEST PUSH20 0xFFFFFFFFFFFFFFFFFFFFFFFFFFFFFFFFFFFFFFFF AND SUB PUSH2 0xF42 JUMPI PUSH32 0x0 PUSH20 0xFFFFFFFFFFFFFFFFFFFFFFFFFFFFFFFFFFFFFFFF AND PUSH4 0xC9C65396 DUP10 DUP10 PUSH1 0x40 MLOAD DUP4 PUSH4 0xFFFFFFFF AND PUSH1 0xE0 SHL DUP2 MSTORE PUSH1 0x4 ADD PUSH2 0xEFD SWAP3 SWAP2 SWAP1 PUSH2 0x2182 JUMP JUMPDEST PUSH1 0x20 PUSH1 0x40 MLOAD DUP1 DUP4 SUB DUP2 PUSH1 0x0 DUP8 GAS CALL ISZERO DUP1 ISZERO PUSH2 0xF1C JUMPI RETURNDATASIZE PUSH1 0x0 DUP1 RETURNDATACOPY RETURNDATASIZE PUSH1 0x0 REVERT JUMPDEST POP POP POP POP PUSH1 0x40 MLOAD RETURNDATASIZE PUSH1 0x1F NOT PUSH1 0x1F DUP3 ADD AND DUP3 ADD DUP1 PUSH1 0x40 MSTORE POP DUP2 ADD SWAP1 PUSH2 0xF40 SWAP2 SWAP1 PUSH2 0x21C0 JUMP JUMPDEST POP JUMPDEST PUSH1 0x0 DUP1 PUSH2 0xF70 PUSH32 0x0 DUP12 DUP12 PUSH2 0x107E JUMP JUMPDEST SWAP2 POP SWAP2 POP PUSH1 0x0 DUP3 EQ DUP1 ISZERO PUSH2 0xF84 JUMPI POP PUSH1 0x0 DUP2 EQ JUMPDEST ISZERO PUSH2 0xF98 JUMPI DUP8 DUP8 DUP1 SWAP5 POP DUP2 SWAP6 POP POP POP PUSH2 0x1071 JUMP JUMPDEST PUSH1 0x0 PUSH2 0xFA5 DUP10 DUP5 DUP5 PUSH2 0x1267 JUMP JUMPDEST SWAP1 POP DUP8 DUP2 GT PUSH2 0x1000 JUMPI DUP6 DUP2 LT ISZERO PUSH2 0xFF1 JUMPI PUSH1 0x40 MLOAD PUSH32 0x8C379A000000000000000000000000000000000000000000000000000000000 DUP2 MSTORE PUSH1 0x4 ADD PUSH2 0xFE8 SWAP1 PUSH2 0x1BDB JUMP JUMPDEST PUSH1 0x40 MLOAD DUP1 SWAP2 SUB SWAP1 REVERT JUMPDEST DUP9 DUP2 DUP1 SWAP6 POP DUP2 SWAP7 POP POP POP PUSH2 0x106F JUMP JUMPDEST PUSH1 0x0 PUSH2 0x100D DUP10 DUP5 DUP7 PUSH2 0x1267 JUMP JUMPDEST SWAP1 POP DUP10 DUP2 GT ISZERO PUSH2 0x1020 JUMPI PUSH2 0x101F PUSH2 0x13E7 JUMP JUMPDEST JUMPDEST DUP8 DUP2 LT ISZERO PUSH2 0x1063 JUMPI PUSH1 0x40 MLOAD PUSH32 0x8C379A000000000000000000000000000000000000000000000000000000000 DUP2 MSTORE PUSH1 0x4 ADD PUSH2 0x105A SWAP1 PUSH2 0x1B49 JUMP JUMPDEST PUSH1 0x40 MLOAD DUP1 SWAP2 SUB SWAP1 REVERT JUMPDEST DUP1 DUP10 DUP1 SWAP7 POP DUP2 SWAP8 POP POP POP POP JUMPDEST POP JUMPDEST POP POP SWAP7 POP SWAP7 SWAP5 POP POP POP POP POP JUMP JUMPDEST PUSH1 0x0 DUP1 PUSH1 0x0 PUSH2 0x108D DUP6 DUP6 PUSH2 0xCA4 JUMP JUMPDEST POP SWAP1 POP PUSH1 0x0 DUP1 PUSH2 0x109E DUP9 DUP9 DUP9 PUSH2 0x8A0 JUMP JUMPDEST PUSH20 0xFFFFFFFFFFFFFFFFFFFFFFFFFFFFFFFFFFFFFFFF AND PUSH4 0x902F1AC PUSH1 0x40 MLOAD DUP2 PUSH4 0xFFFFFFFF AND PUSH1 0xE0 SHL DUP2 MSTORE PUSH1 0x4 ADD PUSH1 0x60 PUSH1 0x40 MLOAD DUP1 DUP4 SUB DUP2 DUP7 GAS STATICCALL ISZERO DUP1 ISZERO PUSH2 0x10E8 JUMPI RETURNDATASIZE PUSH1 0x0 DUP1 RETURNDATACOPY RETURNDATASIZE PUSH1 0x0 REVERT JUMPDEST POP POP POP POP PUSH1 0x40 MLOAD RETURNDATASIZE PUSH1 0x1F NOT PUSH1 0x1F DUP3 ADD AND DUP3 ADD DUP1 PUSH1 0x40 MSTORE POP DUP2 ADD SWAP1 PUSH2 0x110C SWAP2 SWAP1 PUSH2 0x21ED JUMP JUMPDEST POP SWAP2 POP SWAP2 POP DUP3 PUSH20 0xFFFFFFFFFFFFFFFFFFFFFFFFFFFFFFFFFFFFFFFF AND DUP8 PUSH20 0xFFFFFFFFFFFFFFFFFFFFFFFFFFFFFFFFFFFFFFFF AND EQ PUSH2 0x114B JUMPI DUP1 DUP3 PUSH2 0x114E JUMP JUMPDEST DUP2 DUP2 JUMPDEST DUP1 SWAP6 POP DUP2 SWAP7 POP POP POP POP POP POP SWAP4 POP SWAP4 SWAP2 POP POP JUMP JUMPDEST PUSH1 0x0 DUP1 DUP5 GT PUSH2 0x11A5 JUMPI PUSH1 0x40 MLOAD PUSH32 0x8C379A000000000000000000000000000000000000000000000000000000000 DUP2 MSTORE PUSH1 0x4 ADD PUSH2 0x119C SWAP1 PUSH2 0x22B2 JUMP JUMPDEST PUSH1 0x40 MLOAD DUP1 SWAP2 SUB SWAP1 REVERT JUMPDEST PUSH1 0x0 DUP4 GT DUP1 ISZERO PUSH2 0x11B5 JUMPI POP PUSH1 0x0 DUP3 GT JUMPDEST PUSH2 0x11F4 JUMPI PUSH1 0x40 MLOAD PUSH32 0x8C379A000000000000000000000000000000000000000000000000000000000 DUP2 MSTORE PUSH1 0x4 ADD PUSH2 0x11EB SWAP1 PUSH2 0x2344 JUMP JUMPDEST PUSH1 0x40 MLOAD DUP1 SWAP2 SUB SWAP1 REVERT JUMPDEST PUSH1 0x0 PUSH2 0x120B PUSH2 0x3E5 DUP7 PUSH2 0x1321 SWAP1 SWAP2 SWAP1 PUSH4 0xFFFFFFFF AND JUMP JUMPDEST SWAP1 POP PUSH1 0x0 PUSH2 0x1222 DUP5 DUP4 PUSH2 0x1321 SWAP1 SWAP2 SWAP1 PUSH4 0xFFFFFFFF AND JUMP JUMPDEST SWAP1 POP PUSH1 0x0 PUSH2 0x124D DUP4 PUSH2 0x123F PUSH2 0x3E8 DUP10 PUSH2 0x1321 SWAP1 SWAP2 SWAP1 PUSH4 0xFFFFFFFF AND JUMP JUMPDEST PUSH2 0x138E SWAP1 SWAP2 SWAP1 PUSH4 0xFFFFFFFF AND JUMP JUMPDEST SWAP1 POP DUP1 DUP3 PUSH2 0x125B SWAP2 SWAP1 PUSH2 0x2393 JUMP JUMPDEST SWAP4 POP POP POP POP SWAP4 SWAP3 POP POP POP JUMP JUMPDEST PUSH1 0x0 DUP1 DUP5 GT PUSH2 0x12AB JUMPI PUSH1 0x40 MLOAD PUSH32 0x8C379A000000000000000000000000000000000000000000000000000000000 DUP2 MSTORE PUSH1 0x4 ADD PUSH2 0x12A2 SWAP1 PUSH2 0x2436 JUMP JUMPDEST PUSH1 0x40 MLOAD DUP1 SWAP2 SUB SWAP1 REVERT JUMPDEST PUSH1 0x0 DUP4 GT DUP1 ISZERO PUSH2 0x12BB JUMPI POP PUSH1 0x0 DUP3 GT JUMPDEST PUSH2 0x12FA JUMPI PUSH1 0x40 MLOAD PUSH32 0x8C379A000000000000000000000000000000000000000000000000000000000 DUP2 MSTORE PUSH1 0x4 ADD PUSH2 0x12F1 SWAP1 PUSH2 0x2344 JUMP JUMPDEST PUSH1 0x40 MLOAD DUP1 SWAP2 SUB SWAP1 REVERT JUMPDEST DUP3 PUSH2 0x130E DUP4 DUP7 PUSH2 0x1321 SWAP1 SWAP2 SWAP1 PUSH4 0xFFFFFFFF AND JUMP JUMPDEST PUSH2 0x1318 SWAP2 SWAP1 PUSH2 0x2393 JUMP JUMPDEST SWAP1 POP SWAP4 SWAP3 POP POP POP JUMP JUMPDEST PUSH1 0x0 DUP1 DUP3 EQ DUP1 PUSH2 0x1349 JUMPI POP DUP3 DUP3 DUP4 DUP6 PUSH2 0x133A SWAP2 SWAP1 PUSH2 0x2456 JUMP JUMPDEST SWAP3 POP DUP3 PUSH2 0x1347 SWAP2 SWAP1 PUSH2 0x2393 JUMP JUMPDEST EQ JUMPDEST PUSH2 0x1388 JUMPI PUSH1 0x40 MLOAD PUSH32 0x8C379A000000000000000000000000000000000000000000000000000000000 DUP2 MSTORE PUSH1 0x4 ADD PUSH2 0x137F SWAP1 PUSH2 0x24E4 JUMP JUMPDEST PUSH1 0x40 MLOAD DUP1 SWAP2 SUB SWAP1 REVERT JUMPDEST SWAP3 SWAP2 POP POP JUMP JUMPDEST PUSH1 0x0 DUP3 DUP3 DUP5 PUSH2 0x139D SWAP2 SWAP1 PUSH2 0x1CC3 JUMP JUMPDEST SWAP2 POP DUP2 LT ISZERO PUSH2 0x13E1 JUMPI PUSH1 0x40 MLOAD PUSH32 0x8C379A000000000000000000000000000000000000000000000000000000000 DUP2 MSTORE PUSH1 0x4 ADD PUSH2 0x13D8 SWAP1 PUSH2 0x2550 JUMP JUMPDEST PUSH1 0x40 MLOAD DUP1 SWAP2 SUB SWAP1 REVERT JUMPDEST SWAP3 SWAP2 POP POP JUMP JUMPDEST PUSH32 0x4E487B7100000000000000000000000000000000000000000000000000000000 PUSH1 0x0 MSTORE PUSH1 0x1 PUSH1 0x4 MSTORE PUSH1 0x24 PUSH1 0x0 REVERT JUMPDEST PUSH1 0x0 DUP1 REVERT JUMPDEST PUSH1 0x0 DUP1 REVERT JUMPDEST PUSH1 0x0 DUP2 SWAP1 POP SWAP2 SWAP1 POP JUMP JUMPDEST PUSH2 0x1433 DUP2 PUSH2 0x1420 JUMP JUMPDEST DUP2 EQ PUSH2 0x143E JUMPI PUSH1 0x0 DUP1 REVERT JUMPDEST POP JUMP JUMPDEST PUSH1 0x0 DUP2 CALLDATALOAD SWAP1 POP PUSH2 0x1450 DUP2 PUSH2 0x142A JUMP JUMPDEST SWAP3 SWAP2 POP POP JUMP JUMPDEST PUSH1 0x0 DUP1 REVERT JUMPDEST PUSH1 0x0 DUP1 REVERT JUMPDEST PUSH1 0x0 DUP1 REVERT JUMPDEST PUSH1 0x0 DUP1 DUP4 PUSH1 0x1F DUP5 ADD SLT PUSH2 0x147B JUMPI PUSH2 0x147A PUSH2 0x1456 JUMP JUMPDEST JUMPDEST DUP3 CALLDATALOAD SWAP1 POP PUSH8 0xFFFFFFFFFFFFFFFF DUP2 GT ISZERO PUSH2 0x1498 JUMPI PUSH2 0x1497 PUSH2 0x145B JUMP JUMPDEST JUMPDEST PUSH1 0x20 DUP4 ADD SWAP2 POP DUP4 PUSH1 0x20 DUP3 MUL DUP4 ADD GT ISZERO PUSH2 0x14B4 JUMPI PUSH2 0x14B3 PUSH2 0x1460 JUMP JUMPDEST JUMPDEST SWAP3 POP SWAP3 SWAP1 POP JUMP JUMPDEST PUSH1 0x0 PUSH20 0xFFFFFFFFFFFFFFFFFFFFFFFFFFFFFFFFFFFFFFFF DUP3 AND SWAP1 POP SWAP2 SWAP1 POP JUMP JUMPDEST PUSH1 0x0 PUSH2 0x14E6 DUP3 PUSH2 0x14BB JUMP JUMPDEST SWAP1 POP SWAP2 SWAP1 POP JUMP JUMPDEST PUSH2 0x14F6 DUP2 PUSH2 0x14DB JUMP JUMPDEST DUP2 EQ PUSH2 0x1501 JUMPI PUSH1 0x0 DUP1 REVERT JUMPDEST POP JUMP JUMPDEST PUSH1 0x0 DUP2 CALLDATALOAD SWAP1 POP PUSH2 0x1513 DUP2 PUSH2 0x14ED JUMP JUMPDEST SWAP3 SWAP2 POP POP JUMP JUMPDEST PUSH1 0x0 DUP1 PUSH1 0x0 DUP1 PUSH1 0x0 DUP1 PUSH1 0xA0 DUP8 DUP10 SUB SLT ISZERO PUSH2 0x1536 JUMPI PUSH2 0x1535 PUSH2 0x1416 JUMP JUMPDEST JUMPDEST PUSH1 0x0 PUSH2 0x1544 DUP10 DUP3 DUP11 ADD PUSH2 0x1441 JUMP JUMPDEST SWAP7 POP POP PUSH1 0x20 PUSH2 0x1555 DUP10 DUP3 DUP11 ADD PUSH2 0x1441 JUMP JUMPDEST SWAP6 POP POP PUSH1 0x40 DUP8 ADD CALLDATALOAD PUSH8 0xFFFFFFFFFFFFFFFF DUP2 GT ISZERO PUSH2 0x1576 JUMPI PUSH2 0x1575 PUSH2 0x141B JUMP JUMPDEST JUMPDEST PUSH2 0x1582 DUP10 DUP3 DUP11 ADD PUSH2 0x1465 JUMP JUMPDEST SWAP5 POP SWAP5 POP POP PUSH1 0x60 PUSH2 0x1595 DUP10 DUP3 DUP11 ADD PUSH2 0x1504 JUMP JUMPDEST SWAP3 POP POP PUSH1 0x80 PUSH2 0x15A6 DUP10 DUP3 DUP11 ADD PUSH2 0x1441 JUMP JUMPDEST SWAP2 POP POP SWAP3 SWAP6 POP SWAP3 SWAP6 POP SWAP3 SWAP6 JUMP JUMPDEST PUSH1 0x0 DUP2 MLOAD SWAP1 POP SWAP2 SWAP1 POP JUMP JUMPDEST PUSH1 0x0 DUP3 DUP3 MSTORE PUSH1 0x20 DUP3 ADD SWAP1 POP SWAP3 SWAP2 POP POP JUMP JUMPDEST PUSH1 0x0 DUP2 SWAP1 POP PUSH1 0x20 DUP3 ADD SWAP1 POP SWAP2 SWAP1 POP JUMP JUMPDEST PUSH2 0x15E8 DUP2 PUSH2 0x1420 JUMP JUMPDEST DUP3 MSTORE POP POP JUMP JUMPDEST PUSH1 0x0 PUSH2 0x15FA DUP4 DUP4 PUSH2 0x15DF JUMP JUMPDEST PUSH1 0x20 DUP4 ADD SWAP1 POP SWAP3 SWAP2 POP POP JUMP JUMPDEST PUSH1 0x0 PUSH1 0x20 DUP3 ADD SWAP1 POP SWAP2 SWAP1 POP JUMP JUMPDEST PUSH1 0x0 PUSH2 0x161E DUP3 PUSH2 0x15B3 JUMP JUMPDEST PUSH2 0x1628 DUP2 DUP6 PUSH2 0x15BE JUMP JUMPDEST SWAP4 POP PUSH2 0x1633 DUP4 PUSH2 0x15CF JUMP JUMPDEST DUP1 PUSH1 0x0 JUMPDEST DUP4 DUP2 LT ISZERO PUSH2 0x1664 JUMPI DUP2 MLOAD PUSH2 0x164B DUP9 DUP3 PUSH2 0x15EE JUMP JUMPDEST SWAP8 POP PUSH2 0x1656 DUP4 PUSH2 0x1606 JUMP JUMPDEST SWAP3 POP POP PUSH1 0x1 DUP2 ADD SWAP1 POP PUSH2 0x1637 JUMP JUMPDEST POP DUP6 SWAP4 POP POP POP POP SWAP3 SWAP2 POP POP JUMP JUMPDEST PUSH1 0x0 PUSH1 0x20 DUP3 ADD SWAP1 POP DUP2 DUP2 SUB PUSH1 0x0 DUP4 ADD MSTORE PUSH2 0x168B DUP2 DUP5 PUSH2 0x1613 JUMP JUMPDEST SWAP1 POP SWAP3 SWAP2 POP POP JUMP JUMPDEST PUSH2 0x169C DUP2 PUSH2 0x14DB JUMP JUMPDEST DUP3 MSTORE POP POP JUMP JUMPDEST PUSH1 0x0 PUSH1 0x20 DUP3 ADD SWAP1 POP PUSH2 0x16B7 PUSH1 0x0 DUP4 ADD DUP5 PUSH2 0x1693 JUMP JUMPDEST SWAP3 SWAP2 POP POP JUMP JUMPDEST PUSH1 0x0 DUP1 PUSH1 0x0 DUP1 PUSH1 0x0 DUP1 PUSH1 0x0 PUSH1 0xE0 DUP9 DUP11 SUB SLT ISZERO PUSH2 0x16DC JUMPI PUSH2 0x16DB PUSH2 0x1416 JUMP JUMPDEST JUMPDEST PUSH1 0x0 PUSH2 0x16EA DUP11 DUP3 DUP12 ADD PUSH2 0x1504 JUMP JUMPDEST SWAP8 POP POP PUSH1 0x20 PUSH2 0x16FB DUP11 DUP3 DUP12 ADD PUSH2 0x1504 JUMP JUMPDEST SWAP7 POP POP PUSH1 0x40 PUSH2 0x170C DUP11 DUP3 DUP12 ADD PUSH2 0x1441 JUMP JUMPDEST SWAP6 POP POP PUSH1 0x60 PUSH2 0x171D DUP11 DUP3 DUP12 ADD PUSH2 0x1441 JUMP JUMPDEST SWAP5 POP POP PUSH1 0x80 PUSH2 0x172E DUP11 DUP3 DUP12 ADD PUSH2 0x1441 JUMP JUMPDEST SWAP4 POP POP PUSH1 0xA0 PUSH2 0x173F DUP11 DUP3 DUP12 ADD PUSH2 0x1504 JUMP JUMPDEST SWAP3 POP POP PUSH1 0xC0 PUSH2 0x1750 DUP11 DUP3 DUP12 ADD PUSH2 0x1441 JUMP JUMPDEST SWAP2 POP POP SWAP3 SWAP6 SWAP9 SWAP2 SWAP5 SWAP8 POP SWAP3 SWAP6 POP JUMP JUMPDEST PUSH2 0x1768 DUP2 PUSH2 0x1420 JUMP JUMPDEST DUP3 MSTORE POP POP JUMP JUMPDEST PUSH1 0x0 PUSH1 0x40 DUP3 ADD SWAP1 POP PUSH2 0x1783 PUSH1 0x0 DUP4 ADD DUP6 PUSH2 0x175F JUMP JUMPDEST PUSH2 0x1790 PUSH1 0x20 DUP4 ADD DUP5 PUSH2 0x175F JUMP JUMPDEST SWAP4 SWAP3 POP POP POP JUMP JUMPDEST PUSH1 0x0 DUP1 PUSH1 0x0 DUP1 PUSH1 0x0 DUP1 PUSH1 0x0 DUP1 PUSH2 0x100 DUP10 DUP12 SUB SLT ISZERO PUSH2 0x17B8 JUMPI PUSH2 0x17B7 PUSH2 0x1416 JUMP JUMPDEST JUMPDEST PUSH1 0x0 PUSH2 0x17C6 DUP12 DUP3 DUP13 ADD PUSH2 0x1504 JUMP JUMPDEST SWAP9 POP POP PUSH1 0x20 PUSH2 0x17D7 DUP12 DUP3 DUP13 ADD PUSH2 0x1504 JUMP JUMPDEST SWAP8 POP POP PUSH1 0x40 PUSH2 0x17E8 DUP12 DUP3 DUP13 ADD PUSH2 0x1441 JUMP JUMPDEST SWAP7 POP POP PUSH1 0x60 PUSH2 0x17F9 DUP12 DUP3 DUP13 ADD PUSH2 0x1441 JUMP JUMPDEST SWAP6 POP POP PUSH1 0x80 PUSH2 0x180A DUP12 DUP3 DUP13 ADD PUSH2 0x1441 JUMP JUMPDEST SWAP5 POP POP PUSH1 0xA0 PUSH2 0x181B DUP12 DUP3 DUP13 ADD PUSH2 0x1441 JUMP JUMPDEST SWAP4 POP POP PUSH1 0xC0 PUSH2 0x182C DUP12 DUP3 DUP13 ADD PUSH2 0x1504 JUMP JUMPDEST SWAP3 POP POP PUSH1 0xE0 PUSH2 0x183D DUP12 DUP3 DUP13 ADD PUSH2 0x1441 JUMP JUMPDEST SWAP2 POP POP SWAP3 SWAP6 SWAP9 POP SWAP3 SWAP6 SWAP9 SWAP1 SWAP4 SWAP7 POP JUMP JUMPDEST PUSH1 0x0 PUSH1 0x60 DUP3 ADD SWAP1 POP PUSH2 0x1862 PUSH1 0x0 DUP4 ADD DUP7 PUSH2 0x175F JUMP JUMPDEST PUSH2 0x186F PUSH1 0x20 DUP4 ADD DUP6 PUSH2 0x175F JUMP JUMPDEST PUSH2 0x187C PUSH1 0x40 DUP4 ADD DUP5 PUSH2 0x175F JUMP JUMPDEST SWAP5 SWAP4 POP POP POP POP JUMP JUMPDEST PUSH32 0x4E487B7100000000000000000000000000000000000000000000000000000000 PUSH1 0x0 MSTORE PUSH1 0x11 PUSH1 0x4 MSTORE PUSH1 0x24 PUSH1 0x0 REVERT JUMPDEST PUSH1 0x0 PUSH2 0x18BE DUP3 PUSH2 0x1420 JUMP JUMPDEST SWAP2 POP PUSH2 0x18C9 DUP4 PUSH2 0x1420 JUMP JUMPDEST SWAP3 POP DUP3 DUP3 SUB SWAP1 POP DUP2 DUP2 GT ISZERO PUSH2 0x18E1 JUMPI PUSH2 0x18E0 PUSH2 0x1884 JUMP JUMPDEST JUMPDEST SWAP3 SWAP2 POP POP JUMP JUMPDEST PUSH32 0x4E487B7100000000000000000000000000000000000000000000000000000000 PUSH1 0x0 MSTORE PUSH1 0x32 PUSH1 0x4 MSTORE PUSH1 0x24 PUSH1 0x0 REVERT JUMPDEST PUSH1 0x0 DUP3 DUP3 MSTORE PUSH1 0x20 DUP3 ADD SWAP1 POP SWAP3 SWAP2 POP POP JUMP JUMPDEST PUSH32 0x44655863656C526F757465723A20494E53554646494349454E545F4F55545055 PUSH1 0x0 DUP3 ADD MSTORE PUSH32 0x545F414D4F554E54000000000000000000000000000000000000000000000000 PUSH1 0x20 DUP3 ADD MSTORE POP JUMP JUMPDEST PUSH1 0x0 PUSH2 0x1983 PUSH1 0x28 DUP4 PUSH2 0x1916 JUMP JUMPDEST SWAP2 POP PUSH2 0x198E DUP3 PUSH2 0x1927 JUMP JUMPDEST PUSH1 0x40 DUP3 ADD SWAP1 POP SWAP2 SWAP1 POP JUMP JUMPDEST PUSH1 0x0 PUSH1 0x20 DUP3 ADD SWAP1 POP DUP2 DUP2 SUB PUSH1 0x0 DUP4 ADD MSTORE PUSH2 0x19B2 DUP2 PUSH2 0x1976 JUMP JUMPDEST SWAP1 POP SWAP2 SWAP1 POP JUMP JUMPDEST PUSH1 0x0 PUSH1 0x20 DUP3 DUP5 SUB SLT ISZERO PUSH2 0x19CF JUMPI PUSH2 0x19CE PUSH2 0x1416 JUMP JUMPDEST JUMPDEST PUSH1 0x0 PUSH2 0x19DD DUP5 DUP3 DUP6 ADD PUSH2 0x1504 JUMP JUMPDEST SWAP2 POP POP SWAP3 SWAP2 POP POP JUMP JUMPDEST PUSH1 0x0 PUSH1 0x60 DUP3 ADD SWAP1 POP PUSH2 0x19FB PUSH1 0x0 DUP4 ADD DUP7 PUSH2 0x1693 JUMP JUMPDEST PUSH2 0x1A08 PUSH1 0x20 DUP4 ADD DUP6 PUSH2 0x1693 JUMP JUMPDEST PUSH2 0x1A15 PUSH1 0x40 DUP4 ADD DUP5 PUSH2 0x175F JUMP JUMPDEST SWAP5 SWAP4 POP POP POP POP JUMP JUMPDEST PUSH1 0x0 DUP2 ISZERO ISZERO SWAP1 POP SWAP2 SWAP1 POP JUMP JUMPDEST PUSH2 0x1A32 DUP2 PUSH2 0x1A1D JUMP JUMPDEST DUP2 EQ PUSH2 0x1A3D JUMPI PUSH1 0x0 DUP1 REVERT JUMPDEST POP JUMP JUMPDEST PUSH1 0x0 DUP2 MLOAD SWAP1 POP PUSH2 0x1A4F DUP2 PUSH2 0x1A29 JUMP JUMPDEST SWAP3 SWAP2 POP POP JUMP JUMPDEST PUSH1 0x0 PUSH1 0x20 DUP3 DUP5 SUB SLT ISZERO PUSH2 0x1A6B JUMPI PUSH2 0x1A6A PUSH2 0x1416 JUMP JUMPDEST JUMPDEST PUSH1 0x0 PUSH2 0x1A79 DUP5 DUP3 DUP6 ADD PUSH2 0x1A40 JUMP JUMPDEST SWAP2 POP POP SWAP3 SWAP2 POP POP JUMP JUMPDEST PUSH1 0x0 DUP2 MLOAD SWAP1 POP PUSH2 0x1A91 DUP2 PUSH2 0x142A JUMP JUMPDEST SWAP3 SWAP2 POP POP JUMP JUMPDEST PUSH1 0x0 DUP1 PUSH1 0x40 DUP4 DUP6 SUB SLT ISZERO PUSH2 0x1AAE JUMPI PUSH2 0x1AAD PUSH2 0x1416 JUMP JUMPDEST JUMPDEST PUSH1 0x0 PUSH2 0x1ABC DUP6 DUP3 DUP7 ADD PUSH2 0x1A82 JUMP JUMPDEST SWAP3 POP POP PUSH1 0x20 PUSH2 0x1ACD DUP6 DUP3 DUP7 ADD PUSH2 0x1A82 JUMP JUMPDEST SWAP2 POP POP SWAP3 POP SWAP3 SWAP1 POP JUMP JUMPDEST PUSH32 0x44655863656C526F757465723A20494E53554646494349454E545F415F414D4F PUSH1 0x0 DUP3 ADD MSTORE PUSH32 0x554E540000000000000000000000000000000000000000000000000000000000 PUSH1 0x20 DUP3 ADD MSTORE POP JUMP JUMPDEST PUSH1 0x0 PUSH2 0x1B33 PUSH1 0x23 DUP4 PUSH2 0x1916 JUMP JUMPDEST SWAP2 POP PUSH2 0x1B3E DUP3 PUSH2 0x1AD7 JUMP JUMPDEST PUSH1 0x40 DUP3 ADD SWAP1 POP SWAP2 SWAP1 POP JUMP JUMPDEST PUSH1 0x0 PUSH1 0x20 DUP3 ADD SWAP1 POP DUP2 DUP2 SUB PUSH1 0x0 DUP4 ADD MSTORE PUSH2 0x1B62 DUP2 PUSH2 0x1B26 JUMP JUMPDEST SWAP1 POP SWAP2 SWAP1 POP JUMP JUMPDEST PUSH32 0x44655863656C526F757465723A20494E53554646494349454E545F425F414D4F PUSH1 0x0 DUP3 ADD MSTORE PUSH32 0x554E540000000000000000000000000000000000000000000000000000000000 PUSH1 0x20 DUP3 ADD MSTORE POP JUMP JUMPDEST PUSH1 0x0 PUSH2 0x1BC5 PUSH1 0x23 DUP4 PUSH2 0x1916 JUMP JUMPDEST SWAP2 POP PUSH2 0x1BD0 DUP3 PUSH2 0x1B69 JUMP JUMPDEST PUSH1 0x40 DUP3 ADD SWAP1 POP SWAP2 SWAP1 POP JUMP JUMPDEST PUSH1 0x0 PUSH1 0x20 DUP3 ADD SWAP1 POP DUP2 DUP2 SUB PUSH1 0x0 DUP4 ADD MSTORE PUSH2 0x1BF4 DUP2 PUSH2 0x1BB8 JUMP JUMPDEST SWAP1 POP SWAP2 SWAP1 POP JUMP JUMPDEST PUSH1 0x0 PUSH1 0x20 DUP3 DUP5 SUB SLT ISZERO PUSH2 0x1C11 JUMPI PUSH2 0x1C10 PUSH2 0x1416 JUMP JUMPDEST JUMPDEST PUSH1 0x0 PUSH2 0x1C1F DUP5 DUP3 DUP6 ADD PUSH2 0x1A82 JUMP JUMPDEST SWAP2 POP POP SWAP3 SWAP2 POP POP JUMP JUMPDEST PUSH32 0x44655863656C4C6962726172793A20494E56414C49445F504154480000000000 PUSH1 0x0 DUP3 ADD MSTORE POP JUMP JUMPDEST PUSH1 0x0 PUSH2 0x1C5E PUSH1 0x1B DUP4 PUSH2 0x1916 JUMP JUMPDEST SWAP2 POP PUSH2 0x1C69 DUP3 PUSH2 0x1C28 JUMP JUMPDEST PUSH1 0x20 DUP3 ADD SWAP1 POP SWAP2 SWAP1 POP JUMP JUMPDEST PUSH1 0x0 PUSH1 0x20 DUP3 ADD SWAP1 POP DUP2 DUP2 SUB PUSH1 0x0 DUP4 ADD MSTORE PUSH2 0x1C8D DUP2 PUSH2 0x1C51 JUMP JUMPDEST SWAP1 POP SWAP2 SWAP1 POP JUMP JUMPDEST PUSH32 0x4E487B7100000000000000000000000000000000000000000000000000000000 PUSH1 0x0 MSTORE PUSH1 0x41 PUSH1 0x4 MSTORE PUSH1 0x24 PUSH1 0x0 REVERT JUMPDEST PUSH1 0x0 PUSH2 0x1CCE DUP3 PUSH2 0x1420 JUMP JUMPDEST SWAP2 POP PUSH2 0x1CD9 DUP4 PUSH2 0x1420 JUMP JUMPDEST SWAP3 POP DUP3 DUP3 ADD SWAP1 POP DUP1 DUP3 GT ISZERO PUSH2 0x1CF1 JUMPI PUSH2 0x1CF0 PUSH2 0x1884 JUMP JUMPDEST JUMPDEST SWAP3 SWAP2 POP POP JUMP JUMPDEST PUSH1 0x0 PUSH2 0x1D02 DUP3 PUSH2 0x1420 JUMP JUMPDEST SWAP2 POP PUSH32 0xFFFFFFFFFFFFFFFFFFFFFFFFFFFFFFFFFFFFFFFFFFFFFFFFFFFFFFFFFFFFFFFF DUP3 SUB PUSH2 0x1D34 JUMPI PUSH2 0x1D33 PUSH2 0x1884 JUMP JUMPDEST JUMPDEST PUSH1 0x1 DUP3 ADD SWAP1 POP SWAP2 SWAP1 POP JUMP JUMPDEST PUSH1 0x0 DUP2 PUSH1 0x60 SHL SWAP1 POP SWAP2 SWAP1 POP JUMP JUMPDEST PUSH1 0x0 PUSH2 0x1D57 DUP3 PUSH2 0x1D3F JUMP JUMPDEST SWAP1 POP SWAP2 SWAP1 POP JUMP JUMPDEST PUSH1 0x0 PUSH2 0x1D69 DUP3 PUSH2 0x1D4C JUMP JUMPDEST SWAP1 POP SWAP2 SWAP1 POP JUMP JUMPDEST PUSH2 0x1D81 PUSH2 0x1D7C DUP3 PUSH2 0x14DB JUMP JUMPDEST PUSH2 0x1D5E JUMP JUMPDEST DUP3 MSTORE POP POP JUMP JUMPDEST PUSH1 0x0 PUSH2 0x1D93 DUP3 DUP6 PUSH2 0x1D70 JUMP JUMPDEST PUSH1 0x14 DUP3 ADD SWAP2 POP PUSH2 0x1DA3 DUP3 DUP5 PUSH2 0x1D70 JUMP JUMPDEST PUSH1 0x14 DUP3 ADD SWAP2 POP DUP2 SWAP1 POP SWAP4 SWAP3 POP POP POP JUMP JUMPDEST PUSH1 0x0 DUP2 SWAP1 POP SWAP3 SWAP2 POP POP JUMP JUMPDEST PUSH32 0xFF00000000000000000000000000000000000000000000000000000000000000 PUSH1 0x0 DUP3 ADD MSTORE POP JUMP JUMPDEST PUSH1 0x0 PUSH2 0x1DF4 PUSH1 0x1 DUP4 PUSH2 0x1DB3 JUMP JUMPDEST SWAP2 POP PUSH2 0x1DFF DUP3 PUSH2 0x1DBE JUMP JUMPDEST PUSH1 0x1 DUP3 ADD SWAP1 POP SWAP2 SWAP1 POP JUMP JUMPDEST PUSH1 0x0 DUP2 SWAP1 POP SWAP2 SWAP1 POP JUMP JUMPDEST PUSH1 0x0 DUP2 SWAP1 POP SWAP2 SWAP1 POP JUMP JUMPDEST PUSH2 0x1E2F PUSH2 0x1E2A DUP3 PUSH2 0x1E0A JUMP JUMPDEST PUSH2 0x1E14 JUMP JUMPDEST DUP3 MSTORE POP POP JUMP JUMPDEST PUSH32 0xD0C6A5C6DD6BD3736CF4AB8926234C67ED017FB0A04FD11084FD4DECF20C0C2D PUSH1 0x0 DUP3 ADD MSTORE POP JUMP JUMPDEST PUSH1 0x0 PUSH2 0x1E6B PUSH1 0x20 DUP4 PUSH2 0x1DB3 JUMP JUMPDEST SWAP2 POP PUSH2 0x1E76 DUP3 PUSH2 0x1E35 JUMP JUMPDEST PUSH1 0x20 DUP3 ADD SWAP1 POP SWAP2 SWAP1 POP JUMP JUMPDEST PUSH1 0x0 PUSH2 0x1E8C DUP3 PUSH2 0x1DE7 JUMP JUMPDEST SWAP2 POP PUSH2 0x1E98 DUP3 DUP6 PUSH2 0x1D70 JUMP JUMPDEST PUSH1 0x14 DUP3 ADD SWAP2 POP PUSH2 0x1EA8 DUP3 DUP5 PUSH2 0x1E1E JUMP JUMPDEST PUSH1 0x20 DUP3 ADD SWAP2 POP PUSH2 0x1EB7 DUP3 PUSH2 0x1E5E JUMP JUMPDEST SWAP2 POP DUP2 SWAP1 POP SWAP4 SWAP3 POP POP POP JUMP JUMPDEST PUSH1 0x0 DUP2 MLOAD SWAP1 POP SWAP2 SWAP1 POP JUMP JUMPDEST PUSH1 0x0 DUP2 SWAP1 POP SWAP3 SWAP2 POP POP JUMP JUMPDEST PUSH1 0x0 JUMPDEST DUP4 DUP2 LT ISZERO PUSH2 0x1EF7 JUMPI DUP1 DUP3 ADD MLOAD DUP2 DUP5 ADD MSTORE PUSH1 0x20 DUP2 ADD SWAP1 POP PUSH2 0x1EDC JUMP JUMPDEST PUSH1 0x0 DUP5 DUP5 ADD MSTORE POP POP POP POP JUMP JUMPDEST PUSH1 0x0 PUSH2 0x1F0E DUP3 PUSH2 0x1EC3 JUMP JUMPDEST PUSH2 0x1F18 DUP2 DUP6 PUSH2 0x1ECE JUMP JUMPDEST SWAP4 POP PUSH2 0x1F28 DUP2 DUP6 PUSH1 0x20 DUP7 ADD PUSH2 0x1ED9 JUMP JUMPDEST DUP1 DUP5 ADD SWAP2 POP POP SWAP3 SWAP2 POP POP JUMP JUMPDEST PUSH1 0x0 PUSH2 0x1F40 DUP3 DUP5 PUSH2 0x1F03 JUMP JUMPDEST SWAP2 POP DUP2 SWAP1 POP SWAP3 SWAP2 POP POP JUMP JUMPDEST PUSH32 0x5472616E7366657248656C7065723A3A7472616E7366657246726F6D3A207472 PUSH1 0x0 DUP3 ADD MSTORE PUSH32 0x616E7366657246726F6D206661696C6564000000000000000000000000000000 PUSH1 0x20 DUP3 ADD MSTORE POP JUMP JUMPDEST PUSH1 0x0 PUSH2 0x1FA7 PUSH1 0x31 DUP4 PUSH2 0x1916 JUMP JUMPDEST SWAP2 POP PUSH2 0x1FB2 DUP3 PUSH2 0x1F4B JUMP JUMPDEST PUSH1 0x40 DUP3 ADD SWAP1 POP SWAP2 SWAP1 POP JUMP JUMPDEST PUSH1 0x0 PUSH1 0x20 DUP3 ADD SWAP1 POP DUP2 DUP2 SUB PUSH1 0x0 DUP4 ADD MSTORE PUSH2 0x1FD6 DUP2 PUSH2 0x1F9A JUMP JUMPDEST SWAP1 POP SWAP2 SWAP1 POP JUMP JUMPDEST PUSH1 0x0 DUP3 DUP3 MSTORE PUSH1 0x20 DUP3 ADD SWAP1 POP SWAP3 SWAP2 POP POP JUMP JUMPDEST PUSH1 0x0 PUSH1 0x1F NOT PUSH1 0x1F DUP4 ADD AND SWAP1 POP SWAP2 SWAP1 POP JUMP JUMPDEST PUSH1 0x0 PUSH2 0x200A DUP3 PUSH2 0x1EC3 JUMP JUMPDEST PUSH2 0x2014 DUP2 DUP6 PUSH2 0x1FDD JUMP JUMPDEST SWAP4 POP PUSH2 0x2024 DUP2 DUP6 PUSH1 0x20 DUP7 ADD PUSH2 0x1ED9 JUMP JUMPDEST PUSH2 0x202D DUP2 PUSH2 0x1FEE JUMP JUMPDEST DUP5 ADD SWAP2 POP POP SWAP3 SWAP2 POP POP JUMP JUMPDEST PUSH1 0x0 PUSH1 0x80 DUP3 ADD SWAP1 POP PUSH2 0x204D PUSH1 0x0 DUP4 ADD DUP8 PUSH2 0x175F JUMP JUMPDEST PUSH2 0x205A PUSH1 0x20 DUP4 ADD DUP7 PUSH2 0x175F JUMP JUMPDEST PUSH2 0x2067 PUSH1 0x40 DUP4 ADD DUP6 PUSH2 0x1693 JUMP JUMPDEST DUP2 DUP2 SUB PUSH1 0x60 DUP4 ADD MSTORE PUSH2 0x2079 DUP2 DUP5 PUSH2 0x1FFF JUMP JUMPDEST SWAP1 POP SWAP6 SWAP5 POP POP POP POP POP JUMP JUMPDEST PUSH32 0x44655863656C4C6962726172793A204944454E544943414C5F41444452455353 PUSH1 0x0 DUP3 ADD MSTORE PUSH32 0x4553000000000000000000000000000000000000000000000000000000000000 PUSH1 0x20 DUP3 ADD MSTORE POP JUMP JUMPDEST PUSH1 0x0 PUSH2 0x20E0 PUSH1 0x22 DUP4 PUSH2 0x1916 JUMP JUMPDEST SWAP2 POP PUSH2 0x20EB DUP3 PUSH2 0x2084 JUMP JUMPDEST PUSH1 0x40 DUP3 ADD SWAP1 POP SWAP2 SWAP1 POP JUMP JUMPDEST PUSH1 0x0 PUSH1 0x20 DUP3 ADD SWAP1 POP DUP2 DUP2 SUB PUSH1 0x0 DUP4 ADD MSTORE PUSH2 0x210F DUP2 PUSH2 0x20D3 JUMP JUMPDEST SWAP1 POP SWAP2 SWAP1 POP JUMP JUMPDEST PUSH32 0x44655863656C4C6962726172793A205A45524F5F414444524553530000000000 PUSH1 0x0 DUP3 ADD MSTORE POP JUMP JUMPDEST PUSH1 0x0 PUSH2 0x214C PUSH1 0x1B DUP4 PUSH2 0x1916 JUMP JUMPDEST SWAP2 POP PUSH2 0x2157 DUP3 PUSH2 0x2116 JUMP JUMPDEST PUSH1 0x20 DUP3 ADD SWAP1 POP SWAP2 SWAP1 POP JUMP JUMPDEST PUSH1 0x0 PUSH1 0x20 DUP3 ADD SWAP1 POP DUP2 DUP2 SUB PUSH1 0x0 DUP4 ADD MSTORE PUSH2 0x217B DUP2 PUSH2 0x213F JUMP JUMPDEST SWAP1 POP SWAP2 SWAP1 POP JUMP JUMPDEST PUSH1 0x0 PUSH1 0x40 DUP3 ADD SWAP1 POP PUSH2 0x2197 PUSH1 0x0 DUP4 ADD DUP6 PUSH2 0x1693 JUMP JUMPDEST PUSH2 0x21A4 PUSH1 0x20 DUP4 ADD DUP5 PUSH2 0x1693 JUMP JUMPDEST SWAP4 SWAP3 POP POP POP JUMP JUMPDEST PUSH1 0x0 DUP2 MLOAD SWAP1 POP PUSH2 0x21BA DUP2 PUSH2 0x14ED JUMP JUMPDEST SWAP3 SWAP2 POP POP JUMP JUMPDEST PUSH1 0x0 PUSH1 0x20 DUP3 DUP5 SUB SLT ISZERO PUSH2 0x21D6 JUMPI PUSH2 0x21D5 PUSH2 0x1416 JUMP JUMPDEST JUMPDEST PUSH1 0x0 PUSH2 0x21E4 DUP5 DUP3 DUP6 ADD PUSH2 0x21AB JUMP JUMPDEST SWAP2 POP POP SWAP3 SWAP2 POP POP JUMP JUMPDEST PUSH1 0x0 DUP1 PUSH1 0x0 PUSH1 0x60 DUP5 DUP7 SUB SLT ISZERO PUSH2 0x2206 JUMPI PUSH2 0x2205 PUSH2 0x1416 JUMP JUMPDEST JUMPDEST PUSH1 0x0 PUSH2 0x2214 DUP7 DUP3 DUP8 ADD PUSH2 0x1A82 JUMP JUMPDEST SWAP4 POP POP PUSH1 0x20 PUSH2 0x2225 DUP7 DUP3 DUP8 ADD PUSH2 0x1A82 JUMP JUMPDEST SWAP3 POP POP PUSH1 0x40 PUSH2 0x2236 DUP7 DUP3 DUP8 ADD PUSH2 0x1A82 JUMP JUMPDEST SWAP2 POP POP SWAP3 POP SWAP3 POP SWAP3 JUMP JUMPDEST PUSH32 0x44655863656C4C6962726172793A20494E53554646494349454E545F494E5055 PUSH1 0x0 DUP3 ADD MSTORE PUSH32 0x545F414D4F554E54000000000000000000000000000000000000000000000000 PUSH1 0x20 DUP3 ADD MSTORE POP JUMP JUMPDEST PUSH1 0x0 PUSH2 0x229C PUSH1 0x28 DUP4 PUSH2 0x1916 JUMP JUMPDEST SWAP2 POP PUSH2 0x22A7 DUP3 PUSH2 0x2240 JUMP JUMPDEST PUSH1 0x40 DUP3 ADD SWAP1 POP SWAP2 SWAP1 POP JUMP JUMPDEST PUSH1 0x0 PUSH1 0x20 DUP3 ADD SWAP1 POP DUP2 DUP2 SUB PUSH1 0x0 DUP4 ADD MSTORE PUSH2 0x22CB DUP2 PUSH2 0x228F JUMP JUMPDEST SWAP1 POP SWAP2 SWAP1 POP JUMP JUMPDEST PUSH32 0x44655863656C4C6962726172793A20494E53554646494349454E545F4C495155 PUSH1 0x0 DUP3 ADD MSTORE PUSH32 0x4944495459000000000000000000000000000000000000000000000000000000 PUSH1 0x20 DUP3 ADD MSTORE POP JUMP JUMPDEST PUSH1 0x0 PUSH2 0x232E PUSH1 0x25 DUP4 PUSH2 0x1916 JUMP JUMPDEST SWAP2 POP PUSH2 0x2339 DUP3 PUSH2 0x22D2 JUMP JUMPDEST PUSH1 0x40 DUP3 ADD SWAP1 POP SWAP2 SWAP1 POP JUMP JUMPDEST PUSH1 0x0 PUSH1 0x20 DUP3 ADD SWAP1 POP DUP2 DUP2 SUB PUSH1 0x0 DUP4 ADD MSTORE PUSH2 0x235D DUP2 PUSH2 0x2321 JUMP JUMPDEST SWAP1 POP SWAP2 SWAP1 POP JUMP JUMPDEST PUSH32 0x4E487B7100000000000000000000000000000000000000000000000000000000 PUSH1 0x0 MSTORE PUSH1 0x12 PUSH1 0x4 MSTORE PUSH1 0x24 PUSH1 0x0 REVERT JUMPDEST PUSH1 0x0 PUSH2 0x239E DUP3 PUSH2 0x1420 JUMP JUMPDEST SWAP2 POP PUSH2 0x23A9 DUP4 PUSH2 0x1420 JUMP JUMPDEST SWAP3 POP DUP3 PUSH2 0x23B9 JUMPI PUSH2 0x23B8 PUSH2 0x2364 JUMP JUMPDEST JUMPDEST DUP3 DUP3 DIV SWAP1 POP SWAP3 SWAP2 POP POP JUMP JUMPDEST PUSH32 0x44655863656C4C6962726172793A20494E53554646494349454E545F414D4F55 PUSH1 0x0 DUP3 ADD MSTORE PUSH32 0x4E54000000000000000000000000000000000000000000000000000000000000 PUSH1 0x20 DUP3 ADD MSTORE POP JUMP JUMPDEST PUSH1 0x0 PUSH2 0x2420 PUSH1 0x22 DUP4 PUSH2 0x1916 JUMP JUMPDEST SWAP2 POP PUSH2 0x242B DUP3 PUSH2 0x23C4 JUMP JUMPDEST PUSH1 0x40 DUP3 ADD SWAP1 POP SWAP2 SWAP1 POP JUMP JUMPDEST PUSH1 0x0 PUSH1 0x20 DUP3 ADD SWAP1 POP DUP2 DUP2 SUB PUSH1 0x0 DUP4 ADD MSTORE PUSH2 0x244F DUP2 PUSH2 0x2413 JUMP JUMPDEST SWAP1 POP SWAP2 SWAP1 POP JUMP JUMPDEST PUSH1 0x0 PUSH2 0x2461 DUP3 PUSH2 0x1420 JUMP JUMPDEST SWAP2 POP PUSH2 0x246C DUP4 PUSH2 0x1420 JUMP JUMPDEST SWAP3 POP DUP3 DUP3 MUL PUSH2 0x247A DUP2 PUSH2 0x1420 JUMP JUMPDEST SWAP2 POP DUP3 DUP3 DIV DUP5 EQ DUP4 ISZERO OR PUSH2 0x2491 JUMPI PUSH2 0x2490 PUSH2 0x1884 JUMP JUMPDEST JUMPDEST POP SWAP3 SWAP2 POP POP JUMP JUMPDEST PUSH32 0x64732D6D6174682D6D756C2D6F766572666C6F77000000000000000000000000 PUSH1 0x0 DUP3 ADD MSTORE POP JUMP JUMPDEST PUSH1 0x0 PUSH2 0x24CE PUSH1 0x14 DUP4 PUSH2 0x1916 JUMP JUMPDEST SWAP2 POP PUSH2 0x24D9 DUP3 PUSH2 0x2498 JUMP JUMPDEST PUSH1 0x20 DUP3 ADD SWAP1 POP SWAP2 SWAP1 POP JUMP JUMPDEST PUSH1 0x0 PUSH1 0x20 DUP3 ADD SWAP1 POP DUP2 DUP2 SUB PUSH1 0x0 DUP4 ADD MSTORE PUSH2 0x24FD DUP2 PUSH2 0x24C1 JUMP JUMPDEST SWAP1 POP SWAP2 SWAP1 POP JUMP JUMPDEST PUSH32 0x64732D6D6174682D6164642D6F766572666C6F77000000000000000000000000 PUSH1 0x0 DUP3 ADD MSTORE POP JUMP JUMPDEST PUSH1 0x0 PUSH2 0x253A PUSH1 0x14 DUP4 PUSH2 0x1916 JUMP JUMPDEST SWAP2 POP PUSH2 0x2545 DUP3 PUSH2 0x2504 JUMP JUMPDEST PUSH1 0x20 DUP3 ADD SWAP1 POP SWAP2 SWAP1 POP JUMP JUMPDEST PUSH1 0x0 PUSH1 0x20 DUP3 ADD SWAP1 POP DUP2 DUP2 SUB PUSH1 0x0 DUP4 ADD MSTORE PUSH2 0x2569 DUP2 PUSH2 0x252D JUMP JUMPDEST SWAP1 POP SWAP2 SWAP1 POP JUMP INVALID LOG2 PUSH5 0x6970667358 0x22 SLT KECCAK256 PUSH29 0x6D5522F30EEB9D609B207E352A601D139B81B680350A93F3E9D58614E SWAP12 SHL PUSH5 0x736F6C6343 STOP ADDMOD GT STOP CALLER "},"methodIdentifiers":{"WETH()":"ad5c4648","addLiquidity(address,address,uint256,uint256,uint256,uint256,address,uint256)":"e8e33700","factory()":"c45a0155","removeLiquidity(address,address,uint256,uint256,uint256,address,uint256)":"baa2abde","swapExactTokensForTokens(uint256,uint256,address[],address,uint256)":"38ed1739"}}}}}