{"src/backend/contracts/Handler.sol":{"Handler":{"abi":[{"inputs":[{"internalType":"address","name":"_factory","type":"address"},{"internalType":"address","name":"_router","type":"address"}],"stateMutability":"nonpayable","type":"constructor"},{"inputs":[{"internalType":"address","name":"_token0","type":"address"},{"internalType":"address","name":"_token1","type":"address"},{"internalType":"uint256","name":"_amount0","type":"uint256"},{"internalType":"uint256","name":"_amount1","type":"uint256"},{"internalType":"address","name":"_to","type":"address"}],"name":"addliquidity","outputs":[{"internalType":"bool","name":"","type":"bool"}],"stateMutability":"nonpayable","type":"function"},{"inputs":[{"internalType":"uint256","name":"_amountIn","type":"uint256"},{"internalType":"uint256","name":"_amountOutMin","type":"uint256"},{"internalType":"address[]","name":"_path","type":"address[]"},{"internalType":"address","name":"_to","type":"address"}],"name":"exchangeTokens","outputs":[{"internalType":"bool","name":"","type":"bool"}],"stateMutability":"nonpayable","type":"function"},{"inputs":[],"name":"factory","outputs":[{"internalType":"address","name":"","type":"address"}],"stateMutability":"view","type":"function"},{"inputs":[{"internalType":"address","name":"_tokenA","type":"address"},{"internalType":"address","name":"_tokenB","type":"address"},{"internalType":"uint256","name":"_liquidity","type":"uint256"},{"internalType":"uint256","name":"_amountAMin","type":"uint256"},{"internalType":"uint256","name":"_amountBMin","type":"uint256"},{"internalType":"address","name":"_to","type":"address"}],"name":"removeLiquiduty","outputs":[{"internalType":"bool","name":"","type":"bool"}],"stateMutability":"nonpayable","type":"function"},{"inputs":[],"name":"router","outputs":[{"internalType":"address","name":"","type":"address"}],"stateMutability":"view","type":"function"}],"evm":{"bytecode":{"linkReferences":{},"object":"60806040523480156200001157600080fd5b50604051620010813803806200108183398181016040528101906200003791906200012a565b816000806101000a81548173ffffffffffffffffffffffffffffffffffffffff021916908373ffffffffffffffffffffffffffffffffffffffff16021790555080600160006101000a81548173ffffffffffffffffffffffffffffffffffffffff021916908373ffffffffffffffffffffffffffffffffffffffff160217905550505062000171565b600080fd5b600073ffffffffffffffffffffffffffffffffffffffff82169050919050565b6000620000f282620000c5565b9050919050565b6200010481620000e5565b81146200011057600080fd5b50565b6000815190506200012481620000f9565b92915050565b60008060408385031215620001445762000143620000c0565b5b6000620001548582860162000113565b9250506020620001678582860162000113565b9150509250929050565b610f0080620001816000396000f3fe608060405234801561001057600080fd5b50600436106100575760003560e01c8063325cf27e1461005c5780633fa718901461008c578063c45a0155146100bc578063e9726958146100da578063f887ea401461010a575b600080fd5b61007660048036038101906100719190610694565b610128565b604051610083919061073c565b60405180910390f35b6100a660048036038101906100a191906107bc565b6101f5565b6040516100b3919061073c565b60405180910390f35b6100c461038e565b6040516100d19190610853565b60405180910390f35b6100f460048036038101906100ef919061086e565b6103b2565b604051610101919061073c565b60405180910390f35b6101126105c6565b60405161011f9190610853565b60405180910390f35b600080610e10426101399190610918565b9050600160009054906101000a900473ffffffffffffffffffffffffffffffffffffffff1673ffffffffffffffffffffffffffffffffffffffff1663baa2abde898989898989886040518863ffffffff1660e01b81526004016101a2979695949392919061095b565b60408051808303816000875af11580156101c0573d6000803e3d6000fd5b505050506040513d601f19601f820116820180604052508101906101e491906109df565b505060019150509695505050505050565b60008383600081811061020b5761020a610a1f565b5b90506020020160208101906102209190610a4e565b73ffffffffffffffffffffffffffffffffffffffff1663095ea7b3600160009054906101000a900473ffffffffffffffffffffffffffffffffffffffff16886040518363ffffffff1660e01b815260040161027c929190610a7b565b6020604051808303816000875af115801561029b573d6000803e3d6000fd5b505050506040513d601f19601f820116820180604052508101906102bf9190610ad0565b506000610e10426102d09190610918565b9050600160009054906101000a900473ffffffffffffffffffffffffffffffffffffffff1673ffffffffffffffffffffffffffffffffffffffff166338ed17398888888888876040518763ffffffff1660e01b815260040161033796959493929190610bc0565b6000604051808303816000875af1158015610356573d6000803e3d6000fd5b505050506040513d6000823e3d601f19601f8201168201806040525081019061037f9190610d6b565b50600191505095945050505050565b60008054906101000a900473ffffffffffffffffffffffffffffffffffffffff1681565b60008573ffffffffffffffffffffffffffffffffffffffff1663095ea7b3600160009054906101000a900473ffffffffffffffffffffffffffffffffffffffff16866040518363ffffffff1660e01b8152600401610411929190610a7b565b6020604051808303816000875af1158015610430573d6000803e3d6000fd5b505050506040513d601f19601f820116820180604052508101906104549190610ad0565b508473ffffffffffffffffffffffffffffffffffffffff1663095ea7b3600160009054906101000a900473ffffffffffffffffffffffffffffffffffffffff16856040518363ffffffff1660e01b81526004016104b2929190610a7b565b6020604051808303816000875af11580156104d1573d6000803e3d6000fd5b505050506040513d601f19601f820116820180604052508101906104f59190610ad0565b506000610e10426105069190610918565b9050600160009054906101000a900473ffffffffffffffffffffffffffffffffffffffff1673ffffffffffffffffffffffffffffffffffffffff1663e8e33700888888886000808a896040518963ffffffff1660e01b8152600401610572989796959493929190610df9565b6060604051808303816000875af1158015610591573d6000803e3d6000fd5b505050506040513d601f19601f820116820180604052508101906105b59190610e77565b505050600191505095945050505050565b600160009054906101000a900473ffffffffffffffffffffffffffffffffffffffff1681565b6000604051905090565b600080fd5b600080fd5b600073ffffffffffffffffffffffffffffffffffffffff82169050919050565b600061062b82610600565b9050919050565b61063b81610620565b811461064657600080fd5b50565b60008135905061065881610632565b92915050565b6000819050919050565b6106718161065e565b811461067c57600080fd5b50565b60008135905061068e81610668565b92915050565b60008060008060008060c087890312156106b1576106b06105f6565b5b60006106bf89828a01610649565b96505060206106d089828a01610649565b95505060406106e189828a0161067f565b94505060606106f289828a0161067f565b935050608061070389828a0161067f565b92505060a061071489828a01610649565b9150509295509295509295565b60008115159050919050565b61073681610721565b82525050565b6000602082019050610751600083018461072d565b92915050565b600080fd5b600080fd5b600080fd5b60008083601f84011261077c5761077b610757565b5b8235905067ffffffffffffffff8111156107995761079861075c565b5b6020830191508360208202830111156107b5576107b4610761565b5b9250929050565b6000806000806000608086880312156107d8576107d76105f6565b5b60006107e68882890161067f565b95505060206107f78882890161067f565b945050604086013567ffffffffffffffff811115610818576108176105fb565b5b61082488828901610766565b9350935050606061083788828901610649565b9150509295509295909350565b61084d81610620565b82525050565b60006020820190506108686000830184610844565b92915050565b600080600080600060a0868803121561088a576108896105f6565b5b600061089888828901610649565b95505060206108a988828901610649565b94505060406108ba8882890161067f565b93505060606108cb8882890161067f565b92505060806108dc88828901610649565b9150509295509295909350565b7f4e487b7100000000000000000000000000000000000000000000000000000000600052601160045260246000fd5b60006109238261065e565b915061092e8361065e565b9250828201905080821115610946576109456108e9565b5b92915050565b6109558161065e565b82525050565b600060e082019050610970600083018a610844565b61097d6020830189610844565b61098a604083018861094c565b610997606083018761094c565b6109a4608083018661094c565b6109b160a0830185610844565b6109be60c083018461094c565b98975050505050505050565b6000815190506109d981610668565b92915050565b600080604083850312156109f6576109f56105f6565b5b6000610a04858286016109ca565b9250506020610a15858286016109ca565b9150509250929050565b7f4e487b7100000000000000000000000000000000000000000000000000000000600052603260045260246000fd5b600060208284031215610a6457610a636105f6565b5b6000610a7284828501610649565b91505092915050565b6000604082019050610a906000830185610844565b610a9d602083018461094c565b9392505050565b610aad81610721565b8114610ab857600080fd5b50565b600081519050610aca81610aa4565b92915050565b600060208284031215610ae657610ae56105f6565b5b6000610af484828501610abb565b91505092915050565b600082825260208201905092915050565b6000819050919050565b610b2181610620565b82525050565b6000610b338383610b18565b60208301905092915050565b6000610b4e6020840184610649565b905092915050565b6000602082019050919050565b6000610b6f8385610afd565b9350610b7a82610b0e565b8060005b85811015610bb357610b908284610b3f565b610b9a8882610b27565b9750610ba583610b56565b925050600181019050610b7e565b5085925050509392505050565b600060a082019050610bd5600083018961094c565b610be2602083018861094c565b8181036040830152610bf5818688610b63565b9050610c046060830185610844565b610c11608083018461094c565b979650505050505050565b6000601f19601f8301169050919050565b7f4e487b7100000000000000000000000000000000000000000000000000000000600052604160045260246000fd5b610c6582610c1c565b810181811067ffffffffffffffff82111715610c8457610c83610c2d565b5b80604052505050565b6000610c976105ec565b9050610ca38282610c5c565b919050565b600067ffffffffffffffff821115610cc357610cc2610c2d565b5b602082029050602081019050919050565b6000610ce7610ce284610ca8565b610c8d565b90508083825260208201905060208402830185811115610d0a57610d09610761565b5b835b81811015610d335780610d1f88826109ca565b845260208401935050602081019050610d0c565b5050509392505050565b600082601f830112610d5257610d51610757565b5b8151610d62848260208601610cd4565b91505092915050565b600060208284031215610d8157610d806105f6565b5b600082015167ffffffffffffffff811115610d9f57610d9e6105fb565b5b610dab84828501610d3d565b91505092915050565b6000819050919050565b6000819050919050565b6000610de3610dde610dd984610db4565b610dbe565b61065e565b9050919050565b610df381610dc8565b82525050565b600061010082019050610e0f600083018b610844565b610e1c602083018a610844565b610e29604083018961094c565b610e36606083018861094c565b610e436080830187610dea565b610e5060a0830186610dea565b610e5d60c0830185610844565b610e6a60e083018461094c565b9998505050505050505050565b600080600060608486031215610e9057610e8f6105f6565b5b6000610e9e868287016109ca565b9350506020610eaf868287016109ca565b9250506040610ec0868287016109ca565b915050925092509256fea2646970667358221220b653c0e29478ca2a5ba036de069df8f8888c67274e9bf7c8ee9fb0bb0e6ffb3464736f6c63430008110033","opcodes":"PUSH1 0x80 PUSH1 0x40 MSTORE CALLVALUE DUP1 ISZERO PUSH3 0x11 JUMPI PUSH1 0x0 DUP1 REVERT JUMPDEST POP PUSH1 0x40 MLOAD PUSH3 0x1081 CODESIZE SUB DUP1 PUSH3 0x1081 DUP4 CODECOPY DUP2 DUP2 ADD PUSH1 0x40 MSTORE DUP2 ADD SWAP1 PUSH3 0x37 SWAP2 SWAP1 PUSH3 0x12A JUMP JUMPDEST DUP2 PUSH1 0x0 DUP1 PUSH2 0x100 EXP DUP2 SLOAD DUP2 PUSH20 0xFFFFFFFFFFFFFFFFFFFFFFFFFFFFFFFFFFFFFFFF MUL NOT AND SWAP1 DUP4 PUSH20 0xFFFFFFFFFFFFFFFFFFFFFFFFFFFFFFFFFFFFFFFF AND MUL OR SWAP1 SSTORE POP DUP1 PUSH1 0x1 PUSH1 0x0 PUSH2 0x100 EXP DUP2 SLOAD DUP2 PUSH20 0xFFFFFFFFFFFFFFFFFFFFFFFFFFFFFFFFFFFFFFFF MUL NOT AND SWAP1 DUP4 PUSH20 0xFFFFFFFFFFFFFFFFFFFFFFFFFFFFFFFFFFFFFFFF AND MUL OR SWAP1 SSTORE POP POP POP PUSH3 0x171 JUMP JUMPDEST PUSH1 0x0 DUP1 REVERT JUMPDEST PUSH1 0x0 PUSH20 0xFFFFFFFFFFFFFFFFFFFFFFFFFFFFFFFFFFFFFFFF DUP3 AND SWAP1 POP SWAP2 SWAP1 POP JUMP JUMPDEST PUSH1 0x0 PUSH3 0xF2 DUP3 PUSH3 0xC5 JUMP JUMPDEST SWAP1 POP SWAP2 SWAP1 POP JUMP JUMPDEST PUSH3 0x104 DUP2 PUSH3 0xE5 JUMP JUMPDEST DUP2 EQ PUSH3 0x110 JUMPI PUSH1 0x0 DUP1 REVERT JUMPDEST POP JUMP JUMPDEST PUSH1 0x0 DUP2 MLOAD SWAP1 POP PUSH3 0x124 DUP2 PUSH3 0xF9 JUMP JUMPDEST SWAP3 SWAP2 POP POP JUMP JUMPDEST PUSH1 0x0 DUP1 PUSH1 0x40 DUP4 DUP6 SUB SLT ISZERO PUSH3 0x144 JUMPI PUSH3 0x143 PUSH3 0xC0 JUMP JUMPDEST JUMPDEST PUSH1 0x0 PUSH3 0x154 DUP6 DUP3 DUP7 ADD PUSH3 0x113 JUMP JUMPDEST SWAP3 POP POP PUSH1 0x20 PUSH3 0x167 DUP6 DUP3 DUP7 ADD PUSH3 0x113 JUMP JUMPDEST SWAP2 POP POP SWAP3 POP SWAP3 SWAP1 POP JUMP JUMPDEST PUSH2 0xF00 DUP1 PUSH3 0x181 PUSH1 0x0 CODECOPY PUSH1 0x0 RETURN INVALID PUSH1 0x80 PUSH1 0x40 MSTORE CALLVALUE DUP1 ISZERO PUSH2 0x10 JUMPI PUSH1 0x0 DUP1 REVERT JUMPDEST POP PUSH1 0x4 CALLDATASIZE LT PUSH2 0x57 JUMPI PUSH1 0x0 CALLDATALOAD PUSH1 0xE0 SHR DUP1 PUSH4 0x325CF27E EQ PUSH2 0x5C JUMPI DUP1 PUSH4 0x3FA71890 EQ PUSH2 0x8C JUMPI DUP1 PUSH4 0xC45A0155 EQ PUSH2 0xBC JUMPI DUP1 PUSH4 0xE9726958 EQ PUSH2 0xDA JUMPI DUP1 PUSH4 0xF887EA40 EQ PUSH2 0x10A JUMPI JUMPDEST PUSH1 0x0 DUP1 REVERT JUMPDEST PUSH2 0x76 PUSH1 0x4 DUP1 CALLDATASIZE SUB DUP2 ADD SWAP1 PUSH2 0x71 SWAP2 SWAP1 PUSH2 0x694 JUMP JUMPDEST PUSH2 0x128 JUMP JUMPDEST PUSH1 0x40 MLOAD PUSH2 0x83 SWAP2 SWAP1 PUSH2 0x73C JUMP JUMPDEST PUSH1 0x40 MLOAD DUP1 SWAP2 SUB SWAP1 RETURN JUMPDEST PUSH2 0xA6 PUSH1 0x4 DUP1 CALLDATASIZE SUB DUP2 ADD SWAP1 PUSH2 0xA1 SWAP2 SWAP1 PUSH2 0x7BC JUMP JUMPDEST PUSH2 0x1F5 JUMP JUMPDEST PUSH1 0x40 MLOAD PUSH2 0xB3 SWAP2 SWAP1 PUSH2 0x73C JUMP JUMPDEST PUSH1 0x40 MLOAD DUP1 SWAP2 SUB SWAP1 RETURN JUMPDEST PUSH2 0xC4 PUSH2 0x38E JUMP JUMPDEST PUSH1 0x40 MLOAD PUSH2 0xD1 SWAP2 SWAP1 PUSH2 0x853 JUMP JUMPDEST PUSH1 0x40 MLOAD DUP1 SWAP2 SUB SWAP1 RETURN JUMPDEST PUSH2 0xF4 PUSH1 0x4 DUP1 CALLDATASIZE SUB DUP2 ADD SWAP1 PUSH2 0xEF SWAP2 SWAP1 PUSH2 0x86E JUMP JUMPDEST PUSH2 0x3B2 JUMP JUMPDEST PUSH1 0x40 MLOAD PUSH2 0x101 SWAP2 SWAP1 PUSH2 0x73C JUMP JUMPDEST PUSH1 0x40 MLOAD DUP1 SWAP2 SUB SWAP1 RETURN JUMPDEST PUSH2 0x112 PUSH2 0x5C6 JUMP JUMPDEST PUSH1 0x40 MLOAD PUSH2 0x11F SWAP2 SWAP1 PUSH2 0x853 JUMP JUMPDEST PUSH1 0x40 MLOAD DUP1 SWAP2 SUB SWAP1 RETURN JUMPDEST PUSH1 0x0 DUP1 PUSH2 0xE10 TIMESTAMP PUSH2 0x139 SWAP2 SWAP1 PUSH2 0x918 JUMP JUMPDEST SWAP1 POP PUSH1 0x1 PUSH1 0x0 SWAP1 SLOAD SWAP1 PUSH2 0x100 EXP SWAP1 DIV PUSH20 0xFFFFFFFFFFFFFFFFFFFFFFFFFFFFFFFFFFFFFFFF AND PUSH20 0xFFFFFFFFFFFFFFFFFFFFFFFFFFFFFFFFFFFFFFFF AND PUSH4 0xBAA2ABDE DUP10 DUP10 DUP10 DUP10 DUP10 DUP10 DUP9 PUSH1 0x40 MLOAD DUP9 PUSH4 0xFFFFFFFF AND PUSH1 0xE0 SHL DUP2 MSTORE PUSH1 0x4 ADD PUSH2 0x1A2 SWAP8 SWAP7 SWAP6 SWAP5 SWAP4 SWAP3 SWAP2 SWAP1 PUSH2 0x95B JUMP JUMPDEST PUSH1 0x40 DUP1 MLOAD DUP1 DUP4 SUB DUP2 PUSH1 0x0 DUP8 GAS CALL ISZERO DUP1 ISZERO PUSH2 0x1C0 JUMPI RETURNDATASIZE PUSH1 0x0 DUP1 RETURNDATACOPY RETURNDATASIZE PUSH1 0x0 REVERT JUMPDEST POP POP POP POP PUSH1 0x40 MLOAD RETURNDATASIZE PUSH1 0x1F NOT PUSH1 0x1F DUP3 ADD AND DUP3 ADD DUP1 PUSH1 0x40 MSTORE POP DUP2 ADD SWAP1 PUSH2 0x1E4 SWAP2 SWAP1 PUSH2 0x9DF JUMP JUMPDEST POP POP PUSH1 0x1 SWAP2 POP POP SWAP7 SWAP6 POP POP POP POP POP POP JUMP JUMPDEST PUSH1 0x0 DUP4 DUP4 PUSH1 0x0 DUP2 DUP2 LT PUSH2 0x20B JUMPI PUSH2 0x20A PUSH2 0xA1F JUMP JUMPDEST JUMPDEST SWAP1 POP PUSH1 0x20 MUL ADD PUSH1 0x20 DUP2 ADD SWAP1 PUSH2 0x220 SWAP2 SWAP1 PUSH2 0xA4E JUMP JUMPDEST PUSH20 0xFFFFFFFFFFFFFFFFFFFFFFFFFFFFFFFFFFFFFFFF AND PUSH4 0x95EA7B3 PUSH1 0x1 PUSH1 0x0 SWAP1 SLOAD SWAP1 PUSH2 0x100 EXP SWAP1 DIV PUSH20 0xFFFFFFFFFFFFFFFFFFFFFFFFFFFFFFFFFFFFFFFF AND DUP9 PUSH1 0x40 MLOAD DUP4 PUSH4 0xFFFFFFFF AND PUSH1 0xE0 SHL DUP2 MSTORE PUSH1 0x4 ADD PUSH2 0x27C SWAP3 SWAP2 SWAP1 PUSH2 0xA7B JUMP JUMPDEST PUSH1 0x20 PUSH1 0x40 MLOAD DUP1 DUP4 SUB DUP2 PUSH1 0x0 DUP8 GAS CALL ISZERO DUP1 ISZERO PUSH2 0x29B JUMPI RETURNDATASIZE PUSH1 0x0 DUP1 RETURNDATACOPY RETURNDATASIZE PUSH1 0x0 REVERT JUMPDEST POP POP POP POP PUSH1 0x40 MLOAD RETURNDATASIZE PUSH1 0x1F NOT PUSH1 0x1F DUP3 ADD AND DUP3 ADD DUP1 PUSH1 0x40 MSTORE POP DUP2 ADD SWAP1 PUSH2 0x2BF SWAP2 SWAP1 PUSH2 0xAD0 JUMP JUMPDEST POP PUSH1 0x0 PUSH2 0xE10 TIMESTAMP PUSH2 0x2D0 SWAP2 SWAP1 PUSH2 0x918 JUMP JUMPDEST SWAP1 POP PUSH1 0x1 PUSH1 0x0 SWAP1 SLOAD SWAP1 PUSH2 0x100 EXP SWAP1 DIV PUSH20 0xFFFFFFFFFFFFFFFFFFFFFFFFFFFFFFFFFFFFFFFF AND PUSH20 0xFFFFFFFFFFFFFFFFFFFFFFFFFFFFFFFFFFFFFFFF AND PUSH4 0x38ED1739 DUP9 DUP9 DUP9 DUP9 DUP9 DUP8 PUSH1 0x40 MLOAD DUP8 PUSH4 0xFFFFFFFF AND PUSH1 0xE0 SHL DUP2 MSTORE PUSH1 0x4 ADD PUSH2 0x337 SWAP7 SWAP6 SWAP5 SWAP4 SWAP3 SWAP2 SWAP1 PUSH2 0xBC0 JUMP JUMPDEST PUSH1 0x0 PUSH1 0x40 MLOAD DUP1 DUP4 SUB DUP2 PUSH1 0x0 DUP8 GAS CALL ISZERO DUP1 ISZERO PUSH2 0x356 JUMPI RETURNDATASIZE PUSH1 0x0 DUP1 RETURNDATACOPY RETURNDATASIZE PUSH1 0x0 REVERT JUMPDEST POP POP POP POP PUSH1 0x40 MLOAD RETURNDATASIZE PUSH1 0x0 DUP3 RETURNDATACOPY RETURNDATASIZE PUSH1 0x1F NOT PUSH1 0x1F DUP3 ADD AND DUP3 ADD DUP1 PUSH1 0x40 MSTORE POP DUP2 ADD SWAP1 PUSH2 0x37F SWAP2 SWAP1 PUSH2 0xD6B JUMP JUMPDEST POP PUSH1 0x1 SWAP2 POP POP SWAP6 SWAP5 POP POP POP POP POP JUMP JUMPDEST PUSH1 0x0 DUP1 SLOAD SWAP1 PUSH2 0x100 EXP SWAP1 DIV PUSH20 0xFFFFFFFFFFFFFFFFFFFFFFFFFFFFFFFFFFFFFFFF AND DUP2 JUMP JUMPDEST PUSH1 0x0 DUP6 PUSH20 0xFFFFFFFFFFFFFFFFFFFFFFFFFFFFFFFFFFFFFFFF AND PUSH4 0x95EA7B3 PUSH1 0x1 PUSH1 0x0 SWAP1 SLOAD SWAP1 PUSH2 0x100 EXP SWAP1 DIV PUSH20 0xFFFFFFFFFFFFFFFFFFFFFFFFFFFFFFFFFFFFFFFF AND DUP7 PUSH1 0x40 MLOAD DUP4 PUSH4 0xFFFFFFFF AND PUSH1 0xE0 SHL DUP2 MSTORE PUSH1 0x4 ADD PUSH2 0x411 SWAP3 SWAP2 SWAP1 PUSH2 0xA7B JUMP JUMPDEST PUSH1 0x20 PUSH1 0x40 MLOAD DUP1 DUP4 SUB DUP2 PUSH1 0x0 DUP8 GAS CALL ISZERO DUP1 ISZERO PUSH2 0x430 JUMPI RETURNDATASIZE PUSH1 0x0 DUP1 RETURNDATACOPY RETURNDATASIZE PUSH1 0x0 REVERT JUMPDEST POP POP POP POP PUSH1 0x40 MLOAD RETURNDATASIZE PUSH1 0x1F NOT PUSH1 0x1F DUP3 ADD AND DUP3 ADD DUP1 PUSH1 0x40 MSTORE POP DUP2 ADD SWAP1 PUSH2 0x454 SWAP2 SWAP1 PUSH2 0xAD0 JUMP JUMPDEST POP DUP5 PUSH20 0xFFFFFFFFFFFFFFFFFFFFFFFFFFFFFFFFFFFFFFFF AND PUSH4 0x95EA7B3 PUSH1 0x1 PUSH1 0x0 SWAP1 SLOAD SWAP1 PUSH2 0x100 EXP SWAP1 DIV PUSH20 0xFFFFFFFFFFFFFFFFFFFFFFFFFFFFFFFFFFFFFFFF AND DUP6 PUSH1 0x40 MLOAD DUP4 PUSH4 0xFFFFFFFF AND PUSH1 0xE0 SHL DUP2 MSTORE PUSH1 0x4 ADD PUSH2 0x4B2 SWAP3 SWAP2 SWAP1 PUSH2 0xA7B JUMP JUMPDEST PUSH1 0x20 PUSH1 0x40 MLOAD DUP1 DUP4 SUB DUP2 PUSH1 0x0 DUP8 GAS CALL ISZERO DUP1 ISZERO PUSH2 0x4D1 JUMPI RETURNDATASIZE PUSH1 0x0 DUP1 RETURNDATACOPY RETURNDATASIZE PUSH1 0x0 REVERT JUMPDEST POP POP POP POP PUSH1 0x40 MLOAD RETURNDATASIZE PUSH1 0x1F NOT PUSH1 0x1F DUP3 ADD AND DUP3 ADD DUP1 PUSH1 0x40 MSTORE POP DUP2 ADD SWAP1 PUSH2 0x4F5 SWAP2 SWAP1 PUSH2 0xAD0 JUMP JUMPDEST POP PUSH1 0x0 PUSH2 0xE10 TIMESTAMP PUSH2 0x506 SWAP2 SWAP1 PUSH2 0x918 JUMP JUMPDEST SWAP1 POP PUSH1 0x1 PUSH1 0x0 SWAP1 SLOAD SWAP1 PUSH2 0x100 EXP SWAP1 DIV PUSH20 0xFFFFFFFFFFFFFFFFFFFFFFFFFFFFFFFFFFFFFFFF AND PUSH20 0xFFFFFFFFFFFFFFFFFFFFFFFFFFFFFFFFFFFFFFFF AND PUSH4 0xE8E33700 DUP9 DUP9 DUP9 DUP9 PUSH1 0x0 DUP1 DUP11 DUP10 PUSH1 0x40 MLOAD DUP10 PUSH4 0xFFFFFFFF AND PUSH1 0xE0 SHL DUP2 MSTORE PUSH1 0x4 ADD PUSH2 0x572 SWAP9 SWAP8 SWAP7 SWAP6 SWAP5 SWAP4 SWAP3 SWAP2 SWAP1 PUSH2 0xDF9 JUMP JUMPDEST PUSH1 0x60 PUSH1 0x40 MLOAD DUP1 DUP4 SUB DUP2 PUSH1 0x0 DUP8 GAS CALL ISZERO DUP1 ISZERO PUSH2 0x591 JUMPI RETURNDATASIZE PUSH1 0x0 DUP1 RETURNDATACOPY RETURNDATASIZE PUSH1 0x0 REVERT JUMPDEST POP POP POP POP PUSH1 0x40 MLOAD RETURNDATASIZE PUSH1 0x1F NOT PUSH1 0x1F DUP3 ADD AND DUP3 ADD DUP1 PUSH1 0x40 MSTORE POP DUP2 ADD SWAP1 PUSH2 0x5B5 SWAP2 SWAP1 PUSH2 0xE77 JUMP JUMPDEST POP POP POP PUSH1 0x1 SWAP2 POP POP SWAP6 SWAP5 POP POP POP POP POP JUMP JUMPDEST PUSH1 0x1 PUSH1 0x0 SWAP1 SLOAD SWAP1 PUSH2 0x100 EXP SWAP1 DIV PUSH20 0xFFFFFFFFFFFFFFFFFFFFFFFFFFFFFFFFFFFFFFFF AND DUP2 JUMP JUMPDEST PUSH1 0x0 PUSH1 0x40 MLOAD SWAP1 POP SWAP1 JUMP JUMPDEST PUSH1 0x0 DUP1 REVERT JUMPDEST PUSH1 0x0 DUP1 REVERT JUMPDEST PUSH1 0x0 PUSH20 0xFFFFFFFFFFFFFFFFFFFFFFFFFFFFFFFFFFFFFFFF DUP3 AND SWAP1 POP SWAP2 SWAP1 POP JUMP JUMPDEST PUSH1 0x0 PUSH2 0x62B DUP3 PUSH2 0x600 JUMP JUMPDEST SWAP1 POP SWAP2 SWAP1 POP JUMP JUMPDEST PUSH2 0x63B DUP2 PUSH2 0x620 JUMP JUMPDEST DUP2 EQ PUSH2 0x646 JUMPI PUSH1 0x0 DUP1 REVERT JUMPDEST POP JUMP JUMPDEST PUSH1 0x0 DUP2 CALLDATALOAD SWAP1 POP PUSH2 0x658 DUP2 PUSH2 0x632 JUMP JUMPDEST SWAP3 SWAP2 POP POP JUMP JUMPDEST PUSH1 0x0 DUP2 SWAP1 POP SWAP2 SWAP1 POP JUMP JUMPDEST PUSH2 0x671 DUP2 PUSH2 0x65E JUMP JUMPDEST DUP2 EQ PUSH2 0x67C JUMPI PUSH1 0x0 DUP1 REVERT JUMPDEST POP JUMP JUMPDEST PUSH1 0x0 DUP2 CALLDATALOAD SWAP1 POP PUSH2 0x68E DUP2 PUSH2 0x668 JUMP JUMPDEST SWAP3 SWAP2 POP POP JUMP JUMPDEST PUSH1 0x0 DUP1 PUSH1 0x0 DUP1 PUSH1 0x0 DUP1 PUSH1 0xC0 DUP8 DUP10 SUB SLT ISZERO PUSH2 0x6B1 JUMPI PUSH2 0x6B0 PUSH2 0x5F6 JUMP JUMPDEST JUMPDEST PUSH1 0x0 PUSH2 0x6BF DUP10 DUP3 DUP11 ADD PUSH2 0x649 JUMP JUMPDEST SWAP7 POP POP PUSH1 0x20 PUSH2 0x6D0 DUP10 DUP3 DUP11 ADD PUSH2 0x649 JUMP JUMPDEST SWAP6 POP POP PUSH1 0x40 PUSH2 0x6E1 DUP10 DUP3 DUP11 ADD PUSH2 0x67F JUMP JUMPDEST SWAP5 POP POP PUSH1 0x60 PUSH2 0x6F2 DUP10 DUP3 DUP11 ADD PUSH2 0x67F JUMP JUMPDEST SWAP4 POP POP PUSH1 0x80 PUSH2 0x703 DUP10 DUP3 DUP11 ADD PUSH2 0x67F JUMP JUMPDEST SWAP3 POP POP PUSH1 0xA0 PUSH2 0x714 DUP10 DUP3 DUP11 ADD PUSH2 0x649 JUMP JUMPDEST SWAP2 POP POP SWAP3 SWAP6 POP SWAP3 SWAP6 POP SWAP3 SWAP6 JUMP JUMPDEST PUSH1 0x0 DUP2 ISZERO ISZERO SWAP1 POP SWAP2 SWAP1 POP JUMP JUMPDEST PUSH2 0x736 DUP2 PUSH2 0x721 JUMP JUMPDEST DUP3 MSTORE POP POP JUMP JUMPDEST PUSH1 0x0 PUSH1 0x20 DUP3 ADD SWAP1 POP PUSH2 0x751 PUSH1 0x0 DUP4 ADD DUP5 PUSH2 0x72D JUMP JUMPDEST SWAP3 SWAP2 POP POP JUMP JUMPDEST PUSH1 0x0 DUP1 REVERT JUMPDEST PUSH1 0x0 DUP1 REVERT JUMPDEST PUSH1 0x0 DUP1 REVERT JUMPDEST PUSH1 0x0 DUP1 DUP4 PUSH1 0x1F DUP5 ADD SLT PUSH2 0x77C JUMPI PUSH2 0x77B PUSH2 0x757 JUMP JUMPDEST JUMPDEST DUP3 CALLDATALOAD SWAP1 POP PUSH8 0xFFFFFFFFFFFFFFFF DUP2 GT ISZERO PUSH2 0x799 JUMPI PUSH2 0x798 PUSH2 0x75C JUMP JUMPDEST JUMPDEST PUSH1 0x20 DUP4 ADD SWAP2 POP DUP4 PUSH1 0x20 DUP3 MUL DUP4 ADD GT ISZERO PUSH2 0x7B5 JUMPI PUSH2 0x7B4 PUSH2 0x761 JUMP JUMPDEST JUMPDEST SWAP3 POP SWAP3 SWAP1 POP JUMP JUMPDEST PUSH1 0x0 DUP1 PUSH1 0x0 DUP1 PUSH1 0x0 PUSH1 0x80 DUP7 DUP9 SUB SLT ISZERO PUSH2 0x7D8 JUMPI PUSH2 0x7D7 PUSH2 0x5F6 JUMP JUMPDEST JUMPDEST PUSH1 0x0 PUSH2 0x7E6 DUP9 DUP3 DUP10 ADD PUSH2 0x67F JUMP JUMPDEST SWAP6 POP POP PUSH1 0x20 PUSH2 0x7F7 DUP9 DUP3 DUP10 ADD PUSH2 0x67F JUMP JUMPDEST SWAP5 POP POP PUSH1 0x40 DUP7 ADD CALLDATALOAD PUSH8 0xFFFFFFFFFFFFFFFF DUP2 GT ISZERO PUSH2 0x818 JUMPI PUSH2 0x817 PUSH2 0x5FB JUMP JUMPDEST JUMPDEST PUSH2 0x824 DUP9 DUP3 DUP10 ADD PUSH2 0x766 JUMP JUMPDEST SWAP4 POP SWAP4 POP POP PUSH1 0x60 PUSH2 0x837 DUP9 DUP3 DUP10 ADD PUSH2 0x649 JUMP JUMPDEST SWAP2 POP POP SWAP3 SWAP6 POP SWAP3 SWAP6 SWAP1 SWAP4 POP JUMP JUMPDEST PUSH2 0x84D DUP2 PUSH2 0x620 JUMP JUMPDEST DUP3 MSTORE POP POP JUMP JUMPDEST PUSH1 0x0 PUSH1 0x20 DUP3 ADD SWAP1 POP PUSH2 0x868 PUSH1 0x0 DUP4 ADD DUP5 PUSH2 0x844 JUMP JUMPDEST SWAP3 SWAP2 POP POP JUMP JUMPDEST PUSH1 0x0 DUP1 PUSH1 0x0 DUP1 PUSH1 0x0 PUSH1 0xA0 DUP7 DUP9 SUB SLT ISZERO PUSH2 0x88A JUMPI PUSH2 0x889 PUSH2 0x5F6 JUMP JUMPDEST JUMPDEST PUSH1 0x0 PUSH2 0x898 DUP9 DUP3 DUP10 ADD PUSH2 0x649 JUMP JUMPDEST SWAP6 POP POP PUSH1 0x20 PUSH2 0x8A9 DUP9 DUP3 DUP10 ADD PUSH2 0x649 JUMP JUMPDEST SWAP5 POP POP PUSH1 0x40 PUSH2 0x8BA DUP9 DUP3 DUP10 ADD PUSH2 0x67F JUMP JUMPDEST SWAP4 POP POP PUSH1 0x60 PUSH2 0x8CB DUP9 DUP3 DUP10 ADD PUSH2 0x67F JUMP JUMPDEST SWAP3 POP POP PUSH1 0x80 PUSH2 0x8DC DUP9 DUP3 DUP10 ADD PUSH2 0x649 JUMP JUMPDEST SWAP2 POP POP SWAP3 SWAP6 POP SWAP3 SWAP6 SWAP1 SWAP4 POP JUMP JUMPDEST PUSH32 0x4E487B7100000000000000000000000000000000000000000000000000000000 PUSH1 0x0 MSTORE PUSH1 0x11 PUSH1 0x4 MSTORE PUSH1 0x24 PUSH1 0x0 REVERT JUMPDEST PUSH1 0x0 PUSH2 0x923 DUP3 PUSH2 0x65E JUMP JUMPDEST SWAP2 POP PUSH2 0x92E DUP4 PUSH2 0x65E JUMP JUMPDEST SWAP3 POP DUP3 DUP3 ADD SWAP1 POP DUP1 DUP3 GT ISZERO PUSH2 0x946 JUMPI PUSH2 0x945 PUSH2 0x8E9 JUMP JUMPDEST JUMPDEST SWAP3 SWAP2 POP POP JUMP JUMPDEST PUSH2 0x955 DUP2 PUSH2 0x65E JUMP JUMPDEST DUP3 MSTORE POP POP JUMP JUMPDEST PUSH1 0x0 PUSH1 0xE0 DUP3 ADD SWAP1 POP PUSH2 0x970 PUSH1 0x0 DUP4 ADD DUP11 PUSH2 0x844 JUMP JUMPDEST PUSH2 0x97D PUSH1 0x20 DUP4 ADD DUP10 PUSH2 0x844 JUMP JUMPDEST PUSH2 0x98A PUSH1 0x40 DUP4 ADD DUP9 PUSH2 0x94C JUMP JUMPDEST PUSH2 0x997 PUSH1 0x60 DUP4 ADD DUP8 PUSH2 0x94C JUMP JUMPDEST PUSH2 0x9A4 PUSH1 0x80 DUP4 ADD DUP7 PUSH2 0x94C JUMP JUMPDEST PUSH2 0x9B1 PUSH1 0xA0 DUP4 ADD DUP6 PUSH2 0x844 JUMP JUMPDEST PUSH2 0x9BE PUSH1 0xC0 DUP4 ADD DUP5 PUSH2 0x94C JUMP JUMPDEST SWAP9 SWAP8 POP POP POP POP POP POP POP POP JUMP JUMPDEST PUSH1 0x0 DUP2 MLOAD SWAP1 POP PUSH2 0x9D9 DUP2 PUSH2 0x668 JUMP JUMPDEST SWAP3 SWAP2 POP POP JUMP JUMPDEST PUSH1 0x0 DUP1 PUSH1 0x40 DUP4 DUP6 SUB SLT ISZERO PUSH2 0x9F6 JUMPI PUSH2 0x9F5 PUSH2 0x5F6 JUMP JUMPDEST JUMPDEST PUSH1 0x0 PUSH2 0xA04 DUP6 DUP3 DUP7 ADD PUSH2 0x9CA JUMP JUMPDEST SWAP3 POP POP PUSH1 0x20 PUSH2 0xA15 DUP6 DUP3 DUP7 ADD PUSH2 0x9CA JUMP JUMPDEST SWAP2 POP POP SWAP3 POP SWAP3 SWAP1 POP JUMP JUMPDEST PUSH32 0x4E487B7100000000000000000000000000000000000000000000000000000000 PUSH1 0x0 MSTORE PUSH1 0x32 PUSH1 0x4 MSTORE PUSH1 0x24 PUSH1 0x0 REVERT JUMPDEST PUSH1 0x0 PUSH1 0x20 DUP3 DUP5 SUB SLT ISZERO PUSH2 0xA64 JUMPI PUSH2 0xA63 PUSH2 0x5F6 JUMP JUMPDEST JUMPDEST PUSH1 0x0 PUSH2 0xA72 DUP5 DUP3 DUP6 ADD PUSH2 0x649 JUMP JUMPDEST SWAP2 POP POP SWAP3 SWAP2 POP POP JUMP JUMPDEST PUSH1 0x0 PUSH1 0x40 DUP3 ADD SWAP1 POP PUSH2 0xA90 PUSH1 0x0 DUP4 ADD DUP6 PUSH2 0x844 JUMP JUMPDEST PUSH2 0xA9D PUSH1 0x20 DUP4 ADD DUP5 PUSH2 0x94C JUMP JUMPDEST SWAP4 SWAP3 POP POP POP JUMP JUMPDEST PUSH2 0xAAD DUP2 PUSH2 0x721 JUMP JUMPDEST DUP2 EQ PUSH2 0xAB8 JUMPI PUSH1 0x0 DUP1 REVERT JUMPDEST POP JUMP JUMPDEST PUSH1 0x0 DUP2 MLOAD SWAP1 POP PUSH2 0xACA DUP2 PUSH2 0xAA4 JUMP JUMPDEST SWAP3 SWAP2 POP POP JUMP JUMPDEST PUSH1 0x0 PUSH1 0x20 DUP3 DUP5 SUB SLT ISZERO PUSH2 0xAE6 JUMPI PUSH2 0xAE5 PUSH2 0x5F6 JUMP JUMPDEST JUMPDEST PUSH1 0x0 PUSH2 0xAF4 DUP5 DUP3 DUP6 ADD PUSH2 0xABB JUMP JUMPDEST SWAP2 POP POP SWAP3 SWAP2 POP POP JUMP JUMPDEST PUSH1 0x0 DUP3 DUP3 MSTORE PUSH1 0x20 DUP3 ADD SWAP1 POP SWAP3 SWAP2 POP POP JUMP JUMPDEST PUSH1 0x0 DUP2 SWAP1 POP SWAP2 SWAP1 POP JUMP JUMPDEST PUSH2 0xB21 DUP2 PUSH2 0x620 JUMP JUMPDEST DUP3 MSTORE POP POP JUMP JUMPDEST PUSH1 0x0 PUSH2 0xB33 DUP4 DUP4 PUSH2 0xB18 JUMP JUMPDEST PUSH1 0x20 DUP4 ADD SWAP1 POP SWAP3 SWAP2 POP POP JUMP JUMPDEST PUSH1 0x0 PUSH2 0xB4E PUSH1 0x20 DUP5 ADD DUP5 PUSH2 0x649 JUMP JUMPDEST SWAP1 POP SWAP3 SWAP2 POP POP JUMP JUMPDEST PUSH1 0x0 PUSH1 0x20 DUP3 ADD SWAP1 POP SWAP2 SWAP1 POP JUMP JUMPDEST PUSH1 0x0 PUSH2 0xB6F DUP4 DUP6 PUSH2 0xAFD JUMP JUMPDEST SWAP4 POP PUSH2 0xB7A DUP3 PUSH2 0xB0E JUMP JUMPDEST DUP1 PUSH1 0x0 JUMPDEST DUP6 DUP2 LT ISZERO PUSH2 0xBB3 JUMPI PUSH2 0xB90 DUP3 DUP5 PUSH2 0xB3F JUMP JUMPDEST PUSH2 0xB9A DUP9 DUP3 PUSH2 0xB27 JUMP JUMPDEST SWAP8 POP PUSH2 0xBA5 DUP4 PUSH2 0xB56 JUMP JUMPDEST SWAP3 POP POP PUSH1 0x1 DUP2 ADD SWAP1 POP PUSH2 0xB7E JUMP JUMPDEST POP DUP6 SWAP3 POP POP POP SWAP4 SWAP3 POP POP POP JUMP JUMPDEST PUSH1 0x0 PUSH1 0xA0 DUP3 ADD SWAP1 POP PUSH2 0xBD5 PUSH1 0x0 DUP4 ADD DUP10 PUSH2 0x94C JUMP JUMPDEST PUSH2 0xBE2 PUSH1 0x20 DUP4 ADD DUP9 PUSH2 0x94C JUMP JUMPDEST DUP2 DUP2 SUB PUSH1 0x40 DUP4 ADD MSTORE PUSH2 0xBF5 DUP2 DUP7 DUP9 PUSH2 0xB63 JUMP JUMPDEST SWAP1 POP PUSH2 0xC04 PUSH1 0x60 DUP4 ADD DUP6 PUSH2 0x844 JUMP JUMPDEST PUSH2 0xC11 PUSH1 0x80 DUP4 ADD DUP5 PUSH2 0x94C JUMP JUMPDEST SWAP8 SWAP7 POP POP POP POP POP POP POP JUMP JUMPDEST PUSH1 0x0 PUSH1 0x1F NOT PUSH1 0x1F DUP4 ADD AND SWAP1 POP SWAP2 SWAP1 POP JUMP JUMPDEST PUSH32 0x4E487B7100000000000000000000000000000000000000000000000000000000 PUSH1 0x0 MSTORE PUSH1 0x41 PUSH1 0x4 MSTORE PUSH1 0x24 PUSH1 0x0 REVERT JUMPDEST PUSH2 0xC65 DUP3 PUSH2 0xC1C JUMP JUMPDEST DUP2 ADD DUP2 DUP2 LT PUSH8 0xFFFFFFFFFFFFFFFF DUP3 GT OR ISZERO PUSH2 0xC84 JUMPI PUSH2 0xC83 PUSH2 0xC2D JUMP JUMPDEST JUMPDEST DUP1 PUSH1 0x40 MSTORE POP POP POP JUMP JUMPDEST PUSH1 0x0 PUSH2 0xC97 PUSH2 0x5EC JUMP JUMPDEST SWAP1 POP PUSH2 0xCA3 DUP3 DUP3 PUSH2 0xC5C JUMP JUMPDEST SWAP2 SWAP1 POP JUMP JUMPDEST PUSH1 0x0 PUSH8 0xFFFFFFFFFFFFFFFF DUP3 GT ISZERO PUSH2 0xCC3 JUMPI PUSH2 0xCC2 PUSH2 0xC2D JUMP JUMPDEST JUMPDEST PUSH1 0x20 DUP3 MUL SWAP1 POP PUSH1 0x20 DUP2 ADD SWAP1 POP SWAP2 SWAP1 POP JUMP JUMPDEST PUSH1 0x0 PUSH2 0xCE7 PUSH2 0xCE2 DUP5 PUSH2 0xCA8 JUMP JUMPDEST PUSH2 0xC8D JUMP JUMPDEST SWAP1 POP DUP1 DUP4 DUP3 MSTORE PUSH1 0x20 DUP3 ADD SWAP1 POP PUSH1 0x20 DUP5 MUL DUP4 ADD DUP6 DUP2 GT ISZERO PUSH2 0xD0A JUMPI PUSH2 0xD09 PUSH2 0x761 JUMP JUMPDEST JUMPDEST DUP4 JUMPDEST DUP2 DUP2 LT ISZERO PUSH2 0xD33 JUMPI DUP1 PUSH2 0xD1F DUP9 DUP3 PUSH2 0x9CA JUMP JUMPDEST DUP5 MSTORE PUSH1 0x20 DUP5 ADD SWAP4 POP POP PUSH1 0x20 DUP2 ADD SWAP1 POP PUSH2 0xD0C JUMP JUMPDEST POP POP POP SWAP4 SWAP3 POP POP POP JUMP JUMPDEST PUSH1 0x0 DUP3 PUSH1 0x1F DUP4 ADD SLT PUSH2 0xD52 JUMPI PUSH2 0xD51 PUSH2 0x757 JUMP JUMPDEST JUMPDEST DUP2 MLOAD PUSH2 0xD62 DUP5 DUP3 PUSH1 0x20 DUP7 ADD PUSH2 0xCD4 JUMP JUMPDEST SWAP2 POP POP SWAP3 SWAP2 POP POP JUMP JUMPDEST PUSH1 0x0 PUSH1 0x20 DUP3 DUP5 SUB SLT ISZERO PUSH2 0xD81 JUMPI PUSH2 0xD80 PUSH2 0x5F6 JUMP JUMPDEST JUMPDEST PUSH1 0x0 DUP3 ADD MLOAD PUSH8 0xFFFFFFFFFFFFFFFF DUP2 GT ISZERO PUSH2 0xD9F JUMPI PUSH2 0xD9E PUSH2 0x5FB JUMP JUMPDEST JUMPDEST PUSH2 0xDAB DUP5 DUP3 DUP6 ADD PUSH2 0xD3D JUMP JUMPDEST SWAP2 POP POP SWAP3 SWAP2 POP POP JUMP JUMPDEST PUSH1 0x0 DUP2 SWAP1 POP SWAP2 SWAP1 POP JUMP JUMPDEST PUSH1 0x0 DUP2 SWAP1 POP SWAP2 SWAP1 POP JUMP JUMPDEST PUSH1 0x0 PUSH2 0xDE3 PUSH2 0xDDE PUSH2 0xDD9 DUP5 PUSH2 0xDB4 JUMP JUMPDEST PUSH2 0xDBE JUMP JUMPDEST PUSH2 0x65E JUMP JUMPDEST SWAP1 POP SWAP2 SWAP1 POP JUMP JUMPDEST PUSH2 0xDF3 DUP2 PUSH2 0xDC8 JUMP JUMPDEST DUP3 MSTORE POP POP JUMP JUMPDEST PUSH1 0x0 PUSH2 0x100 DUP3 ADD SWAP1 POP PUSH2 0xE0F PUSH1 0x0 DUP4 ADD DUP12 PUSH2 0x844 JUMP JUMPDEST PUSH2 0xE1C PUSH1 0x20 DUP4 ADD DUP11 PUSH2 0x844 JUMP JUMPDEST PUSH2 0xE29 PUSH1 0x40 DUP4 ADD DUP10 PUSH2 0x94C JUMP JUMPDEST PUSH2 0xE36 PUSH1 0x60 DUP4 ADD DUP9 PUSH2 0x94C JUMP JUMPDEST PUSH2 0xE43 PUSH1 0x80 DUP4 ADD DUP8 PUSH2 0xDEA JUMP JUMPDEST PUSH2 0xE50 PUSH1 0xA0 DUP4 ADD DUP7 PUSH2 0xDEA JUMP JUMPDEST PUSH2 0xE5D PUSH1 0xC0 DUP4 ADD DUP6 PUSH2 0x844 JUMP JUMPDEST PUSH2 0xE6A PUSH1 0xE0 DUP4 ADD DUP5 PUSH2 0x94C JUMP JUMPDEST SWAP10 SWAP9 POP POP POP POP POP POP POP POP POP JUMP JUMPDEST PUSH1 0x0 DUP1 PUSH1 0x0 PUSH1 0x60 DUP5 DUP7 SUB SLT ISZERO PUSH2 0xE90 JUMPI PUSH2 0xE8F PUSH2 0x5F6 JUMP JUMPDEST JUMPDEST PUSH1 0x0 PUSH2 0xE9E DUP7 DUP3 DUP8 ADD PUSH2 0x9CA JUMP JUMPDEST SWAP4 POP POP PUSH1 0x20 PUSH2 0xEAF DUP7 DUP3 DUP8 ADD PUSH2 0x9CA JUMP JUMPDEST SWAP3 POP POP PUSH1 0x40 PUSH2 0xEC0 DUP7 DUP3 DUP8 ADD PUSH2 0x9CA JUMP JUMPDEST SWAP2 POP POP SWAP3 POP SWAP3 POP SWAP3 JUMP INVALID LOG2 PUSH5 0x6970667358 0x22 SLT KECCAK256 0xB6 MSTORE8 0xC0 0xE2 SWAP5 PUSH25 0xCA2A5BA036DE069DF8F8888C67274E9BF7C8EE9FB0BB0E6FFB CALLVALUE PUSH5 0x736F6C6343 STOP ADDMOD GT STOP CALLER "},"methodIdentifiers":{"addliquidity(address,address,uint256,uint256,address)":"e9726958","exchangeTokens(uint256,uint256,address[],address)":"3fa71890","factory()":"c45a0155","removeLiquiduty(address,address,uint256,uint256,uint256,address)":"325cf27e","router()":"f887ea40"}}}}}